{
  "contractName": "ERC1155HolderUpgradeable",
  "abi": [
    {
      "inputs": [
        {
          "internalType": "bytes4",
          "name": "interfaceId",
          "type": "bytes4"
        }
      ],
      "name": "supportsInterface",
      "outputs": [
        {
          "internalType": "bool",
          "name": "",
          "type": "bool"
        }
      ],
      "stateMutability": "view",
      "type": "function"
    },
    {
      "inputs": [
        {
          "internalType": "address",
          "name": "",
          "type": "address"
        },
        {
          "internalType": "address",
          "name": "",
          "type": "address"
        },
        {
          "internalType": "uint256",
          "name": "",
          "type": "uint256"
        },
        {
          "internalType": "uint256",
          "name": "",
          "type": "uint256"
        },
        {
          "internalType": "bytes",
          "name": "",
          "type": "bytes"
        }
      ],
      "name": "onERC1155Received",
      "outputs": [
        {
          "internalType": "bytes4",
          "name": "",
          "type": "bytes4"
        }
      ],
      "stateMutability": "nonpayable",
      "type": "function"
    },
    {
      "inputs": [
        {
          "internalType": "address",
          "name": "",
          "type": "address"
        },
        {
          "internalType": "address",
          "name": "",
          "type": "address"
        },
        {
          "internalType": "uint256[]",
          "name": "",
          "type": "uint256[]"
        },
        {
          "internalType": "uint256[]",
          "name": "",
          "type": "uint256[]"
        },
        {
          "internalType": "bytes",
          "name": "",
          "type": "bytes"
        }
      ],
      "name": "onERC1155BatchReceived",
      "outputs": [
        {
          "internalType": "bytes4",
          "name": "",
          "type": "bytes4"
        }
      ],
      "stateMutability": "nonpayable",
      "type": "function"
    }
  ],
  "bytecode": "0x608060405234801561001057600080fd5b506104af806100206000396000f3fe608060405234801561001057600080fd5b50600436106100415760003560e01c806301ffc9a714610046578063bc197c811461006e578063f23a6e61146100d7575b600080fd5b6100596100543660046101a8565b61010f565b60405190151581526020015b60405180910390f35b6100a661007c36600461036a565b7fbc197c810000000000000000000000000000000000000000000000000000000095945050505050565b6040517fffffffff000000000000000000000000000000000000000000000000000000009091168152602001610065565b6100a66100e5366004610414565b7ff23a6e610000000000000000000000000000000000000000000000000000000095945050505050565b60007fffffffff0000000000000000000000000000000000000000000000000000000082167f4e2312e00000000000000000000000000000000000000000000000000000000014806101a257507f01ffc9a7000000000000000000000000000000000000000000000000000000007fffffffff000000000000000000000000000000000000000000000000000000008316145b92915050565b6000602082840312156101ba57600080fd5b81357fffffffff00000000000000000000000000000000000000000000000000000000811681146101ea57600080fd5b9392505050565b803573ffffffffffffffffffffffffffffffffffffffff8116811461021557600080fd5b919050565b7f4e487b7100000000000000000000000000000000000000000000000000000000600052604160045260246000fd5b604051601f8201601f1916810167ffffffffffffffff811182821017156102725761027261021a565b604052919050565b600082601f83011261028b57600080fd5b8135602067ffffffffffffffff8211156102a7576102a761021a565b8160051b6102b6828201610249565b92835284810182019282810190878511156102d057600080fd5b83870192505b848310156102ef578235825291830191908301906102d6565b979650505050505050565b600082601f83011261030b57600080fd5b813567ffffffffffffffff8111156103255761032561021a565b610338601f8201601f1916602001610249565b81815284602083860101111561034d57600080fd5b816020850160208301376000918101602001919091529392505050565b600080600080600060a0868803121561038257600080fd5b61038b866101f1565b9450610399602087016101f1565b9350604086013567ffffffffffffffff808211156103b657600080fd5b6103c289838a0161027a565b945060608801359150808211156103d857600080fd5b6103e489838a0161027a565b935060808801359150808211156103fa57600080fd5b50610407888289016102fa565b9150509295509295909350565b600080600080600060a0868803121561042c57600080fd5b610435866101f1565b9450610443602087016101f1565b93506040860135925060608601359150608086013567ffffffffffffffff81111561046d57600080fd5b610407888289016102fa56fea2646970667358221220cc2794da10f8f13246f253d9df651a39099ad5316b51c35e1abd88a53a2224d664736f6c634300080a0033",
  "immutableReferences": {},
  "source": "// SPDX-License-Identifier: MIT\n// OpenZeppelin Contracts v4.4.0 (token/ERC1155/utils/ERC1155Holder.sol)\n\npragma solidity ^0.8.0;\n\nimport \"./ERC1155ReceiverUpgradeable.sol\";\nimport \"../../../proxy/utils/Initializable.sol\";\n\n/**\n * @dev _Available since v3.1._\n */\ncontract ERC1155HolderUpgradeable is Initializable, ERC1155ReceiverUpgradeable {\n    function __ERC1155Holder_init() internal initializer {\n        __ERC165_init_unchained();\n        __ERC1155Receiver_init_unchained();\n        __ERC1155Holder_init_unchained();\n    }\n\n    function __ERC1155Holder_init_unchained() internal initializer {\n    }\n    function onERC1155Received(\n        address,\n        address,\n        uint256,\n        uint256,\n        bytes memory\n    ) public virtual override returns (bytes4) {\n        return this.onERC1155Received.selector;\n    }\n\n    function onERC1155BatchReceived(\n        address,\n        address,\n        uint256[] memory,\n        uint256[] memory,\n        bytes memory\n    ) public virtual override returns (bytes4) {\n        return this.onERC1155BatchReceived.selector;\n    }\n    uint256[50] private __gap;\n}\n",
  "sourcePath": "@openzeppelin/contracts-upgradeable/token/ERC1155/utils/ERC1155HolderUpgradeable.sol",
  "compiler": {
    "name": "solc",
    "version": "0.8.10+commit.fc410830.Emscripten.clang"
  },
  "schemaVersion": "3.4.4",
  "updatedAt": "2021-12-21T13:28:16.615Z",
  "devdoc": {
    "details": "_Available since v3.1._",
    "kind": "dev",
    "methods": {
      "supportsInterface(bytes4)": {
        "details": "See {IERC165-supportsInterface}."
      }
    },
    "version": 1
  },
  "userdoc": {
    "kind": "user",
    "methods": {},
    "version": 1
  }
}