{
  "contractName": "QuestFactory",
  "abi": [
    {
      "anonymous": false,
      "inputs": [
        {
          "indexed": false,
          "internalType": "address",
          "name": "previousAdmin",
          "type": "address"
        },
        {
          "indexed": false,
          "internalType": "address",
          "name": "newAdmin",
          "type": "address"
        }
      ],
      "name": "AdminChanged",
      "type": "event"
    },
    {
      "anonymous": false,
      "inputs": [
        {
          "indexed": true,
          "internalType": "address",
          "name": "beacon",
          "type": "address"
        }
      ],
      "name": "BeaconUpgraded",
      "type": "event"
    },
    {
      "anonymous": false,
      "inputs": [
        {
          "indexed": true,
          "internalType": "address",
          "name": "previousOwner",
          "type": "address"
        },
        {
          "indexed": true,
          "internalType": "address",
          "name": "newOwner",
          "type": "address"
        }
      ],
      "name": "OwnershipTransferred",
      "type": "event"
    },
    {
      "anonymous": false,
      "inputs": [
        {
          "indexed": false,
          "internalType": "address",
          "name": "account",
          "type": "address"
        }
      ],
      "name": "Paused",
      "type": "event"
    },
    {
      "anonymous": false,
      "inputs": [
        {
          "indexed": false,
          "internalType": "address",
          "name": "tokenAddress",
          "type": "address"
        }
      ],
      "name": "TokenDeployed",
      "type": "event"
    },
    {
      "anonymous": false,
      "inputs": [
        {
          "indexed": false,
          "internalType": "address",
          "name": "account",
          "type": "address"
        }
      ],
      "name": "Unpaused",
      "type": "event"
    },
    {
      "anonymous": false,
      "inputs": [
        {
          "indexed": true,
          "internalType": "address",
          "name": "implementation",
          "type": "address"
        }
      ],
      "name": "Upgraded",
      "type": "event"
    },
    {
      "inputs": [],
      "name": "owner",
      "outputs": [
        {
          "internalType": "address",
          "name": "",
          "type": "address"
        }
      ],
      "stateMutability": "view",
      "type": "function"
    },
    {
      "inputs": [],
      "name": "paused",
      "outputs": [
        {
          "internalType": "bool",
          "name": "",
          "type": "bool"
        }
      ],
      "stateMutability": "view",
      "type": "function"
    },
    {
      "inputs": [],
      "name": "renounceOwnership",
      "outputs": [],
      "stateMutability": "nonpayable",
      "type": "function"
    },
    {
      "inputs": [
        {
          "internalType": "address",
          "name": "newOwner",
          "type": "address"
        }
      ],
      "name": "transferOwnership",
      "outputs": [],
      "stateMutability": "nonpayable",
      "type": "function"
    },
    {
      "inputs": [
        {
          "internalType": "address",
          "name": "newImplementation",
          "type": "address"
        },
        {
          "internalType": "bytes",
          "name": "data",
          "type": "bytes"
        }
      ],
      "name": "upgradeToAndCall",
      "outputs": [],
      "stateMutability": "payable",
      "type": "function"
    },
    {
      "inputs": [],
      "name": "initialize",
      "outputs": [],
      "stateMutability": "nonpayable",
      "type": "function"
    },
    {
      "inputs": [
        {
          "internalType": "address",
          "name": "treasury",
          "type": "address"
        },
        {
          "internalType": "address",
          "name": "upgrader",
          "type": "address"
        },
        {
          "internalType": "string",
          "name": "uri",
          "type": "string"
        }
      ],
      "name": "listProperty",
      "outputs": [
        {
          "internalType": "address",
          "name": "",
          "type": "address"
        }
      ],
      "stateMutability": "nonpayable",
      "type": "function"
    },
    {
      "inputs": [],
      "name": "pause",
      "outputs": [],
      "stateMutability": "nonpayable",
      "type": "function"
    },
    {
      "inputs": [],
      "name": "unpause",
      "outputs": [],
      "stateMutability": "nonpayable",
      "type": "function"
    },
    {
      "inputs": [
        {
          "internalType": "address",
          "name": "newFactory",
          "type": "address"
        }
      ],
      "name": "upgradeTo",
      "outputs": [],
      "stateMutability": "nonpayable",
      "type": "function"
    }
  ],
  "bytecode": "0x60a06040523060805234801561001457600080fd5b506080516164136100376000396000818161032201526103ba01526164136000f3fe608060405260043610620000bf5760003560e01c80638129fc1c11620000715780638da5cb5b11620000545780638da5cb5b146200018b57806397dd6c8c14620001bf578063f2fde38b14620001e457600080fd5b80638129fc1c146200015b5780638456cb59146200017357600080fd5b80634f1ef28611620000a65780634f1ef28614620001035780635c975abb146200011a578063715018a6146200014357600080fd5b80633659cfe614620000c45780633f4ba83a14620000eb575b600080fd5b348015620000d157600080fd5b50620000e9620000e33660046200140d565b62000209565b005b348015620000f857600080fd5b50620000e9620002af565b620000e9620001143660046200145a565b62000317565b3480156200012757600080fd5b5060655460ff1660405190151581526020015b60405180910390f35b3480156200015057600080fd5b50620000e9620004af565b3480156200016857600080fd5b50620000e962000517565b3480156200018057600080fd5b50620000e96200069a565b3480156200019857600080fd5b506033546001600160a01b03165b6040516001600160a01b0390911681526020016200013a565b348015620001cc57600080fd5b50620001a6620001de36600462001528565b62000700565b348015620001f157600080fd5b50620000e9620002033660046200140d565b62000888565b62000214816200096d565b604080516000808252602082019092526200023291839190620009c9565b803b620002ac5760405162461bcd60e51b815260206004820152602c60248201527f51756573743a206e657720496d706c656d656e746174696f6e206d757374206260448201527f65206120636f6e7472616374000000000000000000000000000000000000000060648201526084015b60405180910390fd5b50565b6033546001600160a01b031633146200030b5760405162461bcd60e51b815260206004820181905260248201527f4f776e61626c653a2063616c6c6572206973206e6f7420746865206f776e65726044820152606401620002a3565b6200031562000b9b565b565b306001600160a01b037f0000000000000000000000000000000000000000000000000000000000000000161415620003b85760405162461bcd60e51b815260206004820152602c60248201527f46756e6374696f6e206d7573742062652063616c6c6564207468726f7567682060448201527f64656c656761746563616c6c00000000000000000000000000000000000000006064820152608401620002a3565b7f00000000000000000000000000000000000000000000000000000000000000006001600160a01b0316620004147f360894a13ba1a3210667c828492db98dca3e2076cc3735a920a3ca505d382bbc546001600160a01b031690565b6001600160a01b031614620004925760405162461bcd60e51b815260206004820152602c60248201527f46756e6374696f6e206d7573742062652063616c6c6564207468726f7567682060448201527f6163746976652070726f787900000000000000000000000000000000000000006064820152608401620002a3565b6200049d826200096d565b620004ab82826001620009c9565b5050565b6033546001600160a01b031633146200050b5760405162461bcd60e51b815260206004820181905260248201527f4f776e61626c653a2063616c6c6572206973206e6f7420746865206f776e65726044820152606401620002a3565b62000315600062000c39565b600054610100900460ff168062000531575060005460ff16155b620005965760405162461bcd60e51b815260206004820152602e60248201527f496e697469616c697a61626c653a20636f6e747261637420697320616c72656160448201526d191e481a5b9a5d1a585b1a5e995960921b6064820152608401620002a3565b600054610100900460ff16158015620005b9576000805461ffff19166101011790555b60655460ff16156200060e5760405162461bcd60e51b815260206004820152601060248201527f5061757361626c653a20706175736564000000000000000000000000000000006044820152606401620002a3565b6200061862000c98565b6200062262000d63565b6200062c62000e19565b6040516200063a90620013d4565b604051809103906000f08015801562000657573d6000803e3d6000fd5b5060fb805473ffffffffffffffffffffffffffffffffffffffff19166001600160a01b03929092169190911790558015620002ac576000805461ff001916905550565b6033546001600160a01b03163314620006f65760405162461bcd60e51b815260206004820181905260248201527f4f776e61626c653a2063616c6c6572206973206e6f7420746865206f776e65726044820152606401620002a3565b6200031562000ecf565b60006200070f60655460ff1690565b156200075e5760405162461bcd60e51b815260206004820152601060248201527f5061757361626c653a20706175736564000000000000000000000000000000006044820152606401620002a3565b60fb546040516000916001600160a01b0316907f3f2f5ee20000000000000000000000000000000000000000000000000000000090620007a9908990899089908990602401620015bf565b60408051601f198184030181529181526020820180517bffffffffffffffffffffffffffffffffffffffffffffffffffffffff167fffffffff000000000000000000000000000000000000000000000000000000009094169390931790925290516200081590620013e2565b620008229291906200166d565b604051809103906000f0801580156200083f573d6000803e3d6000fd5b506040516001600160a01b03821681529091507f91d24864a084ab70b268a1f865e757ca12006cf298d763b6be697302ef86498c9060200160405180910390a195945050505050565b6033546001600160a01b03163314620008e45760405162461bcd60e51b815260206004820181905260248201527f4f776e61626c653a2063616c6c6572206973206e6f7420746865206f776e65726044820152606401620002a3565b6001600160a01b038116620009625760405162461bcd60e51b815260206004820152602660248201527f4f776e61626c653a206e6577206f776e657220697320746865207a65726f206160448201527f64647265737300000000000000000000000000000000000000000000000000006064820152608401620002a3565b620002ac8162000c39565b6033546001600160a01b03163314620002ac5760405162461bcd60e51b815260206004820181905260248201527f4f776e61626c653a2063616c6c6572206973206e6f7420746865206f776e65726044820152606401620002a3565b6000620009fd7f360894a13ba1a3210667c828492db98dca3e2076cc3735a920a3ca505d382bbc546001600160a01b031690565b905062000a0a8462000f5a565b60008351118062000a185750815b1562000a2c5762000a2a84846200101e565b505b7f4910fdfa16fed3260ed0e7147f7cc6da11a60208b5b9406d12a635614ffd9143805460ff1662000b9457805460ff191660011781556040516001600160a01b038316602482015262000adc90869060440160408051601f198184030181529190526020810180517bffffffffffffffffffffffffffffffffffffffffffffffffffffffff167f3659cfe6000000000000000000000000000000000000000000000000000000001790526200101e565b50805460ff191681557f360894a13ba1a3210667c828492db98dca3e2076cc3735a920a3ca505d382bbc546001600160a01b0383811691161462000b895760405162461bcd60e51b815260206004820152602f60248201527f45524331393637557067726164653a207570677261646520627265616b73206660448201527f75727468657220757067726164657300000000000000000000000000000000006064820152608401620002a3565b62000b948562001129565b5050505050565b60655460ff1662000bef5760405162461bcd60e51b815260206004820152601460248201527f5061757361626c653a206e6f74207061757365640000000000000000000000006044820152606401620002a3565b6065805460ff191690557f5db9ee0a495bf2e6ff9c91a7834c1ba4fdd244a5e8aa4e537bd38aeae4b073aa335b6040516001600160a01b03909116815260200160405180910390a1565b603380546001600160a01b0383811673ffffffffffffffffffffffffffffffffffffffff19831681179093556040519116919082907f8be0079c531659141344cd1fd0a4f28419497f9722a3daafe3b4186f6b6457e090600090a35050565b600054610100900460ff168062000cb2575060005460ff16155b62000d175760405162461bcd60e51b815260206004820152602e60248201527f496e697469616c697a61626c653a20636f6e747261637420697320616c72656160448201526d191e481a5b9a5d1a585b1a5e995960921b6064820152608401620002a3565b600054610100900460ff1615801562000d3a576000805461ffff19166101011790555b62000d446200116b565b62000d4e6200116b565b8015620002ac576000805461ff001916905550565b600054610100900460ff168062000d7d575060005460ff16155b62000de25760405162461bcd60e51b815260206004820152602e60248201527f496e697469616c697a61626c653a20636f6e747261637420697320616c72656160448201526d191e481a5b9a5d1a585b1a5e995960921b6064820152608401620002a3565b600054610100900460ff1615801562000e05576000805461ffff19166101011790555b62000e0f6200116b565b62000d4e62001221565b600054610100900460ff168062000e33575060005460ff16155b62000e985760405162461bcd60e51b815260206004820152602e60248201527f496e697469616c697a61626c653a20636f6e747261637420697320616c72656160448201526d191e481a5b9a5d1a585b1a5e995960921b6064820152608401620002a3565b600054610100900460ff1615801562000ebb576000805461ffff19166101011790555b62000ec56200116b565b62000d4e620012e2565b60655460ff161562000f245760405162461bcd60e51b815260206004820152601060248201527f5061757361626c653a20706175736564000000000000000000000000000000006044820152606401620002a3565b6065805460ff191660011790557f62e78cea01bee320cd4e420270b5ea74000d11b0c9f74754ebdbfc544b05a25862000c1c3390565b803b62000fd05760405162461bcd60e51b815260206004820152602d60248201527f455243313936373a206e657720696d706c656d656e746174696f6e206973206e60448201527f6f74206120636f6e7472616374000000000000000000000000000000000000006064820152608401620002a3565b7f360894a13ba1a3210667c828492db98dca3e2076cc3735a920a3ca505d382bbc805473ffffffffffffffffffffffffffffffffffffffff19166001600160a01b0392909216919091179055565b6060823b620010965760405162461bcd60e51b815260206004820152602660248201527f416464726573733a2064656c65676174652063616c6c20746f206e6f6e2d636f60448201527f6e747261637400000000000000000000000000000000000000000000000000006064820152608401620002a3565b600080846001600160a01b031684604051620010b3919062001699565b600060405180830381855af49150503d8060008114620010f0576040519150601f19603f3d011682016040523d82523d6000602084013e620010f5565b606091505b5091509150620011208282604051806060016040528060278152602001620063b7602791396200138f565b95945050505050565b620011348162000f5a565b6040516001600160a01b038216907fbc7cd75a20ee27fd9adebab32041f755214dbc6bffa90cc0225b39da2e5c2d3b90600090a250565b600054610100900460ff168062001185575060005460ff16155b620011ea5760405162461bcd60e51b815260206004820152602e60248201527f496e697469616c697a61626c653a20636f6e747261637420697320616c72656160448201526d191e481a5b9a5d1a585b1a5e995960921b6064820152608401620002a3565b600054610100900460ff1615801562000d4e576000805461ffff19166101011790558015620002ac576000805461ff001916905550565b600054610100900460ff16806200123b575060005460ff16155b620012a05760405162461bcd60e51b815260206004820152602e60248201527f496e697469616c697a61626c653a20636f6e747261637420697320616c72656160448201526d191e481a5b9a5d1a585b1a5e995960921b6064820152608401620002a3565b600054610100900460ff16158015620012c3576000805461ffff19166101011790555b6065805460ff191690558015620002ac576000805461ff001916905550565b600054610100900460ff1680620012fc575060005460ff16155b620013615760405162461bcd60e51b815260206004820152602e60248201527f496e697469616c697a61626c653a20636f6e747261637420697320616c72656160448201526d191e481a5b9a5d1a585b1a5e995960921b6064820152608401620002a3565b600054610100900460ff1615801562001384576000805461ffff19166101011790555b62000d4e3362000c39565b60608315620013a0575081620013cd565b825115620013b15782518084602001fd5b8160405162461bcd60e51b8152600401620002a39190620016b7565b9392505050565b61452c80620016cd83390190565b6107be8062005bf983390190565b80356001600160a01b03811681146200140857600080fd5b919050565b6000602082840312156200142057600080fd5b620013cd82620013f0565b7f4e487b7100000000000000000000000000000000000000000000000000000000600052604160045260246000fd5b600080604083850312156200146e57600080fd5b6200147983620013f0565b9150602083013567ffffffffffffffff808211156200149757600080fd5b818501915085601f830112620014ac57600080fd5b813581811115620014c157620014c16200142b565b604051601f8201601f19908116603f01168101908382118183101715620014ec57620014ec6200142b565b816040528281528860208487010111156200150657600080fd5b8260208601602083013760006020848301015280955050505050509250929050565b600080600080606085870312156200153f57600080fd5b6200154a85620013f0565b93506200155a60208601620013f0565b9250604085013567ffffffffffffffff808211156200157857600080fd5b818701915087601f8301126200158d57600080fd5b8135818111156200159d57600080fd5b886020828501011115620015b057600080fd5b95989497505060200194505050565b60006001600160a01b03808716835280861660208401525060606040830152826060830152828460808401376000608084840101526080601f19601f850116830101905095945050505050565b60005b83811015620016295781810151838201526020016200160f565b8381111562001639576000848401525b50505050565b60008151808452620016598160208601602086016200160c565b601f01601f19169290920160200192915050565b6001600160a01b03831681526040602082015260006200169160408301846200163f565b949350505050565b60008251620016ad8184602087016200160c565b9190910192915050565b602081526000620013cd60208301846200163f56fe60a06040523060805234801561001457600080fd5b506080516144e761004560003960008181610ef701528181610f8d01528181611389015261141f01526144e76000f3fe6080604052600436106102db5760003560e01c80637284e41611610184578063bc197c81116100d6578063e985e9c51161008a578063f242432a11610064578063f242432a1461083a578063f72c0d8b1461085a578063f7b108081461088e57600080fd5b8063e985e9c5146107ae578063ee7a3b8e146107f7578063f23a6e611461080e57600080fd5b8063d11a57ec116100bb578063d11a57ec1461073a578063d4f8115d1461076e578063d547741f1461078e57600080fd5b8063bc197c81146106c7578063bd85b0391461070c57600080fd5b80638052f5d311610138578063a217fddf11610112578063a217fddf14610604578063a22cb46514610687578063ad64d068146106a757600080fd5b80638052f5d31461061957806391d148541461062e57806396f6b2fa1461067457600080fd5b8063744a329011610169578063744a3290146105c757806375d0c0dc146105ef5780637ef838041461060457600080fd5b80637284e4161461059d57806372f0cbef146105b257600080fd5b80632f2ff15d1161023d5780634e1273f4116101f157806354fd4d50116101cb57806354fd4d501461055357806356f810441461056857806359af55b91461058857600080fd5b80634e1273f4146104e35780634f1ef286146105105780634f558e791461052357600080fd5b806336568abe1161022257806336568abe146104835780633659cfe6146104a35780633f2f5ee2146104c357600080fd5b80632f2ff15d1461044d57806333d9eeba1461046d57600080fd5b80630fad0d3a11610294578063248a9ca311610279578063248a9ca3146103e85780632d649491146104185780632eb2c2d61461042d57600080fd5b80630fad0d3a146103b35780631cc509fd146103c857600080fd5b806302fe5305116102c557806302fe53051461034357806307869656146103655780630e89341c1461038657600080fd5b8062fdd58e146102e057806301ffc9a714610313575b600080fd5b3480156102ec57600080fd5b506103006102fb3660046138ef565b6108bc565b6040519081526020015b60405180910390f35b34801561031f57600080fd5b5061033361032e36600461392f565b610967565b604051901515815260200161030a565b34801561034f57600080fd5b5061036361035e366004613a03565b610978565b005b610378610373366004613ad5565b610991565b60405161030a929190613bbd565b34801561039257600080fd5b506103a66103a1366004613be2565b610bfc565b60405161030a9190613c53565b3480156103bf57600080fd5b50610300600381565b3480156103d457600080fd5b506103636103e3366004613c66565b610c90565b3480156103f457600080fd5b50610300610403366004613be2565b600090815260fb602052604090206001015490565b34801561042457600080fd5b50610300600481565b34801561043957600080fd5b50610363610448366004613c99565b610d97565b34801561045957600080fd5b50610363610468366004613d43565b610e39565b34801561047957600080fd5b5061019554610300565b34801561048f57600080fd5b5061036361049e366004613d43565b610e64565b3480156104af57600080fd5b506103636104be366004613d6f565b610eec565b3480156104cf57600080fd5b506103636104de366004613d8a565b61108a565b3480156104ef57600080fd5b506105036104fe366004613e04565b611240565b60405161030a9190613ecf565b61036361051e366004613ee2565b61137e565b34801561052f57600080fd5b5061033361053e366004613be2565b600090815261019d6020526040902054151590565b34801561055f57600080fd5b50610300611509565b34801561057457600080fd5b50610363610583366004613f26565b611528565b34801561059457600080fd5b50610300600181565b3480156105a957600080fd5b506103a66115e3565b3480156105be57600080fd5b50610300600281565b6105da6105d5366004613f6b565b611672565b6040805192835260208301919091520161030a565b3480156105fb57600080fd5b506103a66117a2565b34801561061057600080fd5b50610300600081565b34801561062557600080fd5b50610300600581565b34801561063a57600080fd5b50610333610649366004613d43565b600091825260fb602090815260408084206001600160a01b0393909316845291905290205460ff1690565b610363610682366004613fbb565b6117b0565b34801561069357600080fd5b506103636106a2366004614010565b611878565b3480156106b357600080fd5b506103006106c2366004613be2565b611883565b3480156106d357600080fd5b506106f36106e2366004613c99565b63bc197c8160e01b95945050505050565b6040516001600160e01b0319909116815260200161030a565b34801561071857600080fd5b50610300610727366004613be2565b600090815261019d602052604090205490565b34801561074657600080fd5b506103007fe1dcbdb91df27212a29bc27177c840cf2f819ecf2187432e1fac86c2dd5dfca981565b34801561077a57600080fd5b5061036361078936600461404c565b61189b565b34801561079a57600080fd5b506103636107a9366004613d43565b611940565b3480156107ba57600080fd5b506103336107c93660046140c0565b6001600160a01b03918216600090815260666020908152604080832093909416825291909152205460ff1690565b34801561080357600080fd5b506103006101955481565b34801561081a57600080fd5b506106f36108293660046140ea565b63f23a6e6160e01b95945050505050565b34801561084657600080fd5b506103636108553660046140ea565b611966565b34801561086657600080fd5b506103007f189ab7a9244df0848122154315af71fe140f3db0fe014031783b0946b8c9d2e381565b34801561089a57600080fd5b506108ae6108a9366004613be2565b611a01565b60405161030a92919061414f565b60006001600160a01b03831661093f5760405162461bcd60e51b815260206004820152602b60248201527f455243313135353a2062616c616e636520717565727920666f7220746865207a60448201527f65726f206164647265737300000000000000000000000000000000000000000060648201526084015b60405180910390fd5b5060009081526065602090815260408083206001600160a01b03949094168352929052205490565b600061097282611aaf565b92915050565b60006109848133611aed565b61098d82611b6d565b5050565b6060807fe1dcbdb91df27212a29bc27177c840cf2f819ecf2187432e1fac86c2dd5dfca96109bf8133611aed565b835187511480156109d1575083518751145b610a435760405162461bcd60e51b815260206004820152602d60248201527f51756573743a206964732c20616d6f756e74732c202620707269636573206c6560448201527f6e677468206d69736d61746368000000000000000000000000000000000000006064820152608401610936565b86516000905b808211610b165761019c60008a8481518110610a6757610a6761417a565b6020026020010151815260200190815260200160002060020160405180606001604052808b8581518110610a9d57610a9d61417a565b60200260200101518152602001888581518110610abc57610abc61417a565b60209081029190910181015182524291810191909152825460018181018555600094855293829020835160039092020190815590820151928101929092556040015160029091015581610b0e816141a6565b925050610a49565b610b48898381518110610b2b57610b2b61417a565b6020026020010151600090815261019d6020526040902054151590565b158015610b6f57506005898381518110610b6457610b6461417a565b602002602001015111155b610be15760405162461bcd60e51b815260206004820152602660248201527f51756573743a20746f6b656e206973206d696e746564206f72206f7574206f6660448201527f2072616e676500000000000000000000000000000000000000000000000000006064820152608401610936565b610bed308a8a8a611b80565b50969793965092945050505050565b606060678054610c0b906141c1565b80601f0160208091040260200160405190810160405280929190818152602001828054610c37906141c1565b8015610c845780601f10610c5957610100808354040283529160200191610c84565b820191906000526020600020905b815481529060010190602001808311610c6757829003601f168201915b50505050509050919050565b6000610c9c8133611aed565b600083815261019d6020526040902054610cf85760405162461bcd60e51b815260206004820152601960248201527f51756573743a204e465420646f6573206e6f74206578697374000000000000006044820152606401610936565b6001600160a01b038416331480610d145750610d1484336107c9565b610d865760405162461bcd60e51b815260206004820152602760248201527f51756573743a2063616c6c6572206973206e6f74206f776e6572206e6f72206160448201527f7070726f766564000000000000000000000000000000000000000000000000006064820152608401610936565b610d91848484611d56565b50505050565b6001600160a01b038516331480610db35750610db385336107c9565b610e255760405162461bcd60e51b815260206004820152603260248201527f455243313135353a207472616e736665722063616c6c6572206973206e6f742060448201527f6f776e6572206e6f7220617070726f76656400000000000000000000000000006064820152608401610936565b610e328585858585611ed3565b5050505050565b600082815260fb6020526040902060010154610e558133611aed565b610e5f838361214d565b505050565b6001600160a01b0381163314610ee25760405162461bcd60e51b815260206004820152602f60248201527f416363657373436f6e74726f6c3a2063616e206f6e6c792072656e6f756e636560448201527f20726f6c657320666f722073656c6600000000000000000000000000000000006064820152608401610936565b61098d82826121ef565b306001600160a01b037f0000000000000000000000000000000000000000000000000000000000000000161415610f8b5760405162461bcd60e51b815260206004820152602c60248201527f46756e6374696f6e206d7573742062652063616c6c6564207468726f7567682060448201527f64656c656761746563616c6c00000000000000000000000000000000000000006064820152608401610936565b7f00000000000000000000000000000000000000000000000000000000000000006001600160a01b0316610fe67f360894a13ba1a3210667c828492db98dca3e2076cc3735a920a3ca505d382bbc546001600160a01b031690565b6001600160a01b0316146110625760405162461bcd60e51b815260206004820152602c60248201527f46756e6374696f6e206d7573742062652063616c6c6564207468726f7567682060448201527f6163746976652070726f787900000000000000000000000000000000000000006064820152608401610936565b61106b81612272565b6040805160008082526020820190925261108791839190612364565b50565b600054610100900460ff16806110a3575060005460ff16155b6111065760405162461bcd60e51b815260206004820152602e60248201527f496e697469616c697a61626c653a20636f6e747261637420697320616c72656160448201526d191e481a5b9a5d1a585b1a5e995960921b6064820152608401610936565b600054610100900460ff16158015611128576000805461ffff19166101011790555b61113184612521565b6111396125ed565b6111416126b7565b6111496125ed565b6111516126b7565b61115c60003361275c565b6111867fe1dcbdb91df27212a29bc27177c840cf2f819ecf2187432e1fac86c2dd5dfca98761275c565b6111b07f189ab7a9244df0848122154315af71fe140f3db0fe014031783b0946b8c9d2e38661275c565b82516111c49061019390602086019061383a565b5081516111d99061019490602085019061383a565b506111e961019180546001019055565b610191546101955560405160019061019e906112069087906141fc565b908152604051908190036020019020805491151560ff199092169190911790558015611238576000805461ff00191690555b505050505050565b606081518351146112b95760405162461bcd60e51b815260206004820152602960248201527f455243313135353a206163636f756e747320616e6420696473206c656e67746860448201527f206d69736d6174636800000000000000000000000000000000000000000000006064820152608401610936565b6000835167ffffffffffffffff8111156112d5576112d561394c565b6040519080825280602002602001820160405280156112fe578160200160208202803683370190505b50905060005b8451811015611376576113498582815181106113225761132261417a565b602002602001015185838151811061133c5761133c61417a565b60200260200101516108bc565b82828151811061135b5761135b61417a565b602090810291909101015261136f816141a6565b9050611304565b509392505050565b306001600160a01b037f000000000000000000000000000000000000000000000000000000000000000016141561141d5760405162461bcd60e51b815260206004820152602c60248201527f46756e6374696f6e206d7573742062652063616c6c6564207468726f7567682060448201527f64656c656761746563616c6c00000000000000000000000000000000000000006064820152608401610936565b7f00000000000000000000000000000000000000000000000000000000000000006001600160a01b03166114787f360894a13ba1a3210667c828492db98dca3e2076cc3735a920a3ca505d382bbc546001600160a01b031690565b6001600160a01b0316146114f45760405162461bcd60e51b815260206004820152602c60248201527f46756e6374696f6e206d7573742062652063616c6c6564207468726f7567682060448201527f6163746976652070726f787900000000000000000000000000000000000000006064820152608401610936565b6114fd82612272565b61098d82826001612364565b600061151a61019280546001019055565b506101925461019681905590565b60006115348133611aed565b61019554600090815261019c6020908152604090912084516115589286019061383a565b506101958054600090815261019c60205260409081902060010180547fffffffffffffffffffffffff0000000000000000000000000000000000000000166001600160a01b038616179055905490517fe7728328277361a76a29cdcb4681be86dbbf1934457953cc0e4151f56a811244916115d69185908790614218565b60405180910390a1505050565b61019480546115f1906141c1565b80601f016020809104026020016040519081016040528092919081815260200182805461161d906141c1565b801561166a5780601f1061163f5761010080835404028352916020019161166a565b820191906000526020600020905b81548152906001019060200180831161164d57829003601f168201915b505050505081565b6000807fe1dcbdb91df27212a29bc27177c840cf2f819ecf2187432e1fac86c2dd5dfca96116a08133611aed565b600086815261019d60205260409020541580156116be575060058611155b6117305760405162461bcd60e51b815260206004820152602b60248201527f51756573743a20746f6b656e20616c7265616479206d696e746564206f72206f60448201527f7574206f662072616e67650000000000000000000000000000000000000000006064820152608401610936565b61173d3087600188612766565b505061019554600090815261019c60209081526040808320815160608101835288815280840187815242938201938452600292830180546001808201835591885295909620915160039095029091019384555193830193909355519101555091929050565b61019380546115f1906141c1565b60006117bc8133611aed565b826117c730866108bc565b10156118155760405162461bcd60e51b815260206004820152601d60248201527f51756573743a2062616c616e6365206973206e6f7420656e6f756768740000006044820152606401610936565b6001600160a01b03851661186b5760405162461bcd60e51b815260206004820152601f60248201527f51756573743a207472616e7366657220746f207a65726f2061646472657373006044820152606401610936565b610e323086868686611966565b61098d338383612878565b610197816005811061189457600080fd5b0154905081565b60006118a78133611aed565b6001600160a01b0384163314806118c357506118c384336107c9565b6119355760405162461bcd60e51b815260206004820152602760248201527f51756573743a2063616c6c6572206973206e6f74206f776e6572206e6f72206160448201527f7070726f766564000000000000000000000000000000000000000000000000006064820152608401610936565b610d9184848461296d565b600082815260fb602052604090206001015461195c8133611aed565b610e5f83836121ef565b6001600160a01b038516331480611982575061198285336107c9565b6119f45760405162461bcd60e51b815260206004820152602960248201527f455243313135353a2063616c6c6572206973206e6f74206f776e6572206e6f7260448201527f20617070726f76656400000000000000000000000000000000000000000000006064820152608401610936565b610e328585858585612bb7565b61019c60205260009081526040902080548190611a1d906141c1565b80601f0160208091040260200160405190810160405280929190818152602001828054611a49906141c1565b8015611a965780601f10611a6b57610100808354040283529160200191611a96565b820191906000526020600020905b815481529060010190602001808311611a7957829003601f168201915b505050600190930154919250506001600160a01b031682565b60006001600160e01b031982167f7965db0b000000000000000000000000000000000000000000000000000000001480610972575061097282612d6c565b600082815260fb602090815260408083206001600160a01b038516845290915290205460ff1661098d57611b2b816001600160a01b03166014612daa565b611b36836020612daa565b604051602001611b47929190614240565b60408051601f198184030181529082905262461bcd60e51b825261093691600401613c53565b805161098d90606790602084019061383a565b6001600160a01b038416611be05760405162461bcd60e51b815260206004820152602160248201527f455243313135353a206d696e7420746f20746865207a65726f206164647265736044820152607360f81b6064820152608401610936565b8151835114611c425760405162461bcd60e51b815260206004820152602860248201527f455243313135353a2069647320616e6420616d6f756e7473206c656e677468206044820152670dad2e6dac2e8c6d60c31b6064820152608401610936565b33611c5281600087878787612fda565b60005b8451811015611cee57838181518110611c7057611c7061417a565b602002602001015160656000878481518110611c8e57611c8e61417a565b602002602001015181526020019081526020016000206000886001600160a01b03166001600160a01b031681526020019081526020016000206000828254611cd691906142c1565b90915550819050611ce6816141a6565b915050611c55565b50846001600160a01b031660006001600160a01b0316826001600160a01b03167f4a39dc06d4c0dbc64b70af90fd698a233a518aa5d07e595d983b8c0526c8f7fb8787604051611d3f929190613bbd565b60405180910390a4610e32816000878787876130e8565b6001600160a01b038316611db85760405162461bcd60e51b815260206004820152602360248201527f455243313135353a206275726e2066726f6d20746865207a65726f206164647260448201526265737360e81b6064820152608401610936565b33611de781856000611dc9876132a3565b611dd2876132a3565b60405180602001604052806000815250612fda565b60008381526065602090815260408083206001600160a01b038816845290915290205482811015611e665760405162461bcd60e51b8152602060048201526024808201527f455243313135353a206275726e20616d6f756e7420657863656564732062616c604482015263616e636560e01b6064820152608401610936565b60008481526065602090815260408083206001600160a01b03898116808652918452828520888703905582518981529384018890529092908616917fc3d58168c5ae7397731d063d5bbf3d657854427343f4c083240f7aacaa2d0f62910160405180910390a45050505050565b8151835114611f355760405162461bcd60e51b815260206004820152602860248201527f455243313135353a2069647320616e6420616d6f756e7473206c656e677468206044820152670dad2e6dac2e8c6d60c31b6064820152608401610936565b6001600160a01b038416611f995760405162461bcd60e51b815260206004820152602560248201527f455243313135353a207472616e7366657220746f20746865207a65726f206164604482015264647265737360d81b6064820152608401610936565b33611fa8818787878787612fda565b60005b84518110156120e7576000858281518110611fc857611fc861417a565b602002602001015190506000858381518110611fe657611fe661417a565b60209081029190910181015160008481526065835260408082206001600160a01b038e16835290935291909120549091508181101561208d5760405162461bcd60e51b815260206004820152602a60248201527f455243313135353a20696e73756666696369656e742062616c616e636520666f60448201527f72207472616e73666572000000000000000000000000000000000000000000006064820152608401610936565b60008381526065602090815260408083206001600160a01b038e8116855292528083208585039055908b168252812080548492906120cc9084906142c1565b92505081905550505050806120e0906141a6565b9050611fab565b50846001600160a01b0316866001600160a01b0316826001600160a01b03167f4a39dc06d4c0dbc64b70af90fd698a233a518aa5d07e595d983b8c0526c8f7fb8787604051612137929190613bbd565b60405180910390a46112388187878787876130e8565b600082815260fb602090815260408083206001600160a01b038516845290915290205460ff1661098d57600082815260fb602090815260408083206001600160a01b03851684529091529020805460ff191660011790556121ab3390565b6001600160a01b0316816001600160a01b0316837f2f8788117e7eff1d82e926ec794901d17c78024a50270940304540a733656f0d60405160405180910390a45050565b600082815260fb602090815260408083206001600160a01b038516845290915290205460ff161561098d57600082815260fb602090815260408083206001600160a01b0385168085529252808320805460ff1916905551339285917ff6391f5c32d9c69d2a47ea670b442974b53935d1edc7fd64eb21e047a839171b9190a45050565b3360009081527f775ac87777436f29b0cd5453bf5db4da15d8938d0ef70de831d2edd17651cf67602052604090205460ff166122f05760405162461bcd60e51b815260206004820152601960248201527f51756573743a2055504752414445525f524f4c45206f6e6c79000000000000006044820152606401610936565b803b6110875760405162461bcd60e51b815260206004820152602c60248201527f51756573743a206e657720496d706c656d656e746174696f6e206d757374206260448201527f65206120636f6e747261637400000000000000000000000000000000000000006064820152608401610936565b60006123977f360894a13ba1a3210667c828492db98dca3e2076cc3735a920a3ca505d382bbc546001600160a01b031690565b90506123a2846132ee565b6000835111806123af5750815b156123c0576123be84846133bb565b505b7f4910fdfa16fed3260ed0e7147f7cc6da11a60208b5b9406d12a635614ffd9143805460ff16610e3257805460ff191660011781556040516001600160a01b038316602482015261246d90869060440160408051601f198184030181529190526020810180517bffffffffffffffffffffffffffffffffffffffffffffffffffffffff167f3659cfe6000000000000000000000000000000000000000000000000000000001790526133bb565b50805460ff191681557f360894a13ba1a3210667c828492db98dca3e2076cc3735a920a3ca505d382bbc546001600160a01b038381169116146125185760405162461bcd60e51b815260206004820152602f60248201527f45524331393637557067726164653a207570677261646520627265616b73206660448201527f75727468657220757067726164657300000000000000000000000000000000006064820152608401610936565b610e32856134bd565b600054610100900460ff168061253a575060005460ff16155b61259d5760405162461bcd60e51b815260206004820152602e60248201527f496e697469616c697a61626c653a20636f6e747261637420697320616c72656160448201526d191e481a5b9a5d1a585b1a5e995960921b6064820152608401610936565b600054610100900460ff161580156125bf576000805461ffff19166101011790555b6125c76134fd565b6125cf6134fd565b6125d8826135ae565b801561098d576000805461ff00191690555050565b600054610100900460ff1680612606575060005460ff16155b6126695760405162461bcd60e51b815260206004820152602e60248201527f496e697469616c697a61626c653a20636f6e747261637420697320616c72656160448201526d191e481a5b9a5d1a585b1a5e995960921b6064820152608401610936565b600054610100900460ff1615801561268b576000805461ffff19166101011790555b6126936134fd565b61269b6134fd565b6126a36134fd565b8015611087576000805461ff001916905550565b600054610100900460ff16806126d0575060005460ff16155b6127335760405162461bcd60e51b815260206004820152602e60248201527f496e697469616c697a61626c653a20636f6e747261637420697320616c72656160448201526d191e481a5b9a5d1a585b1a5e995960921b6064820152608401610936565b600054610100900460ff16158015612693576000805461ffff191661010117905561269b6134fd565b61098d828261214d565b6001600160a01b0384166127c65760405162461bcd60e51b815260206004820152602160248201527f455243313135353a206d696e7420746f20746865207a65726f206164647265736044820152607360f81b6064820152608401610936565b336127e6816000876127d7886132a3565b6127e0886132a3565b87612fda565b60008481526065602090815260408083206001600160a01b0389168452909152812080548592906128189084906142c1565b909155505060408051858152602081018590526001600160a01b0380881692600092918516917fc3d58168c5ae7397731d063d5bbf3d657854427343f4c083240f7aacaa2d0f62910160405180910390a4610e3281600087878787613655565b816001600160a01b0316836001600160a01b031614156129005760405162461bcd60e51b815260206004820152602960248201527f455243313135353a2073657474696e6720617070726f76616c2073746174757360448201527f20666f722073656c6600000000000000000000000000000000000000000000006064820152608401610936565b6001600160a01b03838116600081815260666020908152604080832094871680845294825291829020805460ff191686151590811790915591519182527f17307eab39ab6107e8899845ad3d59bd9653f200f220920489ca2b5937696c31910160405180910390a3505050565b6001600160a01b0383166129cf5760405162461bcd60e51b815260206004820152602360248201527f455243313135353a206275726e2066726f6d20746865207a65726f206164647260448201526265737360e81b6064820152608401610936565b8051825114612a315760405162461bcd60e51b815260206004820152602860248201527f455243313135353a2069647320616e6420616d6f756e7473206c656e677468206044820152670dad2e6dac2e8c6d60c31b6064820152608401610936565b6000339050612a5481856000868660405180602001604052806000815250612fda565b60005b8351811015612b58576000848281518110612a7457612a7461417a565b602002602001015190506000848381518110612a9257612a9261417a565b60209081029190910181015160008481526065835260408082206001600160a01b038c168352909352919091205490915081811015612b1f5760405162461bcd60e51b8152602060048201526024808201527f455243313135353a206275726e20616d6f756e7420657863656564732062616c604482015263616e636560e01b6064820152608401610936565b60009283526065602090815260408085206001600160a01b038b1686529091529092209103905580612b50816141a6565b915050612a57565b5060006001600160a01b0316846001600160a01b0316826001600160a01b03167f4a39dc06d4c0dbc64b70af90fd698a233a518aa5d07e595d983b8c0526c8f7fb8686604051612ba9929190613bbd565b60405180910390a450505050565b6001600160a01b038416612c1b5760405162461bcd60e51b815260206004820152602560248201527f455243313135353a207472616e7366657220746f20746865207a65726f206164604482015264647265737360d81b6064820152608401610936565b33612c2b8187876127d7886132a3565b60008481526065602090815260408083206001600160a01b038a16845290915290205483811015612cc45760405162461bcd60e51b815260206004820152602a60248201527f455243313135353a20696e73756666696369656e742062616c616e636520666f60448201527f72207472616e73666572000000000000000000000000000000000000000000006064820152608401610936565b60008581526065602090815260408083206001600160a01b038b8116855292528083208785039055908816825281208054869290612d039084906142c1565b909155505060408051868152602081018690526001600160a01b03808916928a821692918616917fc3d58168c5ae7397731d063d5bbf3d657854427343f4c083240f7aacaa2d0f62910160405180910390a4612d63828888888888613655565b50505050505050565b60006001600160e01b031982167f4e2312e0000000000000000000000000000000000000000000000000000000001480610972575061097282613766565b60606000612db98360026142d9565b612dc49060026142c1565b67ffffffffffffffff811115612ddc57612ddc61394c565b6040519080825280601f01601f191660200182016040528015612e06576020820181803683370190505b5090507f300000000000000000000000000000000000000000000000000000000000000081600081518110612e3d57612e3d61417a565b60200101907effffffffffffffffffffffffffffffffffffffffffffffffffffffffffffff1916908160001a9053507f780000000000000000000000000000000000000000000000000000000000000081600181518110612ea057612ea061417a565b60200101907effffffffffffffffffffffffffffffffffffffffffffffffffffffffffffff1916908160001a9053506000612edc8460026142d9565b612ee79060016142c1565b90505b6001811115612f84577f303132333435363738396162636465660000000000000000000000000000000085600f1660108110612f2857612f2861417a565b1a60f81b828281518110612f3e57612f3e61417a565b60200101907effffffffffffffffffffffffffffffffffffffffffffffffffffffffffffff1916908160001a90535060049490941c93612f7d816142f8565b9050612eea565b508315612fd35760405162461bcd60e51b815260206004820181905260248201527f537472696e67733a20686578206c656e67746820696e73756666696369656e746044820152606401610936565b9392505050565b6001600160a01b0385166130625760005b8351811015613060578281815181106130065761300661417a565b602002602001015161019d60008684815181106130255761302561417a565b60200260200101518152602001908152602001600020600082825461304a91906142c1565b909155506130599050816141a6565b9050612feb565b505b6001600160a01b0384166112385760005b8351811015612d635782818151811061308e5761308e61417a565b602002602001015161019d60008684815181106130ad576130ad61417a565b6020026020010151815260200190815260200160002060008282546130d2919061430f565b909155506130e19050816141a6565b9050613073565b6001600160a01b0384163b156112385760405163bc197c8160e01b81526001600160a01b0385169063bc197c819061312c9089908990889088908890600401614326565b6020604051808303816000875af1925050508015613167575060408051601f3d908101601f1916820190925261316491810190614384565b60015b61321d576131736143a1565b806308c379a014156131ad57506131886143bd565b8061319357506131af565b8060405162461bcd60e51b81526004016109369190613c53565b505b60405162461bcd60e51b815260206004820152603460248201527f455243313135353a207472616e7366657220746f206e6f6e204552433131353560448201527f526563656976657220696d706c656d656e7465720000000000000000000000006064820152608401610936565b6001600160e01b0319811663bc197c8160e01b14612d635760405162461bcd60e51b815260206004820152602860248201527f455243313135353a204552433131353552656365697665722072656a6563746560448201527f6420746f6b656e730000000000000000000000000000000000000000000000006064820152608401610936565b604080516001808252818301909252606091600091906020808301908036833701905050905082816000815181106132dd576132dd61417a565b602090810291909101015292915050565b803b6133625760405162461bcd60e51b815260206004820152602d60248201527f455243313936373a206e657720696d706c656d656e746174696f6e206973206e60448201527f6f74206120636f6e7472616374000000000000000000000000000000000000006064820152608401610936565b7f360894a13ba1a3210667c828492db98dca3e2076cc3735a920a3ca505d382bbc80547fffffffffffffffffffffffff0000000000000000000000000000000000000000166001600160a01b0392909216919091179055565b6060823b6134315760405162461bcd60e51b815260206004820152602660248201527f416464726573733a2064656c65676174652063616c6c20746f206e6f6e2d636f60448201527f6e747261637400000000000000000000000000000000000000000000000000006064820152608401610936565b600080846001600160a01b03168460405161344c91906141fc565b600060405180830381855af49150503d8060008114613487576040519150601f19603f3d011682016040523d82523d6000602084013e61348c565b606091505b50915091506134b4828260405180606001604052806027815260200161448b60279139613801565b95945050505050565b6134c6816132ee565b6040516001600160a01b038216907fbc7cd75a20ee27fd9adebab32041f755214dbc6bffa90cc0225b39da2e5c2d3b90600090a250565b600054610100900460ff1680613516575060005460ff16155b6135795760405162461bcd60e51b815260206004820152602e60248201527f496e697469616c697a61626c653a20636f6e747261637420697320616c72656160448201526d191e481a5b9a5d1a585b1a5e995960921b6064820152608401610936565b600054610100900460ff161580156126a3576000805461ffff19166101011790558015611087576000805461ff001916905550565b600054610100900460ff16806135c7575060005460ff16155b61362a5760405162461bcd60e51b815260206004820152602e60248201527f496e697469616c697a61626c653a20636f6e747261637420697320616c72656160448201526d191e481a5b9a5d1a585b1a5e995960921b6064820152608401610936565b600054610100900460ff1615801561364c576000805461ffff19166101011790555b6125d882611b6d565b6001600160a01b0384163b156112385760405163f23a6e6160e01b81526001600160a01b0385169063f23a6e61906136999089908990889088908890600401614447565b6020604051808303816000875af19250505080156136d4575060408051601f3d908101601f191682019092526136d191810190614384565b60015b6136e0576131736143a1565b6001600160e01b0319811663f23a6e6160e01b14612d635760405162461bcd60e51b815260206004820152602860248201527f455243313135353a204552433131353552656365697665722072656a6563746560448201527f6420746f6b656e730000000000000000000000000000000000000000000000006064820152608401610936565b60006001600160e01b031982167fd9b67a260000000000000000000000000000000000000000000000000000000014806137c957506001600160e01b031982167f0e89341c00000000000000000000000000000000000000000000000000000000145b8061097257507f01ffc9a7000000000000000000000000000000000000000000000000000000006001600160e01b0319831614610972565b60608315613810575081612fd3565b8251156138205782518084602001fd5b8160405162461bcd60e51b81526004016109369190613c53565b828054613846906141c1565b90600052602060002090601f01602090048101928261386857600085556138ae565b82601f1061388157805160ff19168380011785556138ae565b828001600101855582156138ae579182015b828111156138ae578251825591602001919060010190613893565b506138ba9291506138be565b5090565b5b808211156138ba57600081556001016138bf565b80356001600160a01b03811681146138ea57600080fd5b919050565b6000806040838503121561390257600080fd5b61390b836138d3565b946020939093013593505050565b6001600160e01b03198116811461108757600080fd5b60006020828403121561394157600080fd5b8135612fd381613919565b634e487b7160e01b600052604160045260246000fd5b601f8201601f1916810167ffffffffffffffff811182821017156139885761398861394c565b6040525050565b600082601f8301126139a057600080fd5b813567ffffffffffffffff8111156139ba576139ba61394c565b6040516139d1601f8301601f191660200182613962565b8181528460208386010111156139e657600080fd5b816020850160208301376000918101602001919091529392505050565b600060208284031215613a1557600080fd5b813567ffffffffffffffff811115613a2c57600080fd5b613a388482850161398f565b949350505050565b600067ffffffffffffffff821115613a5a57613a5a61394c565b5060051b60200190565b600082601f830112613a7557600080fd5b81356020613a8282613a40565b604051613a8f8282613962565b83815260059390931b8501820192828101915086841115613aaf57600080fd5b8286015b84811015613aca5780358352918301918301613ab3565b509695505050505050565b60008060008060808587031215613aeb57600080fd5b843567ffffffffffffffff80821115613b0357600080fd5b613b0f88838901613a64565b95506020870135915080821115613b2557600080fd5b613b3188838901613a64565b94506040870135915080821115613b4757600080fd5b613b538883890161398f565b93506060870135915080821115613b6957600080fd5b50613b7687828801613a64565b91505092959194509250565b600081518084526020808501945080840160005b83811015613bb257815187529582019590820190600101613b96565b509495945050505050565b604081526000613bd06040830185613b82565b82810360208401526134b48185613b82565b600060208284031215613bf457600080fd5b5035919050565b60005b83811015613c16578181015183820152602001613bfe565b83811115610d915750506000910152565b60008151808452613c3f816020860160208601613bfb565b601f01601f19169290920160200192915050565b602081526000612fd36020830184613c27565b600080600060608486031215613c7b57600080fd5b613c84846138d3565b95602085013595506040909401359392505050565b600080600080600060a08688031215613cb157600080fd5b613cba866138d3565b9450613cc8602087016138d3565b9350604086013567ffffffffffffffff80821115613ce557600080fd5b613cf189838a01613a64565b94506060880135915080821115613d0757600080fd5b613d1389838a01613a64565b93506080880135915080821115613d2957600080fd5b50613d368882890161398f565b9150509295509295909350565b60008060408385031215613d5657600080fd5b82359150613d66602084016138d3565b90509250929050565b600060208284031215613d8157600080fd5b612fd3826138d3565b600080600080600060a08688031215613da257600080fd5b613dab866138d3565b9450613db9602087016138d3565b9350604086013567ffffffffffffffff80821115613dd657600080fd5b613de289838a0161398f565b94506060880135915080821115613df857600080fd5b613d1389838a0161398f565b60008060408385031215613e1757600080fd5b823567ffffffffffffffff80821115613e2f57600080fd5b818501915085601f830112613e4357600080fd5b81356020613e5082613a40565b604051613e5d8282613962565b83815260059390931b8501820192828101915089841115613e7d57600080fd5b948201945b83861015613ea257613e93866138d3565b82529482019490820190613e82565b96505086013592505080821115613eb857600080fd5b50613ec585828601613a64565b9150509250929050565b602081526000612fd36020830184613b82565b60008060408385031215613ef557600080fd5b613efe836138d3565b9150602083013567ffffffffffffffff811115613f1a57600080fd5b613ec58582860161398f565b60008060408385031215613f3957600080fd5b823567ffffffffffffffff811115613f5057600080fd5b613f5c8582860161398f565b925050613d66602084016138d3565b600080600060608486031215613f8057600080fd5b83359250602084013567ffffffffffffffff811115613f9e57600080fd5b613faa8682870161398f565b925050604084013590509250925092565b60008060008060808587031215613fd157600080fd5b613fda856138d3565b93506020850135925060408501359150606085013567ffffffffffffffff81111561400457600080fd5b613b768782880161398f565b6000806040838503121561402357600080fd5b61402c836138d3565b91506020830135801515811461404157600080fd5b809150509250929050565b60008060006060848603121561406157600080fd5b61406a846138d3565b9250602084013567ffffffffffffffff8082111561408757600080fd5b61409387838801613a64565b935060408601359150808211156140a957600080fd5b506140b686828701613a64565b9150509250925092565b600080604083850312156140d357600080fd5b6140dc836138d3565b9150613d66602084016138d3565b600080600080600060a0868803121561410257600080fd5b61410b866138d3565b9450614119602087016138d3565b93506040860135925060608601359150608086013567ffffffffffffffff81111561414357600080fd5b613d368882890161398f565b6040815260006141626040830185613c27565b90506001600160a01b03831660208301529392505050565b634e487b7160e01b600052603260045260246000fd5b634e487b7160e01b600052601160045260246000fd5b60006000198214156141ba576141ba614190565b5060010190565b600181811c908216806141d557607f821691505b602082108114156141f657634e487b7160e01b600052602260045260246000fd5b50919050565b6000825161420e818460208701613bfb565b9190910192915050565b8381526001600160a01b03831660208201526060604082015260006134b46060830184613c27565b7f416363657373436f6e74726f6c3a206163636f756e7420000000000000000000815260008351614278816017850160208801613bfb565b7f206973206d697373696e6720726f6c652000000000000000000000000000000060179184019182015283516142b5816028840160208801613bfb565b01602801949350505050565b600082198211156142d4576142d4614190565b500190565b60008160001904831182151516156142f3576142f3614190565b500290565b60008161430757614307614190565b506000190190565b60008282101561432157614321614190565b500390565b60006001600160a01b03808816835280871660208401525060a0604083015261435260a0830186613b82565b82810360608401526143648186613b82565b905082810360808401526143788185613c27565b98975050505050505050565b60006020828403121561439657600080fd5b8151612fd381613919565b600060033d11156143ba5760046000803e5060005160e01c5b90565b600060443d10156143cb5790565b6040516003193d81016004833e81513d67ffffffffffffffff81602484011181841117156143fb57505050505090565b82850191508151818111156144135750505050505090565b843d870101602082850101111561442d5750505050505090565b61443c60208286010187613962565b509095945050505050565b60006001600160a01b03808816835280871660208401525084604083015283606083015260a0608083015261447f60a0830184613c27565b97965050505050505056fe416464726573733a206c6f772d6c6576656c2064656c65676174652063616c6c206661696c6564a2646970667358221220802a18b2615d498e6a3bde157bbb8b77d67f8da29a922f806b444c9d0072a8ae64736f6c634300080a003360806040526040516107be3803806107be83398101604081905261002291610337565b61004d60017f360894a13ba1a3210667c828492db98dca3e2076cc3735a920a3ca505d382bbd610405565b600080516020610777833981519152146100695761006961042a565b6100758282600061007c565b505061048f565b610085836100b2565b6000825111806100925750805b156100ad576100ab83836100f260201b6100291760201c565b505b505050565b6100bb8161011e565b6040516001600160a01b038216907fbc7cd75a20ee27fd9adebab32041f755214dbc6bffa90cc0225b39da2e5c2d3b90600090a250565b60606101178383604051806060016040528060278152602001610797602791396101de565b9392505050565b610131816102b360201b6100551760201c565b6101985760405162461bcd60e51b815260206004820152602d60248201527f455243313936373a206e657720696d706c656d656e746174696f6e206973206e60448201526c1bdd08184818dbdb9d1c9858dd609a1b60648201526084015b60405180910390fd5b806101bd60008051602061077783398151915260001b6102b960201b61005b1760201c565b80546001600160a01b0319166001600160a01b039290921691909117905550565b6060833b61023d5760405162461bcd60e51b815260206004820152602660248201527f416464726573733a2064656c65676174652063616c6c20746f206e6f6e2d636f6044820152651b9d1c9858dd60d21b606482015260840161018f565b600080856001600160a01b0316856040516102589190610440565b600060405180830381855af49150503d8060008114610293576040519150601f19603f3d011682016040523d82523d6000602084013e610298565b606091505b5090925090506102a98282866102bc565b9695505050505050565b3b151590565b90565b606083156102cb575081610117565b8251156102db5782518084602001fd5b8160405162461bcd60e51b815260040161018f919061045c565b634e487b7160e01b600052604160045260246000fd5b60005b8381101561032657818101518382015260200161030e565b838111156100ab5750506000910152565b6000806040838503121561034a57600080fd5b82516001600160a01b038116811461036157600080fd5b60208401519092506001600160401b038082111561037e57600080fd5b818501915085601f83011261039257600080fd5b8151818111156103a4576103a46102f5565b604051601f8201601f19908116603f011681019083821181831017156103cc576103cc6102f5565b816040528281528860208487010111156103e557600080fd5b6103f683602083016020880161030b565b80955050505050509250929050565b60008282101561042557634e487b7160e01b600052601160045260246000fd5b500390565b634e487b7160e01b600052600160045260246000fd5b6000825161045281846020870161030b565b9190910192915050565b602081526000825180602084015261047b81604085016020870161030b565b601f01601f19169190910160400192915050565b6102d98061049e6000396000f3fe60806040523661001357610011610017565b005b6100115b61002761002261005e565b6100a3565b565b606061004e838360405180606001604052806027815260200161027d602791396100c7565b9392505050565b3b151590565b90565b600061009e7f360894a13ba1a3210667c828492db98dca3e2076cc3735a920a3ca505d382bbc5473ffffffffffffffffffffffffffffffffffffffff1690565b905090565b3660008037600080366000845af43d6000803e8080156100c2573d6000f35b3d6000fd5b6060833b6101425760405162461bcd60e51b815260206004820152602660248201527f416464726573733a2064656c65676174652063616c6c20746f206e6f6e2d636f60448201527f6e7472616374000000000000000000000000000000000000000000000000000060648201526084015b60405180910390fd5b6000808573ffffffffffffffffffffffffffffffffffffffff168560405161016a919061022d565b600060405180830381855af49150503d80600081146101a5576040519150601f19603f3d011682016040523d82523d6000602084013e6101aa565b606091505b50915091506101ba8282866101c4565b9695505050505050565b606083156101d357508161004e565b8251156101e35782518084602001fd5b8160405162461bcd60e51b81526004016101399190610249565b60005b83811015610218578181015183820152602001610200565b83811115610227576000848401525b50505050565b6000825161023f8184602087016101fd565b9190910192915050565b60208152600082518060208401526102688160408501602087016101fd565b601f01601f1916919091016040019291505056fe416464726573733a206c6f772d6c6576656c2064656c65676174652063616c6c206661696c6564a2646970667358221220ada95b0f645ebc594499cd90add0126adb02ed62d11b0dcb43ff517dc672cef164736f6c634300080a0033360894a13ba1a3210667c828492db98dca3e2076cc3735a920a3ca505d382bbc416464726573733a206c6f772d6c6576656c2064656c65676174652063616c6c206661696c6564416464726573733a206c6f772d6c6576656c2064656c65676174652063616c6c206661696c6564a264697066735822122013e16ac8ed9d80fda6d7edfcd5778d388a91814bd4d4b11158615e5ea98fda0f64736f6c634300080a0033",
  "immutableReferences": {
    "1023": [
      {
        "length": 32,
        "start": 802
      },
      {
        "length": 32,
        "start": 954
      }
    ]
  },
  "source": "// SPDX-License-Identifier: MIT\npragma solidity ^0.8.10;\nimport \"./QuestProperties.sol\";\nimport '@openzeppelin/contracts-upgradeable/proxy/utils/Initializable.sol';\nimport '@openzeppelin/contracts-upgradeable/access/OwnableUpgradeable.sol';\nimport '@openzeppelin/contracts-upgradeable/proxy/utils/UUPSUpgradeable.sol';\nimport '@openzeppelin/contracts-upgradeable/security/PausableUpgradeable.sol';\nimport '@openzeppelin/contracts-upgradeable/utils/CountersUpgradeable.sol';\nimport '@openzeppelin/contracts-upgradeable/utils/AddressUpgradeable.sol';\nimport '@openzeppelin/contracts/proxy/ERC1967/ERC1967Proxy.sol'; //make sure if init is needed\n\n\ncontract QuestFactory is Initializable, OwnableUpgradeable, PausableUpgradeable, UUPSUpgradeable {\n\n\n  address logicAddress;\n\n  event TokenDeployed(address tokenAddress);\n\n  function initialize() public virtual initializer whenNotPaused {\n    __UUPSUpgradeable_init();\n    __Pausable_init();\n    __Ownable_init(); //HOA = msg.sender\n\n    logicAddress = address(new QuestProperties());\n  }\n\n  function listProperty(address treasury, address upgrader, string calldata uri) public virtual whenNotPaused returns(address) {\n    ERC1967Proxy proxy= new ERC1967Proxy(\n      logicAddress,\n      abi.encodeWithSelector(QuestProperties(address(0)).initialize.selector, treasury, upgrader, uri)\n    );\n\n    emit TokenDeployed(address( proxy));\n\n    return address(proxy);\n  }\n\n  function pause() external onlyOwner {\n    _pause();\n  }\n\n  function unpause() external onlyOwner {\n        _unpause();\n  }\n\n  function upgradeTo(address newFactory) external virtual override {\n    _authorizeUpgrade(newFactory);\n    _upgradeToAndCallSecure(newFactory, new bytes(0), false);\n    require (AddressUpgradeable.isContract(newFactory), 'Quest: new Implementation must be a contract');\n  }\n  \n\n  function _authorizeUpgrade(address newFactory) internal virtual  override onlyOwner {}\n\n}",
  "sourcePath": "/home/arhan/Documents/QuestCrypto/upgrade2/QuestProperties/contracts/QuestFactory.sol",
  "compiler": {
    "name": "solc",
    "version": "0.8.10+commit.fc410830.Emscripten.clang"
  },
  "schemaVersion": "3.4.4",
  "updatedAt": "2021-12-27T14:52:39.420Z",
  "devdoc": {
    "kind": "dev",
    "methods": {
      "owner()": {
        "details": "Returns the address of the current owner."
      },
      "paused()": {
        "details": "Returns true if the contract is paused, and false otherwise."
      },
      "renounceOwnership()": {
        "details": "Leaves the contract without owner. It will not be possible to call `onlyOwner` functions anymore. Can only be called by the current owner. NOTE: Renouncing ownership will leave the contract without an owner, thereby removing any functionality that is only available to the owner."
      },
      "transferOwnership(address)": {
        "details": "Transfers ownership of the contract to a new account (`newOwner`). Can only be called by the current owner."
      },
      "upgradeToAndCall(address,bytes)": {
        "details": "Upgrade the implementation of the proxy to `newImplementation`, and subsequently execute the function call encoded in `data`. Calls {_authorizeUpgrade}. Emits an {Upgraded} event."
      }
    },
    "version": 1
  },
  "userdoc": {
    "kind": "user",
    "methods": {},
    "version": 1
  }
}