{
  "contractName": "QuestFactory",
  "abi": [
    {
      "anonymous": false,
      "inputs": [
        {
          "indexed": false,
          "internalType": "address",
          "name": "previousAdmin",
          "type": "address"
        },
        {
          "indexed": false,
          "internalType": "address",
          "name": "newAdmin",
          "type": "address"
        }
      ],
      "name": "AdminChanged",
      "type": "event"
    },
    {
      "anonymous": false,
      "inputs": [
        {
          "indexed": true,
          "internalType": "address",
          "name": "beacon",
          "type": "address"
        }
      ],
      "name": "BeaconUpgraded",
      "type": "event"
    },
    {
      "anonymous": false,
      "inputs": [
        {
          "indexed": true,
          "internalType": "address",
          "name": "previousOwner",
          "type": "address"
        },
        {
          "indexed": true,
          "internalType": "address",
          "name": "newOwner",
          "type": "address"
        }
      ],
      "name": "OwnershipTransferred",
      "type": "event"
    },
    {
      "anonymous": false,
      "inputs": [
        {
          "indexed": false,
          "internalType": "address",
          "name": "account",
          "type": "address"
        }
      ],
      "name": "Paused",
      "type": "event"
    },
    {
      "anonymous": false,
      "inputs": [
        {
          "indexed": false,
          "internalType": "address",
          "name": "account",
          "type": "address"
        }
      ],
      "name": "Unpaused",
      "type": "event"
    },
    {
      "anonymous": false,
      "inputs": [
        {
          "indexed": true,
          "internalType": "address",
          "name": "implementation",
          "type": "address"
        }
      ],
      "name": "Upgraded",
      "type": "event"
    },
    {
      "anonymous": false,
      "inputs": [
        {
          "indexed": true,
          "internalType": "address",
          "name": "propContractAddr",
          "type": "address"
        }
      ],
      "name": "contractDeployed",
      "type": "event"
    },
    {
      "inputs": [],
      "name": "owner",
      "outputs": [
        {
          "internalType": "address",
          "name": "",
          "type": "address"
        }
      ],
      "stateMutability": "view",
      "type": "function"
    },
    {
      "inputs": [],
      "name": "paused",
      "outputs": [
        {
          "internalType": "bool",
          "name": "",
          "type": "bool"
        }
      ],
      "stateMutability": "view",
      "type": "function"
    },
    {
      "inputs": [
        {
          "internalType": "uint256",
          "name": "",
          "type": "uint256"
        }
      ],
      "name": "proxies",
      "outputs": [
        {
          "internalType": "address",
          "name": "",
          "type": "address"
        }
      ],
      "stateMutability": "view",
      "type": "function"
    },
    {
      "inputs": [],
      "name": "renounceOwnership",
      "outputs": [],
      "stateMutability": "nonpayable",
      "type": "function"
    },
    {
      "inputs": [
        {
          "internalType": "address",
          "name": "newOwner",
          "type": "address"
        }
      ],
      "name": "transferOwnership",
      "outputs": [],
      "stateMutability": "nonpayable",
      "type": "function"
    },
    {
      "inputs": [
        {
          "internalType": "address",
          "name": "newImplementation",
          "type": "address"
        }
      ],
      "name": "upgradeTo",
      "outputs": [],
      "stateMutability": "nonpayable",
      "type": "function"
    },
    {
      "inputs": [
        {
          "internalType": "address",
          "name": "newImplementation",
          "type": "address"
        },
        {
          "internalType": "bytes",
          "name": "data",
          "type": "bytes"
        }
      ],
      "name": "upgradeToAndCall",
      "outputs": [],
      "stateMutability": "payable",
      "type": "function"
    },
    {
      "inputs": [],
      "name": "initialize",
      "outputs": [],
      "stateMutability": "nonpayable",
      "type": "function"
    },
    {
      "inputs": [
        {
          "internalType": "address",
          "name": "treasury",
          "type": "address"
        },
        {
          "internalType": "address",
          "name": "upgrader",
          "type": "address"
        },
        {
          "internalType": "address",
          "name": "admin",
          "type": "address"
        },
        {
          "internalType": "string",
          "name": "uri",
          "type": "string"
        },
        {
          "internalType": "string",
          "name": "_contractName",
          "type": "string"
        },
        {
          "internalType": "string",
          "name": "_description",
          "type": "string"
        }
      ],
      "name": "deployPropertyContract",
      "outputs": [
        {
          "internalType": "address",
          "name": "",
          "type": "address"
        }
      ],
      "stateMutability": "nonpayable",
      "type": "function"
    },
    {
      "inputs": [],
      "name": "getProxyLength",
      "outputs": [
        {
          "internalType": "uint256",
          "name": "",
          "type": "uint256"
        }
      ],
      "stateMutability": "view",
      "type": "function"
    },
    {
      "inputs": [],
      "name": "pause",
      "outputs": [],
      "stateMutability": "nonpayable",
      "type": "function"
    },
    {
      "inputs": [],
      "name": "unpause",
      "outputs": [],
      "stateMutability": "nonpayable",
      "type": "function"
    }
  ],
  "bytecode": "0x60a06040523060805234801561001457600080fd5b506080516159946100456000396000818161024f0152818161029b0152818161036601526103a901526159946000f3fe608060405260043610620000b55760003560e01c80638129fc1c116200006c5780638129fc1c14620001715780638456cb5914620001895780638da5cb5b14620001a1578063abd90f8514620001d5578063c4f6fb7d14620001fa578063f2fde38b146200021f57600080fd5b80633659cfe614620000ba5780633f4ba83a14620000e157806341d4a9db14620000f95780634f1ef286146200011d5780635c975abb1462000134578063715018a61462000159575b600080fd5b348015620000c757600080fd5b50620000df620000d936600462001022565b62000244565b005b348015620000ee57600080fd5b50620000df62000322565b3480156200010657600080fd5b5060fc546040519081526020015b60405180910390f35b620000df6200012e366004620010d3565b6200035b565b3480156200014157600080fd5b5060655460ff16604051901515815260200162000114565b3480156200016657600080fd5b50620000df62000421565b3480156200017e57600080fd5b50620000df6200045a565b3480156200019657600080fd5b50620000df6200055b565b348015620001ae57600080fd5b506033546001600160a01b03165b6040516001600160a01b03909116815260200162000114565b348015620001e257600080fd5b50620001bc620001f43660046200113c565b62000592565b3480156200020757600080fd5b50620001bc6200021936600462001179565b620005bd565b3480156200022c57600080fd5b50620000df6200023e36600462001022565b62000719565b306001600160a01b037f0000000000000000000000000000000000000000000000000000000000000000161415620002995760405162461bcd60e51b8152600401620002909062001242565b60405180910390fd5b7f00000000000000000000000000000000000000000000000000000000000000006001600160a01b0316620002cd620007b8565b6001600160a01b031614620002f65760405162461bcd60e51b815260040162000290906200128e565b6200030181620007e6565b604080516000808252602082019092526200031f9183919062000871565b50565b6033546001600160a01b031633146200034f5760405162461bcd60e51b81526004016200029090620012da565b62000359620009cd565b565b306001600160a01b037f0000000000000000000000000000000000000000000000000000000000000000161415620003a75760405162461bcd60e51b8152600401620002909062001242565b7f00000000000000000000000000000000000000000000000000000000000000006001600160a01b0316620003db620007b8565b6001600160a01b031614620004045760405162461bcd60e51b815260040162000290906200128e565b6200040f82620007e6565b6200041d8282600162000871565b5050565b6033546001600160a01b031633146200044e5760405162461bcd60e51b81526004016200029090620012da565b62000359600062000a62565b600054610100900460ff168062000474575060005460ff16155b620004935760405162461bcd60e51b815260040162000290906200130f565b600054610100900460ff16158015620004b6576000805461ffff19166101011790555b60655460ff1615620004dc5760405162461bcd60e51b815260040162000290906200135d565b620004e662000ab4565b620004f062000b39565b620004fa62000ba9565b604051620005089062000fe9565b604051809103906000f08015801562000525573d6000803e3d6000fd5b5060fb80546001600160a01b0319166001600160a01b039290921691909117905580156200031f576000805461ff001916905550565b6033546001600160a01b03163314620005885760405162461bcd60e51b81526004016200029090620012da565b6200035962000c19565b60fc8181548110620005a357600080fd5b6000918252602090912001546001600160a01b0316905081565b6000620005cc60655460ff1690565b15620005ec5760405162461bcd60e51b815260040162000290906200135d565b60fb546040516000916001600160a01b03169063019a51d760e71b9062000622908b908b908b908b908b908b90602401620013e8565b60408051601f198184030181529181526020820180516001600160e01b03166001600160e01b0319909416939093179092529051620006619062000ff7565b6200066e92919062001455565b604051809103906000f0801580156200068b573d6000803e3d6000fd5b506040519091506001600160a01b038216907fee7093296389b8f6f6999cb461eee1c07db08ab6780299009000b4e3a45a20f690600090a260fc80546001810182556000919091527f371f36870d18f32a11fea0f144b021c8b407bb50f8e0267c711123f454b963c00180546001600160a01b0319166001600160a01b038316179055979650505050505050565b6033546001600160a01b03163314620007465760405162461bcd60e51b81526004016200029090620012da565b6001600160a01b038116620007ad5760405162461bcd60e51b815260206004820152602660248201527f4f776e61626c653a206e6577206f776e657220697320746865207a65726f206160448201526564647265737360d01b606482015260840162000290565b6200031f8162000a62565b7f360894a13ba1a3210667c828492db98dca3e2076cc3735a920a3ca505d382bbc546001600160a01b031690565b6033546001600160a01b03163314620008135760405162461bcd60e51b81526004016200029090620012da565b803b6200031f5760405162461bcd60e51b815260206004820152602560248201527f51756573743a206e657720666163746f7279206d757374206265206120636f6e6044820152641d1c9858dd60da1b606482015260840162000290565b60006200087d620007b8565b90506200088a8462000c75565b600083511180620008985750815b15620008ac57620008aa848462000d1c565b505b7f4910fdfa16fed3260ed0e7147f7cc6da11a60208b5b9406d12a635614ffd9143805460ff16620009c657805460ff191660011781556040516001600160a01b03831660248201526200092e90869060440160408051601f198184030181529190526020810180516001600160e01b0316631b2ce7f360e11b17905262000d1c565b50805460ff1916815562000941620007b8565b6001600160a01b0316826001600160a01b031614620009bb5760405162461bcd60e51b815260206004820152602f60248201527f45524331393637557067726164653a207570677261646520627265616b73206660448201526e75727468657220757067726164657360881b606482015260840162000290565b620009c68562000e10565b5050505050565b60655460ff1662000a185760405162461bcd60e51b815260206004820152601460248201527314185d5cd8589b194e881b9bdd081c185d5cd95960621b604482015260640162000290565b6065805460ff191690557f5db9ee0a495bf2e6ff9c91a7834c1ba4fdd244a5e8aa4e537bd38aeae4b073aa335b6040516001600160a01b03909116815260200160405180910390a1565b603380546001600160a01b038381166001600160a01b0319831681179093556040519116919082907f8be0079c531659141344cd1fd0a4f28419497f9722a3daafe3b4186f6b6457e090600090a35050565b600054610100900460ff168062000ace575060005460ff16155b62000aed5760405162461bcd60e51b815260040162000290906200130f565b600054610100900460ff1615801562000b10576000805461ffff19166101011790555b62000b1a62000e52565b62000b2462000e52565b80156200031f576000805461ff001916905550565b600054610100900460ff168062000b53575060005460ff16155b62000b725760405162461bcd60e51b815260040162000290906200130f565b600054610100900460ff1615801562000b95576000805461ffff19166101011790555b62000b9f62000e52565b62000b2462000ec2565b600054610100900460ff168062000bc3575060005460ff16155b62000be25760405162461bcd60e51b815260040162000290906200130f565b600054610100900460ff1615801562000c05576000805461ffff19166101011790555b62000c0f62000e52565b62000b2462000f3d565b60655460ff161562000c3f5760405162461bcd60e51b815260040162000290906200135d565b6065805460ff191660011790557f62e78cea01bee320cd4e420270b5ea74000d11b0c9f74754ebdbfc544b05a25862000a453390565b803b62000cdb5760405162461bcd60e51b815260206004820152602d60248201527f455243313936373a206e657720696d706c656d656e746174696f6e206973206e60448201526c1bdd08184818dbdb9d1c9858dd609a1b606482015260840162000290565b7f360894a13ba1a3210667c828492db98dca3e2076cc3735a920a3ca505d382bbc80546001600160a01b0319166001600160a01b0392909216919091179055565b6060823b62000d7d5760405162461bcd60e51b815260206004820152602660248201527f416464726573733a2064656c65676174652063616c6c20746f206e6f6e2d636f6044820152651b9d1c9858dd60d21b606482015260840162000290565b600080846001600160a01b03168460405162000d9a919062001483565b600060405180830381855af49150503d806000811462000dd7576040519150601f19603f3d011682016040523d82523d6000602084013e62000ddc565b606091505b509150915062000e078282604051806060016040528060278152602001620059386027913962000fa4565b95945050505050565b62000e1b8162000c75565b6040516001600160a01b038216907fbc7cd75a20ee27fd9adebab32041f755214dbc6bffa90cc0225b39da2e5c2d3b90600090a250565b600054610100900460ff168062000e6c575060005460ff16155b62000e8b5760405162461bcd60e51b815260040162000290906200130f565b600054610100900460ff1615801562000b24576000805461ffff191661010117905580156200031f576000805461ff001916905550565b600054610100900460ff168062000edc575060005460ff16155b62000efb5760405162461bcd60e51b815260040162000290906200130f565b600054610100900460ff1615801562000f1e576000805461ffff19166101011790555b6065805460ff1916905580156200031f576000805461ff001916905550565b600054610100900460ff168062000f57575060005460ff16155b62000f765760405162461bcd60e51b815260040162000290906200130f565b600054610100900460ff1615801562000f99576000805461ffff19166101011790555b62000b243362000a62565b6060831562000fb557508162000fe2565b82511562000fc65782518084602001fd5b8160405162461bcd60e51b8152600401620002909190620014a1565b9392505050565b613cf480620014b783390190565b61078d80620051ab83390190565b80356001600160a01b03811681146200101d57600080fd5b919050565b6000602082840312156200103557600080fd5b62000fe28262001005565b634e487b7160e01b600052604160045260246000fd5b600067ffffffffffffffff8084111562001074576200107462001040565b604051601f8501601f19908116603f011681019082821181831017156200109f576200109f62001040565b81604052809350858152868686011115620010b957600080fd5b858560208301376000602087830101525050509392505050565b60008060408385031215620010e757600080fd5b620010f28362001005565b9150602083013567ffffffffffffffff8111156200110f57600080fd5b8301601f810185136200112157600080fd5b620011328582356020840162001056565b9150509250929050565b6000602082840312156200114f57600080fd5b5035919050565b600082601f8301126200116857600080fd5b62000fe28383356020850162001056565b60008060008060008060c087890312156200119357600080fd5b6200119e8762001005565b9550620011ae6020880162001005565b9450620011be6040880162001005565b9350606087013567ffffffffffffffff80821115620011dc57600080fd5b620011ea8a838b0162001156565b945060808901359150808211156200120157600080fd5b6200120f8a838b0162001156565b935060a08901359150808211156200122657600080fd5b506200123589828a0162001156565b9150509295509295509295565b6020808252602c908201527f46756e6374696f6e206d7573742062652063616c6c6564207468726f7567682060408201526b19195b1959d85d1958d85b1b60a21b606082015260800190565b6020808252602c908201527f46756e6374696f6e206d7573742062652063616c6c6564207468726f7567682060408201526b6163746976652070726f787960a01b606082015260800190565b6020808252818101527f4f776e61626c653a2063616c6c6572206973206e6f7420746865206f776e6572604082015260600190565b6020808252602e908201527f496e697469616c697a61626c653a20636f6e747261637420697320616c72656160408201526d191e481a5b9a5d1a585b1a5e995960921b606082015260800190565b60208082526010908201526f14185d5cd8589b194e881c185d5cd95960821b604082015260600190565b60005b83811015620013a45781810151838201526020016200138a565b83811115620013b4576000848401525b50505050565b60008151808452620013d481602086016020860162001387565b601f01601f19169290920160200192915050565b6001600160a01b03878116825286811660208301528516604082015260c0606082018190526000906200141e90830186620013ba565b8281036080840152620014328186620013ba565b905082810360a0840152620014488185620013ba565b9998505050505050505050565b6001600160a01b03831681526040602082018190526000906200147b90830184620013ba565b949350505050565b600082516200149781846020870162001387565b9190910192915050565b60208152600062000fe26020830184620013ba56fe60a06040523060805234801561001457600080fd5b50608051613caf61004560003960008181610d5d01528181610d9d01528181610f4f0152610f8f0152613caf6000f3fe60806040526004361061025b5760003560e01c806372f0cbef11610144578063bd85b039116100b6578063e985e9c51161007a578063e985e9c5146106f6578063ee7a3b8e1461073f578063f23a6e6114610756578063f242432a14610782578063f72c0d8b146107a2578063f7b10808146107d657600080fd5b8063bd85b03914610646578063cd28eb8014610674578063d11a57ec14610694578063d4f8115d146106b6578063d547741f146106d657600080fd5b806391d148541161010857806391d148541461058e57806396f6b2fa146105ae578063a217fddf14610564578063a22cb465146105c1578063ad64d068146105e1578063bc197c811461060157600080fd5b806372f0cbef1461051257806375d0c0dc14610527578063782a69831461053c5780637ef83804146105645780638052f5d31461057957600080fd5b80632f2ff15d116101dd5780634f1ef286116101a15780634f1ef286146104705780634f558e791461048357806354fd4d50146104b357806356f81044146104c857806359af55b9146104e85780637284e416146104fd57600080fd5b80632f2ff15d146103cd57806333d9eeba146103ed57806336568abe146104035780633659cfe6146104235780634e1273f41461044357600080fd5b80630fad0d3a116102245780630fad0d3a146103335780631cc509fd14610348578063248a9ca3146103685780632d649491146103985780632eb2c2d6146103ad57600080fd5b8062fdd58e1461026057806301ffc9a71461029357806302fe5305146102c357806307869656146102e55780630e89341c14610306575b600080fd5b34801561026c57600080fd5b5061028061027b366004612d4d565b610804565b6040519081526020015b60405180910390f35b34801561029f57600080fd5b506102b36102ae366004612d8d565b61089d565b604051901515815260200161028a565b3480156102cf57600080fd5b506102e36102de366004612e5f565b6108ae565b005b6102f86102f3366004612f2f565b6108c7565b60405161028a929190613016565b34801561031257600080fd5b5061032661032136600461303b565b610ae3565b60405161028a91906130ac565b34801561033f57600080fd5b50610280600381565b34801561035457600080fd5b506102e36103633660046130bf565b610b77565b34801561037457600080fd5b5061028061038336600461303b565b600090815260fb602052604090206001015490565b3480156103a457600080fd5b50610280600481565b3480156103b957600080fd5b506102e36103c83660046130f2565b610c1b565b3480156103d957600080fd5b506102e36103e836600461319b565b610cb2565b3480156103f957600080fd5b5061019554610280565b34801561040f57600080fd5b506102e361041e36600461319b565b610cd8565b34801561042f57600080fd5b506102e361043e3660046131c7565b610d52565b34801561044f57600080fd5b5061046361045e3660046131e2565b610e1b565b60405161028a91906132ac565b6102e361047e3660046132bf565b610f44565b34801561048f57600080fd5b506102b361049e36600461303b565b600090815261019d6020526040902054151590565b3480156104bf57600080fd5b50610280610ffa565b3480156104d457600080fd5b506102e36104e3366004613302565b611019565b3480156104f457600080fd5b50610280600181565b34801561050957600080fd5b506103266110bc565b34801561051e57600080fd5b50610280600281565b34801561053357600080fd5b5061032661114b565b61054f61054a366004613346565b611159565b6040805192835260208301919091520161028a565b34801561057057600080fd5b50610280600081565b34801561058557600080fd5b50610280600581565b34801561059a57600080fd5b506102b36105a936600461319b565b611267565b6102e36105bc3660046133a4565b611292565b3480156105cd57600080fd5b506102e36105dc3660046133f8565b61135a565b3480156105ed57600080fd5b506102806105fc36600461303b565b611365565b34801561060d57600080fd5b5061062d61061c3660046130f2565b63bc197c8160e01b95945050505050565b6040516001600160e01b0319909116815260200161028a565b34801561065257600080fd5b5061028061066136600461303b565b600090815261019d602052604090205490565b34801561068057600080fd5b506102e361068f366004613434565b61137d565b3480156106a057600080fd5b50610280600080516020613c5a83398151915281565b3480156106c257600080fd5b506102e36106d13660046134ec565b6114db565b3480156106e257600080fd5b506102e36106f136600461319b565b611530565b34801561070257600080fd5b506102b361071136600461355f565b6001600160a01b03918216600090815260666020908152604080832093909416825291909152205460ff1690565b34801561074b57600080fd5b506102806101955481565b34801561076257600080fd5b5061062d610771366004613589565b63f23a6e6160e01b95945050505050565b34801561078e57600080fd5b506102e361079d366004613589565b611556565b3480156107ae57600080fd5b506102807f189ab7a9244df0848122154315af71fe140f3db0fe014031783b0946b8c9d2e381565b3480156107e257600080fd5b506107f66107f136600461303b565b6115dd565b60405161028a9291906135ed565b60006001600160a01b0383166108755760405162461bcd60e51b815260206004820152602b60248201527f455243313135353a2062616c616e636520717565727920666f7220746865207a60448201526a65726f206164647265737360a81b60648201526084015b60405180910390fd5b5060009081526065602090815260408083206001600160a01b03949094168352929052205490565b60006108a88261168b565b92915050565b60006108ba81336116b0565b6108c382611714565b5050565b606080600080516020613c5a8339815191526108e381336116b0565b835187511480156108f5575083518751145b6109575760405162461bcd60e51b815260206004820152602d60248201527f51756573743a206964732c20616d6f756e74732c202620707269636573206c6560448201526c0dccee8d040dad2e6dac2e8c6d609b1b606482015260840161086c565b86516000905b808211610a145761019c600061019554815260200190815260200160002060020160405180606001604052808b858151811061099b5761099b613617565b602002602001015181526020018885815181106109ba576109ba613617565b60209081029190910181015182524291810191909152825460018181018555600094855293829020835160039092020190815590820151928101929092556040015160029091015581610a0c81613643565b92505061095d565b610a46898381518110610a2957610a29613617565b6020026020010151600090815261019d6020526040902054151590565b158015610a6d57506005898381518110610a6257610a62613617565b602002602001015111155b610ac85760405162461bcd60e51b815260206004820152602660248201527f51756573743a20746f6b656e206973206d696e746564206f72206f7574206f666044820152652072616e676560d01b606482015260840161086c565b610ad4308a8a8a611727565b50969793965092945050505050565b606060678054610af29061365e565b80601f0160208091040260200160405190810160405280929190818152602001828054610b1e9061365e565b8015610b6b5780601f10610b4057610100808354040283529160200191610b6b565b820191906000526020600020905b815481529060010190602001808311610b4e57829003601f168201915b50505050509050919050565b600082815261019d6020526040902054610bd35760405162461bcd60e51b815260206004820152601960248201527f51756573743a204e465420646f6573206e6f7420657869737400000000000000604482015260640161086c565b6001600160a01b038316331480610bef5750610bef8333610711565b610c0b5760405162461bcd60e51b815260040161086c90613699565b610c16838383611882565b505050565b6001600160a01b038516331480610c375750610c378533610711565b610c9e5760405162461bcd60e51b815260206004820152603260248201527f455243313135353a207472616e736665722063616c6c6572206973206e6f74206044820152711bdddb995c881b9bdc88185c1c1c9bdd995960721b606482015260840161086c565b610cab8585858585611987565b5050505050565b600082815260fb6020526040902060010154610cce81336116b0565b610c168383611b34565b6001600160a01b0381163314610d485760405162461bcd60e51b815260206004820152602f60248201527f416363657373436f6e74726f6c3a2063616e206f6e6c792072656e6f756e636560448201526e103937b632b9903337b91039b2b63360891b606482015260840161086c565b6108c38282611bba565b306001600160a01b037f0000000000000000000000000000000000000000000000000000000000000000161415610d9b5760405162461bcd60e51b815260040161086c906136e0565b7f00000000000000000000000000000000000000000000000000000000000000006001600160a01b0316610dcd611c21565b6001600160a01b031614610df35760405162461bcd60e51b815260040161086c9061372c565b610dfc81611c4f565b60408051600080825260208201909252610e1891839190611d28565b50565b60608151835114610e805760405162461bcd60e51b815260206004820152602960248201527f455243313135353a206163636f756e747320616e6420696473206c656e677468604482015268040dad2e6dac2e8c6d60bb1b606482015260840161086c565b600083516001600160401b03811115610e9b57610e9b612daa565b604051908082528060200260200182016040528015610ec4578160200160208202803683370190505b50905060005b8451811015610f3c57610f0f858281518110610ee857610ee8613617565b6020026020010151858381518110610f0257610f02613617565b6020026020010151610804565b828281518110610f2157610f21613617565b6020908102919091010152610f3581613643565b9050610eca565b509392505050565b306001600160a01b037f0000000000000000000000000000000000000000000000000000000000000000161415610f8d5760405162461bcd60e51b815260040161086c906136e0565b7f00000000000000000000000000000000000000000000000000000000000000006001600160a01b0316610fbf611c21565b6001600160a01b031614610fe55760405162461bcd60e51b815260040161086c9061372c565b610fee82611c4f565b6108c382826001611d28565b600061100b61019280546001019055565b506101925461019681905590565b600061102581336116b0565b61019554600090815261019c60209081526040909120845161104992860190612c98565b506101958054600090815261019c60205260409081902060010180546001600160a01b0319166001600160a01b038616179055905490517fe7728328277361a76a29cdcb4681be86dbbf1934457953cc0e4151f56a811244916110af9185908790613778565b60405180910390a1505050565b61019480546110ca9061365e565b80601f01602080910402602001604051908101604052809291908181526020018280546110f69061365e565b80156111435780601f1061111857610100808354040283529160200191611143565b820191906000526020600020905b81548152906001019060200180831161112657829003601f168201915b505050505081565b61019380546110ca9061365e565b600080600080516020613c5a83398151915261117581336116b0565b600086815261019d6020526040902054158015611193575060058611155b6111f35760405162461bcd60e51b815260206004820152602b60248201527f51756573743a20746f6b656e20616c7265616479206d696e746564206f72206f60448201526a7574206f662072616e676560a81b606482015260840161086c565b6112008787600188611e6c565b505061019554600090815261019c602090815260408083208151606081018352888152808401878152429382019384526002928301805460018082018355918852959096209151600390950290910193845551938301939093555191015550919391925050565b600091825260fb602090815260408084206001600160a01b0393909316845291905290205460ff1690565b600061129e81336116b0565b826112a93086610804565b10156112f75760405162461bcd60e51b815260206004820152601d60248201527f51756573743a2062616c616e6365206973206e6f7420656e6f75676874000000604482015260640161086c565b6001600160a01b03851661134d5760405162461bcd60e51b815260206004820152601f60248201527f51756573743a207472616e7366657220746f207a65726f206164647265737300604482015260640161086c565b610cab3086868686611556565b6108c3338383611f44565b610197816005811061137657600080fd5b0154905081565b600054610100900460ff1680611396575060005460ff16155b6113b25760405162461bcd60e51b815260040161086c906137a2565b600054610100900460ff161580156113d4576000805461ffff19166101011790555b6113dd84612025565b6113e56120aa565b6113ed61212d565b6113f56120aa565b6113fd61212d565b61140860008661218b565b611420600080516020613c5a8339815191528861218b565b61144a7f189ab7a9244df0848122154315af71fe140f3db0fe014031783b0946b8c9d2e38761218b565b825161145e90610193906020860190612c98565b50815161147390610194906020850190612c98565b5061148361019180546001019055565b610191546101955560405160019061019e906114a09087906137f0565b908152604051908190036020019020805491151560ff1990921691909117905580156114d2576000805461ff00191690555b50505050505050565b60006114e781336116b0565b6001600160a01b03841633148061150357506115038433610711565b61151f5760405162461bcd60e51b815260040161086c90613699565b61152a848484612195565b50505050565b600082815260fb602052604090206001015461154c81336116b0565b610c168383611bba565b6001600160a01b03851633148061157257506115728533610711565b6115d05760405162461bcd60e51b815260206004820152602960248201527f455243313135353a2063616c6c6572206973206e6f74206f776e6572206e6f7260448201526808185c1c1c9bdd995960ba1b606482015260840161086c565b610cab8585858585612326565b61019c602052600090815260409020805481906115f99061365e565b80601f01602080910402602001604051908101604052809291908181526020018280546116259061365e565b80156116725780601f1061164757610100808354040283529160200191611672565b820191906000526020600020905b81548152906001019060200180831161165557829003601f168201915b505050600190930154919250506001600160a01b031682565b60006001600160e01b03198216637965db0b60e01b14806108a857506108a88261243e565b6116ba8282611267565b6108c3576116d2816001600160a01b03166014612463565b6116dd836020612463565b6040516020016116ee92919061380c565b60408051601f198184030181529082905262461bcd60e51b825261086c916004016130ac565b80516108c3906067906020840190612c98565b6001600160a01b03841661174d5760405162461bcd60e51b815260040161086c90613881565b815183511461176e5760405162461bcd60e51b815260040161086c906138c2565b3361177e81600087878787612605565b60005b845181101561181a5783818151811061179c5761179c613617565b6020026020010151606560008784815181106117ba576117ba613617565b602002602001015181526020019081526020016000206000886001600160a01b03166001600160a01b031681526020019081526020016000206000828254611802919061390a565b9091555081905061181281613643565b915050611781565b50846001600160a01b031660006001600160a01b0316826001600160a01b03167f4a39dc06d4c0dbc64b70af90fd698a233a518aa5d07e595d983b8c0526c8f7fb878760405161186b929190613016565b60405180910390a4610cab81600087878787612713565b6001600160a01b0383166118a85760405162461bcd60e51b815260040161086c90613922565b336118d7818560006118b98761286f565b6118c28761286f565b60405180602001604052806000815250612605565b60008381526065602090815260408083206001600160a01b03881684529091529020548281101561191a5760405162461bcd60e51b815260040161086c90613965565b60008481526065602090815260408083206001600160a01b03898116808652918452828520888703905582518981529384018890529092908616917fc3d58168c5ae7397731d063d5bbf3d657854427343f4c083240f7aacaa2d0f62910160405180910390a45050505050565b81518351146119a85760405162461bcd60e51b815260040161086c906138c2565b6001600160a01b0384166119ce5760405162461bcd60e51b815260040161086c906139a9565b336119dd818787878787612605565b60005b8451811015611ac65760008582815181106119fd576119fd613617565b602002602001015190506000858381518110611a1b57611a1b613617565b60209081029190910181015160008481526065835260408082206001600160a01b038e168352909352919091205490915081811015611a6c5760405162461bcd60e51b815260040161086c906139ee565b60008381526065602090815260408083206001600160a01b038e8116855292528083208585039055908b16825281208054849290611aab90849061390a565b9250508190555050505080611abf90613643565b90506119e0565b50846001600160a01b0316866001600160a01b0316826001600160a01b03167f4a39dc06d4c0dbc64b70af90fd698a233a518aa5d07e595d983b8c0526c8f7fb8787604051611b16929190613016565b60405180910390a4611b2c818787878787612713565b505050505050565b611b3e8282611267565b6108c357600082815260fb602090815260408083206001600160a01b03851684529091529020805460ff19166001179055611b763390565b6001600160a01b0316816001600160a01b0316837f2f8788117e7eff1d82e926ec794901d17c78024a50270940304540a733656f0d60405160405180910390a45050565b611bc48282611267565b156108c357600082815260fb602090815260408083206001600160a01b0385168085529252808320805460ff1916905551339285917ff6391f5c32d9c69d2a47ea670b442974b53935d1edc7fd64eb21e047a839171b9190a45050565b7f360894a13ba1a3210667c828492db98dca3e2076cc3735a920a3ca505d382bbc546001600160a01b031690565b611c797f189ab7a9244df0848122154315af71fe140f3db0fe014031783b0946b8c9d2e333611267565b611cc55760405162461bcd60e51b815260206004820152601960248201527f51756573743a2055504752414445525f524f4c45206f6e6c7900000000000000604482015260640161086c565b803b610e185760405162461bcd60e51b815260206004820152602c60248201527f51756573743a206e657720496d706c656d656e746174696f6e206d757374206260448201526b1948184818dbdb9d1c9858dd60a21b606482015260840161086c565b6000611d32611c21565b9050611d3d846128ba565b600083511180611d4a5750815b15611d5b57611d59848461295f565b505b7f4910fdfa16fed3260ed0e7147f7cc6da11a60208b5b9406d12a635614ffd9143805460ff16610cab57805460ff191660011781556040516001600160a01b0383166024820152611dda90869060440160408051601f198184030181529190526020810180516001600160e01b0316631b2ce7f360e11b17905261295f565b50805460ff19168155611deb611c21565b6001600160a01b0316826001600160a01b031614611e635760405162461bcd60e51b815260206004820152602f60248201527f45524331393637557067726164653a207570677261646520627265616b73206660448201526e75727468657220757067726164657360881b606482015260840161086c565b610cab85612a4a565b6001600160a01b038416611e925760405162461bcd60e51b815260040161086c90613881565b33611eb281600087611ea38861286f565b611eac8861286f565b87612605565b60008481526065602090815260408083206001600160a01b038916845290915281208054859290611ee490849061390a565b909155505060408051858152602081018590526001600160a01b0380881692600092918516917fc3d58168c5ae7397731d063d5bbf3d657854427343f4c083240f7aacaa2d0f62910160405180910390a4610cab81600087878787612a8a565b816001600160a01b0316836001600160a01b03161415611fb85760405162461bcd60e51b815260206004820152602960248201527f455243313135353a2073657474696e6720617070726f76616c20737461747573604482015268103337b91039b2b63360b91b606482015260840161086c565b6001600160a01b03838116600081815260666020908152604080832094871680845294825291829020805460ff191686151590811790915591519182527f17307eab39ab6107e8899845ad3d59bd9653f200f220920489ca2b5937696c31910160405180910390a3505050565b600054610100900460ff168061203e575060005460ff16155b61205a5760405162461bcd60e51b815260040161086c906137a2565b600054610100900460ff1615801561207c576000805461ffff19166101011790555b612084612b45565b61208c612b45565b61209582612baf565b80156108c3576000805461ff00191690555050565b600054610100900460ff16806120c3575060005460ff16155b6120df5760405162461bcd60e51b815260040161086c906137a2565b600054610100900460ff16158015612101576000805461ffff19166101011790555b612109612b45565b612111612b45565b612119612b45565b8015610e18576000805461ff001916905550565b600054610100900460ff1680612146575060005460ff16155b6121625760405162461bcd60e51b815260040161086c906137a2565b600054610100900460ff16158015612109576000805461ffff1916610101179055612111612b45565b6108c38282611b34565b6001600160a01b0383166121bb5760405162461bcd60e51b815260040161086c90613922565b80518251146121dc5760405162461bcd60e51b815260040161086c906138c2565b60003390506121ff81856000868660405180602001604052806000815250612605565b60005b83518110156122c757600084828151811061221f5761221f613617565b60200260200101519050600084838151811061223d5761223d613617565b60209081029190910181015160008481526065835260408082206001600160a01b038c16835290935291909120549091508181101561228e5760405162461bcd60e51b815260040161086c90613965565b60009283526065602090815260408085206001600160a01b038b16865290915290922091039055806122bf81613643565b915050612202565b5060006001600160a01b0316846001600160a01b0316826001600160a01b03167f4a39dc06d4c0dbc64b70af90fd698a233a518aa5d07e595d983b8c0526c8f7fb8686604051612318929190613016565b60405180910390a450505050565b6001600160a01b03841661234c5760405162461bcd60e51b815260040161086c906139a9565b3361235c818787611ea38861286f565b60008481526065602090815260408083206001600160a01b038a1684529091529020548381101561239f5760405162461bcd60e51b815260040161086c906139ee565b60008581526065602090815260408083206001600160a01b038b81168552925280832087850390559088168252812080548692906123de90849061390a565b909155505060408051868152602081018690526001600160a01b03808916928a821692918616917fc3d58168c5ae7397731d063d5bbf3d657854427343f4c083240f7aacaa2d0f62910160405180910390a46114d2828888888888612a8a565b60006001600160e01b03198216630271189760e51b14806108a857506108a882612c0f565b60606000612472836002613a38565b61247d90600261390a565b6001600160401b0381111561249457612494612daa565b6040519080825280601f01601f1916602001820160405280156124be576020820181803683370190505b509050600360fc1b816000815181106124d9576124d9613617565b60200101906001600160f81b031916908160001a905350600f60fb1b8160018151811061250857612508613617565b60200101906001600160f81b031916908160001a905350600061252c846002613a38565b61253790600161390a565b90505b60018111156125af576f181899199a1a9b1b9c1cb0b131b232b360811b85600f166010811061256b5761256b613617565b1a60f81b82828151811061258157612581613617565b60200101906001600160f81b031916908160001a90535060049490941c936125a881613a57565b905061253a565b5083156125fe5760405162461bcd60e51b815260206004820181905260248201527f537472696e67733a20686578206c656e67746820696e73756666696369656e74604482015260640161086c565b9392505050565b6001600160a01b03851661268d5760005b835181101561268b5782818151811061263157612631613617565b602002602001015161019d600086848151811061265057612650613617565b602002602001015181526020019081526020016000206000828254612675919061390a565b90915550612684905081613643565b9050612616565b505b6001600160a01b038416611b2c5760005b83518110156114d2578281815181106126b9576126b9613617565b602002602001015161019d60008684815181106126d8576126d8613617565b6020026020010151815260200190815260200160002060008282546126fd9190613a6e565b9091555061270c905081613643565b905061269e565b6001600160a01b0384163b15611b2c5760405163bc197c8160e01b81526001600160a01b0385169063bc197c81906127579089908990889088908890600401613a85565b6020604051808303816000875af1925050508015612792575060408051601f3d908101601f1916820190925261278f91810190613ae3565b60015b61283f5761279e613b00565b806308c379a014156127d857506127b3613b1c565b806127be57506127da565b8060405162461bcd60e51b815260040161086c91906130ac565b505b60405162461bcd60e51b815260206004820152603460248201527f455243313135353a207472616e7366657220746f206e6f6e20455243313135356044820152732932b1b2b4bb32b91034b6b83632b6b2b73a32b960611b606482015260840161086c565b6001600160e01b0319811663bc197c8160e01b146114d25760405162461bcd60e51b815260040161086c90613ba5565b604080516001808252818301909252606091600091906020808301908036833701905050905082816000815181106128a9576128a9613617565b602090810291909101015292915050565b803b61291e5760405162461bcd60e51b815260206004820152602d60248201527f455243313936373a206e657720696d706c656d656e746174696f6e206973206e60448201526c1bdd08184818dbdb9d1c9858dd609a1b606482015260840161086c565b7f360894a13ba1a3210667c828492db98dca3e2076cc3735a920a3ca505d382bbc80546001600160a01b0319166001600160a01b0392909216919091179055565b6060823b6129be5760405162461bcd60e51b815260206004820152602660248201527f416464726573733a2064656c65676174652063616c6c20746f206e6f6e2d636f6044820152651b9d1c9858dd60d21b606482015260840161086c565b600080846001600160a01b0316846040516129d991906137f0565b600060405180830381855af49150503d8060008114612a14576040519150601f19603f3d011682016040523d82523d6000602084013e612a19565b606091505b5091509150612a418282604051806060016040528060278152602001613c3360279139612c5f565b95945050505050565b612a53816128ba565b6040516001600160a01b038216907fbc7cd75a20ee27fd9adebab32041f755214dbc6bffa90cc0225b39da2e5c2d3b90600090a250565b6001600160a01b0384163b15611b2c5760405163f23a6e6160e01b81526001600160a01b0385169063f23a6e6190612ace9089908990889088908890600401613bed565b6020604051808303816000875af1925050508015612b09575060408051601f3d908101601f19168201909252612b0691810190613ae3565b60015b612b155761279e613b00565b6001600160e01b0319811663f23a6e6160e01b146114d25760405162461bcd60e51b815260040161086c90613ba5565b600054610100900460ff1680612b5e575060005460ff16155b612b7a5760405162461bcd60e51b815260040161086c906137a2565b600054610100900460ff16158015612119576000805461ffff19166101011790558015610e18576000805461ff001916905550565b600054610100900460ff1680612bc8575060005460ff16155b612be45760405162461bcd60e51b815260040161086c906137a2565b600054610100900460ff16158015612c06576000805461ffff19166101011790555b61209582611714565b60006001600160e01b03198216636cdb3d1360e11b1480612c4057506001600160e01b031982166303a24d0760e21b145b806108a857506301ffc9a760e01b6001600160e01b03198316146108a8565b60608315612c6e5750816125fe565b825115612c7e5782518084602001fd5b8160405162461bcd60e51b815260040161086c91906130ac565b828054612ca49061365e565b90600052602060002090601f016020900481019282612cc65760008555612d0c565b82601f10612cdf57805160ff1916838001178555612d0c565b82800160010185558215612d0c579182015b82811115612d0c578251825591602001919060010190612cf1565b50612d18929150612d1c565b5090565b5b80821115612d185760008155600101612d1d565b80356001600160a01b0381168114612d4857600080fd5b919050565b60008060408385031215612d6057600080fd5b612d6983612d31565b946020939093013593505050565b6001600160e01b031981168114610e1857600080fd5b600060208284031215612d9f57600080fd5b81356125fe81612d77565b634e487b7160e01b600052604160045260246000fd5b601f8201601f191681016001600160401b0381118282101715612de557612de5612daa565b6040525050565b600082601f830112612dfd57600080fd5b81356001600160401b03811115612e1657612e16612daa565b604051612e2d601f8301601f191660200182612dc0565b818152846020838601011115612e4257600080fd5b816020850160208301376000918101602001919091529392505050565b600060208284031215612e7157600080fd5b81356001600160401b03811115612e8757600080fd5b612e9384828501612dec565b949350505050565b60006001600160401b03821115612eb457612eb4612daa565b5060051b60200190565b600082601f830112612ecf57600080fd5b81356020612edc82612e9b565b604051612ee98282612dc0565b83815260059390931b8501820192828101915086841115612f0957600080fd5b8286015b84811015612f245780358352918301918301612f0d565b509695505050505050565b60008060008060808587031215612f4557600080fd5b84356001600160401b0380821115612f5c57600080fd5b612f6888838901612ebe565b95506020870135915080821115612f7e57600080fd5b612f8a88838901612ebe565b94506040870135915080821115612fa057600080fd5b612fac88838901612dec565b93506060870135915080821115612fc257600080fd5b50612fcf87828801612ebe565b91505092959194509250565b600081518084526020808501945080840160005b8381101561300b57815187529582019590820190600101612fef565b509495945050505050565b6040815260006130296040830185612fdb565b8281036020840152612a418185612fdb565b60006020828403121561304d57600080fd5b5035919050565b60005b8381101561306f578181015183820152602001613057565b8381111561152a5750506000910152565b60008151808452613098816020860160208601613054565b601f01601f19169290920160200192915050565b6020815260006125fe6020830184613080565b6000806000606084860312156130d457600080fd5b6130dd84612d31565b95602085013595506040909401359392505050565b600080600080600060a0868803121561310a57600080fd5b61311386612d31565b945061312160208701612d31565b935060408601356001600160401b038082111561313d57600080fd5b61314989838a01612ebe565b9450606088013591508082111561315f57600080fd5b61316b89838a01612ebe565b9350608088013591508082111561318157600080fd5b5061318e88828901612dec565b9150509295509295909350565b600080604083850312156131ae57600080fd5b823591506131be60208401612d31565b90509250929050565b6000602082840312156131d957600080fd5b6125fe82612d31565b600080604083850312156131f557600080fd5b82356001600160401b038082111561320c57600080fd5b818501915085601f83011261322057600080fd5b8135602061322d82612e9b565b60405161323a8282612dc0565b83815260059390931b850182019282810191508984111561325a57600080fd5b948201945b8386101561327f5761327086612d31565b8252948201949082019061325f565b9650508601359250508082111561329557600080fd5b506132a285828601612ebe565b9150509250929050565b6020815260006125fe6020830184612fdb565b600080604083850312156132d257600080fd5b6132db83612d31565b915060208301356001600160401b038111156132f657600080fd5b6132a285828601612dec565b6000806040838503121561331557600080fd5b82356001600160401b0381111561332b57600080fd5b61333785828601612dec565b9250506131be60208401612d31565b6000806000806080858703121561335c57600080fd5b61336585612d31565b93506020850135925060408501356001600160401b0381111561338757600080fd5b61339387828801612dec565b949793965093946060013593505050565b600080600080608085870312156133ba57600080fd5b6133c385612d31565b9350602085013592506040850135915060608501356001600160401b038111156133ec57600080fd5b612fcf87828801612dec565b6000806040838503121561340b57600080fd5b61341483612d31565b91506020830135801515811461342957600080fd5b809150509250929050565b60008060008060008060c0878903121561344d57600080fd5b61345687612d31565b955061346460208801612d31565b945061347260408801612d31565b935060608701356001600160401b038082111561348e57600080fd5b61349a8a838b01612dec565b945060808901359150808211156134b057600080fd5b6134bc8a838b01612dec565b935060a08901359150808211156134d257600080fd5b506134df89828a01612dec565b9150509295509295509295565b60008060006060848603121561350157600080fd5b61350a84612d31565b925060208401356001600160401b038082111561352657600080fd5b61353287838801612ebe565b9350604086013591508082111561354857600080fd5b5061355586828701612ebe565b9150509250925092565b6000806040838503121561357257600080fd5b61357b83612d31565b91506131be60208401612d31565b600080600080600060a086880312156135a157600080fd5b6135aa86612d31565b94506135b860208701612d31565b9350604086013592506060860135915060808601356001600160401b038111156135e157600080fd5b61318e88828901612dec565b6040815260006136006040830185613080565b905060018060a01b03831660208301529392505050565b634e487b7160e01b600052603260045260246000fd5b634e487b7160e01b600052601160045260246000fd5b60006000198214156136575761365761362d565b5060010190565b600181811c9082168061367257607f821691505b6020821081141561369357634e487b7160e01b600052602260045260246000fd5b50919050565b60208082526027908201527f51756573743a2063616c6c6572206973206e6f74206f776e6572206e6f7220616040820152661c1c1c9bdd995960ca1b606082015260800190565b6020808252602c908201527f46756e6374696f6e206d7573742062652063616c6c6564207468726f7567682060408201526b19195b1959d85d1958d85b1b60a21b606082015260800190565b6020808252602c908201527f46756e6374696f6e206d7573742062652063616c6c6564207468726f7567682060408201526b6163746976652070726f787960a01b606082015260800190565b8381526001600160a01b0383166020820152606060408201819052600090612a4190830184613080565b6020808252602e908201527f496e697469616c697a61626c653a20636f6e747261637420697320616c72656160408201526d191e481a5b9a5d1a585b1a5e995960921b606082015260800190565b60008251613802818460208701613054565b9190910192915050565b7f416363657373436f6e74726f6c3a206163636f756e7420000000000000000000815260008351613844816017850160208801613054565b7001034b99036b4b9b9b4b733903937b6329607d1b6017918401918201528351613875816028840160208801613054565b01602801949350505050565b60208082526021908201527f455243313135353a206d696e7420746f20746865207a65726f206164647265736040820152607360f81b606082015260800190565b60208082526028908201527f455243313135353a2069647320616e6420616d6f756e7473206c656e677468206040820152670dad2e6dac2e8c6d60c31b606082015260800190565b6000821982111561391d5761391d61362d565b500190565b60208082526023908201527f455243313135353a206275726e2066726f6d20746865207a65726f206164647260408201526265737360e81b606082015260800190565b60208082526024908201527f455243313135353a206275726e20616d6f756e7420657863656564732062616c604082015263616e636560e01b606082015260800190565b60208082526025908201527f455243313135353a207472616e7366657220746f20746865207a65726f206164604082015264647265737360d81b606082015260800190565b6020808252602a908201527f455243313135353a20696e73756666696369656e742062616c616e636520666f60408201526939103a3930b739b332b960b11b606082015260800190565b6000816000190483118215151615613a5257613a5261362d565b500290565b600081613a6657613a6661362d565b506000190190565b600082821015613a8057613a8061362d565b500390565b6001600160a01b0386811682528516602082015260a060408201819052600090613ab190830186612fdb565b8281036060840152613ac38186612fdb565b90508281036080840152613ad78185613080565b98975050505050505050565b600060208284031215613af557600080fd5b81516125fe81612d77565b600060033d1115613b195760046000803e5060005160e01c5b90565b600060443d1015613b2a5790565b6040516003193d81016004833e81513d6001600160401b038160248401118184111715613b5957505050505090565b8285019150815181811115613b715750505050505090565b843d8701016020828501011115613b8b5750505050505090565b613b9a60208286010187612dc0565b509095945050505050565b60208082526028908201527f455243313135353a204552433131353552656365697665722072656a656374656040820152676420746f6b656e7360c01b606082015260800190565b6001600160a01b03868116825285166020820152604081018490526060810183905260a060808201819052600090613c2790830184613080565b97965050505050505056fe416464726573733a206c6f772d6c6576656c2064656c65676174652063616c6c206661696c6564e1dcbdb91df27212a29bc27177c840cf2f819ecf2187432e1fac86c2dd5dfca9a264697066735822122003328372ac07615578bd6f115438216cf3890ff6908a1c1fd1a0d692d7be334464736f6c634300080a0033608060405260405161078d38038061078d83398101604081905261002291610337565b61004d60017f360894a13ba1a3210667c828492db98dca3e2076cc3735a920a3ca505d382bbd610405565b600080516020610746833981519152146100695761006961042a565b6100758282600061007c565b505061048f565b610085836100b2565b6000825111806100925750805b156100ad576100ab83836100f260201b6100291760201c565b505b505050565b6100bb8161011e565b6040516001600160a01b038216907fbc7cd75a20ee27fd9adebab32041f755214dbc6bffa90cc0225b39da2e5c2d3b90600090a250565b60606101178383604051806060016040528060278152602001610766602791396101de565b9392505050565b610131816102b360201b6100551760201c565b6101985760405162461bcd60e51b815260206004820152602d60248201527f455243313936373a206e657720696d706c656d656e746174696f6e206973206e60448201526c1bdd08184818dbdb9d1c9858dd609a1b60648201526084015b60405180910390fd5b806101bd60008051602061074683398151915260001b6102b960201b61005b1760201c565b80546001600160a01b0319166001600160a01b039290921691909117905550565b6060833b61023d5760405162461bcd60e51b815260206004820152602660248201527f416464726573733a2064656c65676174652063616c6c20746f206e6f6e2d636f6044820152651b9d1c9858dd60d21b606482015260840161018f565b600080856001600160a01b0316856040516102589190610440565b600060405180830381855af49150503d8060008114610293576040519150601f19603f3d011682016040523d82523d6000602084013e610298565b606091505b5090925090506102a98282866102bc565b9695505050505050565b3b151590565b90565b606083156102cb575081610117565b8251156102db5782518084602001fd5b8160405162461bcd60e51b815260040161018f919061045c565b634e487b7160e01b600052604160045260246000fd5b60005b8381101561032657818101518382015260200161030e565b838111156100ab5750506000910152565b6000806040838503121561034a57600080fd5b82516001600160a01b038116811461036157600080fd5b60208401519092506001600160401b038082111561037e57600080fd5b818501915085601f83011261039257600080fd5b8151818111156103a4576103a46102f5565b604051601f8201601f19908116603f011681019083821181831017156103cc576103cc6102f5565b816040528281528860208487010111156103e557600080fd5b6103f683602083016020880161030b565b80955050505050509250929050565b60008282101561042557634e487b7160e01b600052601160045260246000fd5b500390565b634e487b7160e01b600052600160045260246000fd5b6000825161045281846020870161030b565b9190910192915050565b602081526000825180602084015261047b81604085016020870161030b565b601f01601f19169190910160400192915050565b6102a88061049e6000396000f3fe60806040523661001357610011610017565b005b6100115b61002761002261005e565b610096565b565b606061004e838360405180606001604052806027815260200161024c602791396100ba565b9392505050565b3b151590565b90565b60006100917f360894a13ba1a3210667c828492db98dca3e2076cc3735a920a3ca505d382bbc546001600160a01b031690565b905090565b3660008037600080366000845af43d6000803e8080156100b5573d6000f35b3d6000fd5b6060833b61011e5760405162461bcd60e51b815260206004820152602660248201527f416464726573733a2064656c65676174652063616c6c20746f206e6f6e2d636f6044820152651b9d1c9858dd60d21b60648201526084015b60405180910390fd5b600080856001600160a01b03168560405161013991906101fc565b600060405180830381855af49150503d8060008114610174576040519150601f19603f3d011682016040523d82523d6000602084013e610179565b606091505b5091509150610189828286610193565b9695505050505050565b606083156101a257508161004e565b8251156101b25782518084602001fd5b8160405162461bcd60e51b81526004016101159190610218565b60005b838110156101e75781810151838201526020016101cf565b838111156101f6576000848401525b50505050565b6000825161020e8184602087016101cc565b9190910192915050565b60208152600082518060208401526102378160408501602087016101cc565b601f01601f1916919091016040019291505056fe416464726573733a206c6f772d6c6576656c2064656c65676174652063616c6c206661696c6564a26469706673582212206201ac3a418b0db9a3453c2a0d05a84f8db8563725bdf0c06993c601499612a664736f6c634300080a0033360894a13ba1a3210667c828492db98dca3e2076cc3735a920a3ca505d382bbc416464726573733a206c6f772d6c6576656c2064656c65676174652063616c6c206661696c6564416464726573733a206c6f772d6c6576656c2064656c65676174652063616c6c206661696c6564a2646970667358221220e24edae6c1a23f0be348482a9c90deb34399876c31e561a942a469ed691b908a64736f6c634300080a0033",
  "immutableReferences": {
    "1023": [
      {
        "length": 32,
        "start": 591
      },
      {
        "length": 32,
        "start": 667
      },
      {
        "length": 32,
        "start": 870
      },
      {
        "length": 32,
        "start": 937
      }
    ]
  },
  "source": "// SPDX-License-Identifier: MIT\npragma solidity ^0.8.0;\n\nimport \"./QuestProperties.sol\";\nimport '@openzeppelin/contracts-upgradeable/proxy/utils/Initializable.sol';\nimport '@openzeppelin/contracts-upgradeable/access/OwnableUpgradeable.sol';\nimport '@openzeppelin/contracts-upgradeable/proxy/utils/UUPSUpgradeable.sol';\nimport '@openzeppelin/contracts-upgradeable/security/PausableUpgradeable.sol';\nimport '@openzeppelin/contracts-upgradeable/utils/AddressUpgradeable.sol';\nimport '@openzeppelin/contracts/proxy/ERC1967/ERC1967Proxy.sol'; \n\n/**\n *@title  Quest Factory\n *@author Strategic Quest Crypto\n *@dev This contract applies Factory pattern design, the contract itself is upgradeable.\n *\n * PausableUpgradeable is inherited to pause functionalities when upgrading or debugging.\n */\n\ncontract QuestFactory is Initializable, OwnableUpgradeable, PausableUpgradeable, UUPSUpgradeable {\n  \n\n  address logicAddress;\n  address[] public proxies;\n\n  event contractDeployed(address indexed propContractAddr);\n\n  /**\n   *@dev the caller of this function is the owner of the contract.\n   *logicAddress is QuestProperties address\n   */\n  function initialize() public virtual initializer whenNotPaused {\n    __UUPSUpgradeable_init();\n    __Pausable_init();\n    __Ownable_init(); \n    \n\n    logicAddress = address(new QuestProperties());\n  }\n\n  /**\n   *@dev create a proxy for each new deployed property\n   *Emits an event with proxy address created.\n   *pushes the new address to array of proxies\n   */\n  function deployPropertyContract(\n    address treasury, \n    address upgrader,\n    address admin, // added admin role \n    string memory uri, \n    string memory _contractName, \n    string memory _description\n    ) public \n    virtual \n    whenNotPaused \n    returns(address) {\n    ERC1967Proxy proxy= new ERC1967Proxy(\n      logicAddress,\n      abi.encodeWithSelector(QuestProperties(address(0)).initialize.selector, \n      treasury, \n      upgrader, \n      admin,\n      uri, \n      _contractName, \n      _description)\n    );\n\n    emit  contractDeployed(address(proxy));\n\n    proxies.push(address(proxy));\n\n    return address(proxy);\n  }\n\n  function getProxyLength() public view returns (uint256){\n    return proxies.length;\n  }\n\n\n  function pause() external onlyOwner {\n    _pause();\n  }\n\n\n  function unpause() external onlyOwner {\n    _unpause();\n  }\n\n\n  function _authorizeUpgrade(address newImplementation) internal virtual  override onlyOwner {\n    require (AddressUpgradeable.isContract(newImplementation), 'Quest: new factory must be a contract');\n  }\n\n}\n\n",
  "sourcePath": "/Users/arhan/Documents/work/questcrypto-tests/QuestProperties/contracts/QuestFactory.sol",
  "compiler": {
    "name": "solc",
    "version": "0.8.10+commit.fc410830.Emscripten.clang"
  },
  "schemaVersion": "3.4.4",
  "updatedAt": "2021-12-31T12:37:49.815Z",
  "devdoc": {
    "author": "Strategic Quest Crypto",
    "details": "This contract applies Factory pattern design, the contract itself is upgradeable. PausableUpgradeable is inherited to pause functionalities when upgrading or debugging.",
    "kind": "dev",
    "methods": {
      "deployPropertyContract(address,address,address,string,string,string)": {
        "details": "create a proxy for each new deployed property Emits an event with proxy address created. pushes the new address to array of proxies"
      },
      "initialize()": {
        "details": "the caller of this function is the owner of the contract. logicAddress is QuestProperties address"
      },
      "owner()": {
        "details": "Returns the address of the current owner."
      },
      "paused()": {
        "details": "Returns true if the contract is paused, and false otherwise."
      },
      "renounceOwnership()": {
        "details": "Leaves the contract without owner. It will not be possible to call `onlyOwner` functions anymore. Can only be called by the current owner. NOTE: Renouncing ownership will leave the contract without an owner, thereby removing any functionality that is only available to the owner."
      },
      "transferOwnership(address)": {
        "details": "Transfers ownership of the contract to a new account (`newOwner`). Can only be called by the current owner."
      },
      "upgradeTo(address)": {
        "details": "Upgrade the implementation of the proxy to `newImplementation`. Calls {_authorizeUpgrade}. Emits an {Upgraded} event."
      },
      "upgradeToAndCall(address,bytes)": {
        "details": "Upgrade the implementation of the proxy to `newImplementation`, and subsequently execute the function call encoded in `data`. Calls {_authorizeUpgrade}. Emits an {Upgraded} event."
      }
    },
    "title": "Quest Factory",
    "version": 1
  },
  "userdoc": {
    "kind": "user",
    "methods": {},
    "version": 1
  }
}