{
  "contractName": "QuestProperties",
  "abi": [
    {
      "anonymous": false,
      "inputs": [
        {
          "indexed": false,
          "internalType": "address",
          "name": "previousAdmin",
          "type": "address"
        },
        {
          "indexed": false,
          "internalType": "address",
          "name": "newAdmin",
          "type": "address"
        }
      ],
      "name": "AdminChanged",
      "type": "event"
    },
    {
      "anonymous": false,
      "inputs": [
        {
          "indexed": true,
          "internalType": "address",
          "name": "account",
          "type": "address"
        },
        {
          "indexed": true,
          "internalType": "address",
          "name": "operator",
          "type": "address"
        },
        {
          "indexed": false,
          "internalType": "bool",
          "name": "approved",
          "type": "bool"
        }
      ],
      "name": "ApprovalForAll",
      "type": "event"
    },
    {
      "anonymous": false,
      "inputs": [
        {
          "indexed": true,
          "internalType": "address",
          "name": "beacon",
          "type": "address"
        }
      ],
      "name": "BeaconUpgraded",
      "type": "event"
    },
    {
      "anonymous": false,
      "inputs": [
        {
          "indexed": false,
          "internalType": "uint256",
          "name": "propertyId",
          "type": "uint256"
        },
        {
          "indexed": false,
          "internalType": "address",
          "name": "property",
          "type": "address"
        },
        {
          "indexed": false,
          "internalType": "bytes",
          "name": "MerkleTree",
          "type": "bytes"
        }
      ],
      "name": "PropertyAdded",
      "type": "event"
    },
    {
      "anonymous": false,
      "inputs": [
        {
          "indexed": true,
          "internalType": "bytes32",
          "name": "role",
          "type": "bytes32"
        },
        {
          "indexed": true,
          "internalType": "bytes32",
          "name": "previousAdminRole",
          "type": "bytes32"
        },
        {
          "indexed": true,
          "internalType": "bytes32",
          "name": "newAdminRole",
          "type": "bytes32"
        }
      ],
      "name": "RoleAdminChanged",
      "type": "event"
    },
    {
      "anonymous": false,
      "inputs": [
        {
          "indexed": true,
          "internalType": "bytes32",
          "name": "role",
          "type": "bytes32"
        },
        {
          "indexed": true,
          "internalType": "address",
          "name": "account",
          "type": "address"
        },
        {
          "indexed": true,
          "internalType": "address",
          "name": "sender",
          "type": "address"
        }
      ],
      "name": "RoleGranted",
      "type": "event"
    },
    {
      "anonymous": false,
      "inputs": [
        {
          "indexed": true,
          "internalType": "bytes32",
          "name": "role",
          "type": "bytes32"
        },
        {
          "indexed": true,
          "internalType": "address",
          "name": "account",
          "type": "address"
        },
        {
          "indexed": true,
          "internalType": "address",
          "name": "sender",
          "type": "address"
        }
      ],
      "name": "RoleRevoked",
      "type": "event"
    },
    {
      "anonymous": false,
      "inputs": [
        {
          "indexed": true,
          "internalType": "address",
          "name": "operator",
          "type": "address"
        },
        {
          "indexed": true,
          "internalType": "address",
          "name": "from",
          "type": "address"
        },
        {
          "indexed": true,
          "internalType": "address",
          "name": "to",
          "type": "address"
        },
        {
          "indexed": false,
          "internalType": "uint256[]",
          "name": "ids",
          "type": "uint256[]"
        },
        {
          "indexed": false,
          "internalType": "uint256[]",
          "name": "values",
          "type": "uint256[]"
        }
      ],
      "name": "TransferBatch",
      "type": "event"
    },
    {
      "anonymous": false,
      "inputs": [
        {
          "indexed": true,
          "internalType": "address",
          "name": "operator",
          "type": "address"
        },
        {
          "indexed": true,
          "internalType": "address",
          "name": "from",
          "type": "address"
        },
        {
          "indexed": true,
          "internalType": "address",
          "name": "to",
          "type": "address"
        },
        {
          "indexed": false,
          "internalType": "uint256",
          "name": "id",
          "type": "uint256"
        },
        {
          "indexed": false,
          "internalType": "uint256",
          "name": "value",
          "type": "uint256"
        }
      ],
      "name": "TransferSingle",
      "type": "event"
    },
    {
      "anonymous": false,
      "inputs": [
        {
          "indexed": false,
          "internalType": "string",
          "name": "value",
          "type": "string"
        },
        {
          "indexed": true,
          "internalType": "uint256",
          "name": "id",
          "type": "uint256"
        }
      ],
      "name": "URI",
      "type": "event"
    },
    {
      "anonymous": false,
      "inputs": [
        {
          "indexed": true,
          "internalType": "address",
          "name": "implementation",
          "type": "address"
        }
      ],
      "name": "Upgraded",
      "type": "event"
    },
    {
      "inputs": [],
      "name": "DEFAULT_ADMIN_ROLE",
      "outputs": [
        {
          "internalType": "bytes32",
          "name": "",
          "type": "bytes32"
        }
      ],
      "stateMutability": "view",
      "type": "function"
    },
    {
      "inputs": [],
      "name": "EQUITY_RIGHT",
      "outputs": [
        {
          "internalType": "uint256",
          "name": "",
          "type": "uint256"
        }
      ],
      "stateMutability": "view",
      "type": "function"
    },
    {
      "inputs": [],
      "name": "GOVERNANCE_RIGHT",
      "outputs": [
        {
          "internalType": "uint256",
          "name": "",
          "type": "uint256"
        }
      ],
      "stateMutability": "view",
      "type": "function"
    },
    {
      "inputs": [],
      "name": "MGMT_RIGHT",
      "outputs": [
        {
          "internalType": "uint256",
          "name": "",
          "type": "uint256"
        }
      ],
      "stateMutability": "view",
      "type": "function"
    },
    {
      "inputs": [],
      "name": "POSSESSION_RIGHT",
      "outputs": [
        {
          "internalType": "uint256",
          "name": "",
          "type": "uint256"
        }
      ],
      "stateMutability": "view",
      "type": "function"
    },
    {
      "inputs": [],
      "name": "RENT_RIGHT",
      "outputs": [
        {
          "internalType": "uint256",
          "name": "",
          "type": "uint256"
        }
      ],
      "stateMutability": "view",
      "type": "function"
    },
    {
      "inputs": [],
      "name": "TITLE",
      "outputs": [
        {
          "internalType": "uint256",
          "name": "",
          "type": "uint256"
        }
      ],
      "stateMutability": "view",
      "type": "function"
    },
    {
      "inputs": [],
      "name": "TREASURY_ROLE",
      "outputs": [
        {
          "internalType": "bytes32",
          "name": "",
          "type": "bytes32"
        }
      ],
      "stateMutability": "view",
      "type": "function"
    },
    {
      "inputs": [],
      "name": "UPGRADER_ROLE",
      "outputs": [
        {
          "internalType": "bytes32",
          "name": "",
          "type": "bytes32"
        }
      ],
      "stateMutability": "view",
      "type": "function"
    },
    {
      "inputs": [
        {
          "internalType": "uint256",
          "name": "",
          "type": "uint256"
        }
      ],
      "name": "availableTokens",
      "outputs": [
        {
          "internalType": "uint256",
          "name": "",
          "type": "uint256"
        }
      ],
      "stateMutability": "view",
      "type": "function"
    },
    {
      "inputs": [
        {
          "internalType": "address",
          "name": "account",
          "type": "address"
        },
        {
          "internalType": "uint256",
          "name": "id",
          "type": "uint256"
        }
      ],
      "name": "balanceOf",
      "outputs": [
        {
          "internalType": "uint256",
          "name": "",
          "type": "uint256"
        }
      ],
      "stateMutability": "view",
      "type": "function"
    },
    {
      "inputs": [
        {
          "internalType": "address[]",
          "name": "accounts",
          "type": "address[]"
        },
        {
          "internalType": "uint256[]",
          "name": "ids",
          "type": "uint256[]"
        }
      ],
      "name": "balanceOfBatch",
      "outputs": [
        {
          "internalType": "uint256[]",
          "name": "",
          "type": "uint256[]"
        }
      ],
      "stateMutability": "view",
      "type": "function"
    },
    {
      "inputs": [],
      "name": "contractName",
      "outputs": [
        {
          "internalType": "string",
          "name": "",
          "type": "string"
        }
      ],
      "stateMutability": "view",
      "type": "function"
    },
    {
      "inputs": [],
      "name": "description",
      "outputs": [
        {
          "internalType": "string",
          "name": "",
          "type": "string"
        }
      ],
      "stateMutability": "view",
      "type": "function"
    },
    {
      "inputs": [
        {
          "internalType": "bytes32",
          "name": "role",
          "type": "bytes32"
        }
      ],
      "name": "getRoleAdmin",
      "outputs": [
        {
          "internalType": "bytes32",
          "name": "",
          "type": "bytes32"
        }
      ],
      "stateMutability": "view",
      "type": "function"
    },
    {
      "inputs": [
        {
          "internalType": "bytes32",
          "name": "role",
          "type": "bytes32"
        },
        {
          "internalType": "address",
          "name": "account",
          "type": "address"
        }
      ],
      "name": "grantRole",
      "outputs": [],
      "stateMutability": "nonpayable",
      "type": "function"
    },
    {
      "inputs": [
        {
          "internalType": "bytes32",
          "name": "role",
          "type": "bytes32"
        },
        {
          "internalType": "address",
          "name": "account",
          "type": "address"
        }
      ],
      "name": "hasRole",
      "outputs": [
        {
          "internalType": "bool",
          "name": "",
          "type": "bool"
        }
      ],
      "stateMutability": "view",
      "type": "function"
    },
    {
      "inputs": [
        {
          "internalType": "address",
          "name": "account",
          "type": "address"
        },
        {
          "internalType": "address",
          "name": "operator",
          "type": "address"
        }
      ],
      "name": "isApprovedForAll",
      "outputs": [
        {
          "internalType": "bool",
          "name": "",
          "type": "bool"
        }
      ],
      "stateMutability": "view",
      "type": "function"
    },
    {
      "inputs": [
        {
          "internalType": "address",
          "name": "",
          "type": "address"
        },
        {
          "internalType": "address",
          "name": "",
          "type": "address"
        },
        {
          "internalType": "uint256[]",
          "name": "",
          "type": "uint256[]"
        },
        {
          "internalType": "uint256[]",
          "name": "",
          "type": "uint256[]"
        },
        {
          "internalType": "bytes",
          "name": "",
          "type": "bytes"
        }
      ],
      "name": "onERC1155BatchReceived",
      "outputs": [
        {
          "internalType": "bytes4",
          "name": "",
          "type": "bytes4"
        }
      ],
      "stateMutability": "nonpayable",
      "type": "function"
    },
    {
      "inputs": [
        {
          "internalType": "address",
          "name": "",
          "type": "address"
        },
        {
          "internalType": "address",
          "name": "",
          "type": "address"
        },
        {
          "internalType": "uint256",
          "name": "",
          "type": "uint256"
        },
        {
          "internalType": "uint256",
          "name": "",
          "type": "uint256"
        },
        {
          "internalType": "bytes",
          "name": "",
          "type": "bytes"
        }
      ],
      "name": "onERC1155Received",
      "outputs": [
        {
          "internalType": "bytes4",
          "name": "",
          "type": "bytes4"
        }
      ],
      "stateMutability": "nonpayable",
      "type": "function"
    },
    {
      "inputs": [
        {
          "internalType": "uint256",
          "name": "",
          "type": "uint256"
        }
      ],
      "name": "properties",
      "outputs": [
        {
          "internalType": "bytes",
          "name": "parentHash",
          "type": "bytes"
        },
        {
          "internalType": "address",
          "name": "propAddress",
          "type": "address"
        }
      ],
      "stateMutability": "view",
      "type": "function"
    },
    {
      "inputs": [],
      "name": "propertyId",
      "outputs": [
        {
          "internalType": "uint256",
          "name": "",
          "type": "uint256"
        }
      ],
      "stateMutability": "view",
      "type": "function"
    },
    {
      "inputs": [
        {
          "internalType": "bytes32",
          "name": "role",
          "type": "bytes32"
        },
        {
          "internalType": "address",
          "name": "account",
          "type": "address"
        }
      ],
      "name": "renounceRole",
      "outputs": [],
      "stateMutability": "nonpayable",
      "type": "function"
    },
    {
      "inputs": [
        {
          "internalType": "bytes32",
          "name": "role",
          "type": "bytes32"
        },
        {
          "internalType": "address",
          "name": "account",
          "type": "address"
        }
      ],
      "name": "revokeRole",
      "outputs": [],
      "stateMutability": "nonpayable",
      "type": "function"
    },
    {
      "inputs": [
        {
          "internalType": "address",
          "name": "from",
          "type": "address"
        },
        {
          "internalType": "address",
          "name": "to",
          "type": "address"
        },
        {
          "internalType": "uint256[]",
          "name": "ids",
          "type": "uint256[]"
        },
        {
          "internalType": "uint256[]",
          "name": "amounts",
          "type": "uint256[]"
        },
        {
          "internalType": "bytes",
          "name": "data",
          "type": "bytes"
        }
      ],
      "name": "safeBatchTransferFrom",
      "outputs": [],
      "stateMutability": "nonpayable",
      "type": "function"
    },
    {
      "inputs": [
        {
          "internalType": "address",
          "name": "from",
          "type": "address"
        },
        {
          "internalType": "address",
          "name": "to",
          "type": "address"
        },
        {
          "internalType": "uint256",
          "name": "id",
          "type": "uint256"
        },
        {
          "internalType": "uint256",
          "name": "amount",
          "type": "uint256"
        },
        {
          "internalType": "bytes",
          "name": "data",
          "type": "bytes"
        }
      ],
      "name": "safeTransferFrom",
      "outputs": [],
      "stateMutability": "nonpayable",
      "type": "function"
    },
    {
      "inputs": [
        {
          "internalType": "address",
          "name": "operator",
          "type": "address"
        },
        {
          "internalType": "bool",
          "name": "approved",
          "type": "bool"
        }
      ],
      "name": "setApprovalForAll",
      "outputs": [],
      "stateMutability": "nonpayable",
      "type": "function"
    },
    {
      "inputs": [
        {
          "internalType": "address",
          "name": "newImplementation",
          "type": "address"
        }
      ],
      "name": "upgradeTo",
      "outputs": [],
      "stateMutability": "nonpayable",
      "type": "function"
    },
    {
      "inputs": [
        {
          "internalType": "address",
          "name": "newImplementation",
          "type": "address"
        },
        {
          "internalType": "bytes",
          "name": "data",
          "type": "bytes"
        }
      ],
      "name": "upgradeToAndCall",
      "outputs": [],
      "stateMutability": "payable",
      "type": "function"
    },
    {
      "inputs": [
        {
          "internalType": "uint256",
          "name": "",
          "type": "uint256"
        }
      ],
      "name": "uri",
      "outputs": [
        {
          "internalType": "string",
          "name": "",
          "type": "string"
        }
      ],
      "stateMutability": "view",
      "type": "function"
    },
    {
      "inputs": [
        {
          "internalType": "address",
          "name": "treasury",
          "type": "address"
        },
        {
          "internalType": "address",
          "name": "upgrader",
          "type": "address"
        },
        {
          "internalType": "string",
          "name": "uri",
          "type": "string"
        },
        {
          "internalType": "string",
          "name": "_contractName",
          "type": "string"
        },
        {
          "internalType": "string",
          "name": "_description",
          "type": "string"
        }
      ],
      "name": "initialize",
      "outputs": [],
      "stateMutability": "nonpayable",
      "type": "function"
    },
    {
      "inputs": [
        {
          "internalType": "bytes",
          "name": "_parentHash",
          "type": "bytes"
        },
        {
          "internalType": "address",
          "name": "_propAddress",
          "type": "address"
        }
      ],
      "name": "approvedProperty",
      "outputs": [],
      "stateMutability": "nonpayable",
      "type": "function"
    },
    {
      "inputs": [
        {
          "internalType": "bytes4",
          "name": "interfaceId",
          "type": "bytes4"
        }
      ],
      "name": "supportsInterface",
      "outputs": [
        {
          "internalType": "bool",
          "name": "",
          "type": "bool"
        }
      ],
      "stateMutability": "view",
      "type": "function"
    },
    {
      "inputs": [],
      "name": "getPropertyId",
      "outputs": [
        {
          "internalType": "uint256",
          "name": "",
          "type": "uint256"
        }
      ],
      "stateMutability": "view",
      "type": "function"
    },
    {
      "inputs": [
        {
          "internalType": "uint256",
          "name": "id",
          "type": "uint256"
        }
      ],
      "name": "totalSupply",
      "outputs": [
        {
          "internalType": "uint256",
          "name": "",
          "type": "uint256"
        }
      ],
      "stateMutability": "view",
      "type": "function"
    },
    {
      "inputs": [
        {
          "internalType": "uint256",
          "name": "id",
          "type": "uint256"
        }
      ],
      "name": "exists",
      "outputs": [
        {
          "internalType": "bool",
          "name": "",
          "type": "bool"
        }
      ],
      "stateMutability": "view",
      "type": "function"
    },
    {
      "inputs": [],
      "name": "version",
      "outputs": [
        {
          "internalType": "uint256",
          "name": "",
          "type": "uint256"
        }
      ],
      "stateMutability": "nonpayable",
      "type": "function"
    },
    {
      "inputs": [
        {
          "internalType": "uint256",
          "name": "id",
          "type": "uint256"
        },
        {
          "internalType": "bytes",
          "name": "data",
          "type": "bytes"
        },
        {
          "internalType": "uint256",
          "name": "price",
          "type": "uint256"
        }
      ],
      "name": "mintNFT",
      "outputs": [
        {
          "internalType": "uint256",
          "name": "",
          "type": "uint256"
        },
        {
          "internalType": "uint256",
          "name": "",
          "type": "uint256"
        }
      ],
      "stateMutability": "payable",
      "type": "function"
    },
    {
      "inputs": [
        {
          "internalType": "uint256[]",
          "name": "ids",
          "type": "uint256[]"
        },
        {
          "internalType": "uint256[]",
          "name": "amounts",
          "type": "uint256[]"
        },
        {
          "internalType": "bytes",
          "name": "data",
          "type": "bytes"
        },
        {
          "internalType": "uint256[]",
          "name": "prices",
          "type": "uint256[]"
        }
      ],
      "name": "mintBatchNFTs",
      "outputs": [
        {
          "internalType": "uint256[]",
          "name": "",
          "type": "uint256[]"
        },
        {
          "internalType": "uint256[]",
          "name": "",
          "type": "uint256[]"
        }
      ],
      "stateMutability": "payable",
      "type": "function"
    },
    {
      "inputs": [
        {
          "internalType": "address",
          "name": "from",
          "type": "address"
        },
        {
          "internalType": "uint256",
          "name": "id",
          "type": "uint256"
        },
        {
          "internalType": "uint256",
          "name": "amount",
          "type": "uint256"
        }
      ],
      "name": "burnNFT",
      "outputs": [],
      "stateMutability": "nonpayable",
      "type": "function"
    },
    {
      "inputs": [
        {
          "internalType": "address",
          "name": "from",
          "type": "address"
        },
        {
          "internalType": "uint256[]",
          "name": "ids",
          "type": "uint256[]"
        },
        {
          "internalType": "uint256[]",
          "name": "amounts",
          "type": "uint256[]"
        }
      ],
      "name": "burnBatchNFTs",
      "outputs": [],
      "stateMutability": "nonpayable",
      "type": "function"
    },
    {
      "inputs": [
        {
          "internalType": "address",
          "name": "to",
          "type": "address"
        },
        {
          "internalType": "uint256",
          "name": "id",
          "type": "uint256"
        },
        {
          "internalType": "uint256",
          "name": "amount",
          "type": "uint256"
        },
        {
          "internalType": "bytes",
          "name": "data",
          "type": "bytes"
        }
      ],
      "name": "transferNFT",
      "outputs": [],
      "stateMutability": "payable",
      "type": "function"
    },
    {
      "inputs": [
        {
          "internalType": "string",
          "name": "newuri",
          "type": "string"
        }
      ],
      "name": "setURI",
      "outputs": [],
      "stateMutability": "nonpayable",
      "type": "function"
    }
  ],
  "bytecode": "0x60a06040523060805234801561001457600080fd5b50608051613c6b61004560003960008181610d6f01528181610daf015281816110be01526110fe0152613c6b6000f3fe60806040526004361061025b5760003560e01c80637284e41611610144578063bc197c81116100b6578063e985e9c51161007a578063e985e9c5146106f6578063ee7a3b8e1461073f578063f23a6e6114610756578063f242432a14610782578063f72c0d8b146107a2578063f7b10808146107d657600080fd5b8063bc197c8114610621578063bd85b03914610666578063d11a57ec14610694578063d4f8115d146106b6578063d547741f146106d657600080fd5b80638052f5d3116101085780638052f5d31461059957806391d14854146105ae57806396f6b2fa146105ce578063a217fddf14610584578063a22cb465146105e1578063ad64d0681461060157600080fd5b80637284e4161461051d57806372f0cbef14610532578063744a32901461054757806375d0c0dc1461056f5780637ef838041461058457600080fd5b80632f2ff15d116101dd5780634e1273f4116101a15780634e1273f4146104635780634f1ef286146104905780634f558e79146104a357806354fd4d50146104d357806356f81044146104e857806359af55b91461050857600080fd5b80632f2ff15d146103cd57806333d9eeba146103ed57806336568abe146104035780633659cfe6146104235780633f2f5ee21461044357600080fd5b80630fad0d3a116102245780630fad0d3a146103335780631cc509fd14610348578063248a9ca3146103685780632d649491146103985780632eb2c2d6146103ad57600080fd5b8062fdd58e1461026057806301ffc9a71461029357806302fe5305146102c357806307869656146102e55780630e89341c14610306575b600080fd5b34801561026c57600080fd5b5061028061027b366004612d57565b610804565b6040519081526020015b60405180910390f35b34801561029f57600080fd5b506102b36102ae366004612d97565b61089d565b604051901515815260200161028a565b3480156102cf57600080fd5b506102e36102de366004612e69565b6108ae565b005b6102f86102f3366004612f39565b6108c7565b60405161028a929190613020565b34801561031257600080fd5b50610326610321366004613045565b610ae3565b60405161028a91906130b6565b34801561033f57600080fd5b50610280600381565b34801561035457600080fd5b506102e36103633660046130c9565b610b77565b34801561037457600080fd5b50610280610383366004613045565b600090815260fb602052604090206001015490565b3480156103a457600080fd5b50610280600481565b3480156103b957600080fd5b506102e36103c83660046130fc565b610c28565b3480156103d957600080fd5b506102e36103e83660046131a5565b610cbf565b3480156103f957600080fd5b5061019554610280565b34801561040f57600080fd5b506102e361041e3660046131a5565b610cea565b34801561042f57600080fd5b506102e361043e3660046131d1565b610d64565b34801561044f57600080fd5b506102e361045e3660046131ec565b610e2d565b34801561046f57600080fd5b5061048361047e366004613265565b610f8a565b60405161028a919061332f565b6102e361049e366004613342565b6110b3565b3480156104af57600080fd5b506102b36104be366004613045565b600090815261019d6020526040902054151590565b3480156104df57600080fd5b50610280611169565b3480156104f457600080fd5b506102e3610503366004613385565b611188565b34801561051457600080fd5b50610280600181565b34801561052957600080fd5b5061032661122b565b34801561053e57600080fd5b50610280600281565b61055a6105553660046133c9565b6112ba565b6040805192835260208301919091520161028a565b34801561057b57600080fd5b506103266113c6565b34801561059057600080fd5b50610280600081565b3480156105a557600080fd5b50610280600581565b3480156105ba57600080fd5b506102b36105c93660046131a5565b6113d4565b6102e36105dc366004613418565b6113ff565b3480156105ed57600080fd5b506102e36105fc36600461346c565b6114c7565b34801561060d57600080fd5b5061028061061c366004613045565b6114d2565b34801561062d57600080fd5b5061064d61063c3660046130fc565b63bc197c8160e01b95945050505050565b6040516001600160e01b0319909116815260200161028a565b34801561067257600080fd5b50610280610681366004613045565b600090815261019d602052604090205490565b3480156106a057600080fd5b50610280600080516020613c1683398151915281565b3480156106c257600080fd5b506102e36106d13660046134a8565b6114ea565b3480156106e257600080fd5b506102e36106f13660046131a5565b611539565b34801561070257600080fd5b506102b361071136600461351b565b6001600160a01b03918216600090815260666020908152604080832093909416825291909152205460ff1690565b34801561074b57600080fd5b506102806101955481565b34801561076257600080fd5b5061064d610771366004613545565b63f23a6e6160e01b95945050505050565b34801561078e57600080fd5b506102e361079d366004613545565b61155f565b3480156107ae57600080fd5b506102807f189ab7a9244df0848122154315af71fe140f3db0fe014031783b0946b8c9d2e381565b3480156107e257600080fd5b506107f66107f1366004613045565b6115e6565b60405161028a9291906135a9565b60006001600160a01b0383166108755760405162461bcd60e51b815260206004820152602b60248201527f455243313135353a2062616c616e636520717565727920666f7220746865207a60448201526a65726f206164647265737360a81b60648201526084015b60405180910390fd5b5060009081526065602090815260408083206001600160a01b03949094168352929052205490565b60006108a882611694565b92915050565b60006108ba81336116b9565b6108c38261171d565b5050565b606080600080516020613c168339815191526108e381336116b9565b835187511480156108f5575083518751145b6109575760405162461bcd60e51b815260206004820152602d60248201527f51756573743a206964732c20616d6f756e74732c202620707269636573206c6560448201526c0dccee8d040dad2e6dac2e8c6d609b1b606482015260840161086c565b86516000905b808211610a145761019c600061019554815260200190815260200160002060020160405180606001604052808b858151811061099b5761099b6135d3565b602002602001015181526020018885815181106109ba576109ba6135d3565b60209081029190910181015182524291810191909152825460018181018555600094855293829020835160039092020190815590820151928101929092556040015160029091015581610a0c816135ff565b92505061095d565b610a46898381518110610a2957610a296135d3565b6020026020010151600090815261019d6020526040902054151590565b158015610a6d57506005898381518110610a6257610a626135d3565b602002602001015111155b610ac85760405162461bcd60e51b815260206004820152602660248201527f51756573743a20746f6b656e206973206d696e746564206f72206f7574206f666044820152652072616e676560d01b606482015260840161086c565b610ad4308a8a8a611730565b50969793965092945050505050565b606060678054610af29061361a565b80601f0160208091040260200160405190810160405280929190818152602001828054610b1e9061361a565b8015610b6b5780601f10610b4057610100808354040283529160200191610b6b565b820191906000526020600020905b815481529060010190602001808311610b4e57829003601f168201915b50505050509050919050565b6000610b8381336116b9565b600083815261019d6020526040902054610bdf5760405162461bcd60e51b815260206004820152601960248201527f51756573743a204e465420646f6573206e6f7420657869737400000000000000604482015260640161086c565b6001600160a01b038416331480610bfb5750610bfb8433610711565b610c175760405162461bcd60e51b815260040161086c90613655565b610c2284848461188b565b50505050565b6001600160a01b038516331480610c445750610c448533610711565b610cab5760405162461bcd60e51b815260206004820152603260248201527f455243313135353a207472616e736665722063616c6c6572206973206e6f74206044820152711bdddb995c881b9bdc88185c1c1c9bdd995960721b606482015260840161086c565b610cb88585858585611990565b5050505050565b600082815260fb6020526040902060010154610cdb81336116b9565b610ce58383611b35565b505050565b6001600160a01b0381163314610d5a5760405162461bcd60e51b815260206004820152602f60248201527f416363657373436f6e74726f6c3a2063616e206f6e6c792072656e6f756e636560448201526e103937b632b9903337b91039b2b63360891b606482015260840161086c565b6108c38282611bbb565b306001600160a01b037f0000000000000000000000000000000000000000000000000000000000000000161415610dad5760405162461bcd60e51b815260040161086c9061369c565b7f00000000000000000000000000000000000000000000000000000000000000006001600160a01b0316610ddf611c22565b6001600160a01b031614610e055760405162461bcd60e51b815260040161086c906136e8565b610e0e81611c50565b60408051600080825260208201909252610e2a91839190611d29565b50565b600054610100900460ff1680610e46575060005460ff16155b610e625760405162461bcd60e51b815260040161086c90613734565b600054610100900460ff16158015610e84576000805461ffff19166101011790555b610e8d84611e6d565b610e95611ef2565b610e9d611f75565b610ea5611ef2565b610ead611f75565b610eb8600033611fd3565b610ed0600080516020613c1683398151915287611fd3565b610efa7f189ab7a9244df0848122154315af71fe140f3db0fe014031783b0946b8c9d2e386611fd3565b8251610f0e90610193906020860190612ca2565b508151610f2390610194906020850190612ca2565b50610f3361019180546001019055565b610191546101955560405160019061019e90610f50908790613782565b908152604051908190036020019020805491151560ff199092169190911790558015610f82576000805461ff00191690555b505050505050565b60608151835114610fef5760405162461bcd60e51b815260206004820152602960248201527f455243313135353a206163636f756e747320616e6420696473206c656e677468604482015268040dad2e6dac2e8c6d60bb1b606482015260840161086c565b600083516001600160401b0381111561100a5761100a612db4565b604051908082528060200260200182016040528015611033578160200160208202803683370190505b50905060005b84518110156110ab5761107e858281518110611057576110576135d3565b6020026020010151858381518110611071576110716135d3565b6020026020010151610804565b828281518110611090576110906135d3565b60209081029190910101526110a4816135ff565b9050611039565b509392505050565b306001600160a01b037f00000000000000000000000000000000000000000000000000000000000000001614156110fc5760405162461bcd60e51b815260040161086c9061369c565b7f00000000000000000000000000000000000000000000000000000000000000006001600160a01b031661112e611c22565b6001600160a01b0316146111545760405162461bcd60e51b815260040161086c906136e8565b61115d82611c50565b6108c382826001611d29565b600061117a61019280546001019055565b506101925461019681905590565b600061119481336116b9565b61019554600090815261019c6020908152604090912084516111b892860190612ca2565b506101958054600090815261019c60205260409081902060010180546001600160a01b0319166001600160a01b038616179055905490517fe7728328277361a76a29cdcb4681be86dbbf1934457953cc0e4151f56a8112449161121e918590879061379e565b60405180910390a1505050565b61019480546112399061361a565b80601f01602080910402602001604051908101604052809291908181526020018280546112659061361a565b80156112b25780601f10611287576101008083540402835291602001916112b2565b820191906000526020600020905b81548152906001019060200180831161129557829003601f168201915b505050505081565b600080600080516020613c168339815191526112d681336116b9565b600086815261019d60205260409020541580156112f4575060058611155b6113545760405162461bcd60e51b815260206004820152602b60248201527f51756573743a20746f6b656e20616c7265616479206d696e746564206f72206f60448201526a7574206f662072616e676560a81b606482015260840161086c565b6113613087600188611fdd565b505061019554600090815261019c60209081526040808320815160608101835288815280840187815242938201938452600292830180546001808201835591885295909620915160039095029091019384555193830193909355519101555091929050565b61019380546112399061361a565b600091825260fb602090815260408084206001600160a01b0393909316845291905290205460ff1690565b600061140b81336116b9565b826114163086610804565b10156114645760405162461bcd60e51b815260206004820152601d60248201527f51756573743a2062616c616e6365206973206e6f7420656e6f75676874000000604482015260640161086c565b6001600160a01b0385166114ba5760405162461bcd60e51b815260206004820152601f60248201527f51756573743a207472616e7366657220746f207a65726f206164647265737300604482015260640161086c565b610cb8308686868661155f565b6108c33383836120b5565b61019781600581106114e357600080fd5b0154905081565b60006114f681336116b9565b6001600160a01b03841633148061151257506115128433610711565b61152e5760405162461bcd60e51b815260040161086c90613655565b610c22848484612196565b600082815260fb602052604090206001015461155581336116b9565b610ce58383611bbb565b6001600160a01b03851633148061157b575061157b8533610711565b6115d95760405162461bcd60e51b815260206004820152602960248201527f455243313135353a2063616c6c6572206973206e6f74206f776e6572206e6f7260448201526808185c1c1c9bdd995960ba1b606482015260840161086c565b610cb88585858585612327565b61019c602052600090815260409020805481906116029061361a565b80601f016020809104026020016040519081016040528092919081815260200182805461162e9061361a565b801561167b5780601f106116505761010080835404028352916020019161167b565b820191906000526020600020905b81548152906001019060200180831161165e57829003601f168201915b505050600190930154919250506001600160a01b031682565b60006001600160e01b03198216637965db0b60e01b14806108a857506108a882612448565b6116c382826113d4565b6108c3576116db816001600160a01b0316601461246d565b6116e683602061246d565b6040516020016116f79291906137c8565b60408051601f198184030181529082905262461bcd60e51b825261086c916004016130b6565b80516108c3906067906020840190612ca2565b6001600160a01b0384166117565760405162461bcd60e51b815260040161086c9061383d565b81518351146117775760405162461bcd60e51b815260040161086c9061387e565b336117878160008787878761260f565b60005b8451811015611823578381815181106117a5576117a56135d3565b6020026020010151606560008784815181106117c3576117c36135d3565b602002602001015181526020019081526020016000206000886001600160a01b03166001600160a01b03168152602001908152602001600020600082825461180b91906138c6565b9091555081905061181b816135ff565b91505061178a565b50846001600160a01b031660006001600160a01b0316826001600160a01b03167f4a39dc06d4c0dbc64b70af90fd698a233a518aa5d07e595d983b8c0526c8f7fb8787604051611874929190613020565b60405180910390a4610cb88160008787878761271d565b6001600160a01b0383166118b15760405162461bcd60e51b815260040161086c906138de565b336118e0818560006118c287612879565b6118cb87612879565b6040518060200160405280600081525061260f565b60008381526065602090815260408083206001600160a01b0388168452909152902054828110156119235760405162461bcd60e51b815260040161086c90613921565b60008481526065602090815260408083206001600160a01b03898116808652918452828520888703905582518981529384018890529092908616917fc3d58168c5ae7397731d063d5bbf3d657854427343f4c083240f7aacaa2d0f62910160405180910390a45050505050565b81518351146119b15760405162461bcd60e51b815260040161086c9061387e565b6001600160a01b0384166119d75760405162461bcd60e51b815260040161086c90613965565b336119e681878787878761260f565b60005b8451811015611acf576000858281518110611a0657611a066135d3565b602002602001015190506000858381518110611a2457611a246135d3565b60209081029190910181015160008481526065835260408082206001600160a01b038e168352909352919091205490915081811015611a755760405162461bcd60e51b815260040161086c906139aa565b60008381526065602090815260408083206001600160a01b038e8116855292528083208585039055908b16825281208054849290611ab49084906138c6565b9250508190555050505080611ac8906135ff565b90506119e9565b50846001600160a01b0316866001600160a01b0316826001600160a01b03167f4a39dc06d4c0dbc64b70af90fd698a233a518aa5d07e595d983b8c0526c8f7fb8787604051611b1f929190613020565b60405180910390a4610f8281878787878761271d565b611b3f82826113d4565b6108c357600082815260fb602090815260408083206001600160a01b03851684529091529020805460ff19166001179055611b773390565b6001600160a01b0316816001600160a01b0316837f2f8788117e7eff1d82e926ec794901d17c78024a50270940304540a733656f0d60405160405180910390a45050565b611bc582826113d4565b156108c357600082815260fb602090815260408083206001600160a01b0385168085529252808320805460ff1916905551339285917ff6391f5c32d9c69d2a47ea670b442974b53935d1edc7fd64eb21e047a839171b9190a45050565b7f360894a13ba1a3210667c828492db98dca3e2076cc3735a920a3ca505d382bbc546001600160a01b031690565b611c7a7f189ab7a9244df0848122154315af71fe140f3db0fe014031783b0946b8c9d2e3336113d4565b611cc65760405162461bcd60e51b815260206004820152601960248201527f51756573743a2055504752414445525f524f4c45206f6e6c7900000000000000604482015260640161086c565b803b610e2a5760405162461bcd60e51b815260206004820152602c60248201527f51756573743a206e657720496d706c656d656e746174696f6e206d757374206260448201526b1948184818dbdb9d1c9858dd60a21b606482015260840161086c565b6000611d33611c22565b9050611d3e846128c4565b600083511180611d4b5750815b15611d5c57611d5a8484612969565b505b7f4910fdfa16fed3260ed0e7147f7cc6da11a60208b5b9406d12a635614ffd9143805460ff16610cb857805460ff191660011781556040516001600160a01b0383166024820152611ddb90869060440160408051601f198184030181529190526020810180516001600160e01b0316631b2ce7f360e11b179052612969565b50805460ff19168155611dec611c22565b6001600160a01b0316826001600160a01b031614611e645760405162461bcd60e51b815260206004820152602f60248201527f45524331393637557067726164653a207570677261646520627265616b73206660448201526e75727468657220757067726164657360881b606482015260840161086c565b610cb885612a54565b600054610100900460ff1680611e86575060005460ff16155b611ea25760405162461bcd60e51b815260040161086c90613734565b600054610100900460ff16158015611ec4576000805461ffff19166101011790555b611ecc612a94565b611ed4612a94565b611edd82612afe565b80156108c3576000805461ff00191690555050565b600054610100900460ff1680611f0b575060005460ff16155b611f275760405162461bcd60e51b815260040161086c90613734565b600054610100900460ff16158015611f49576000805461ffff19166101011790555b611f51612a94565b611f59612a94565b611f61612a94565b8015610e2a576000805461ff001916905550565b600054610100900460ff1680611f8e575060005460ff16155b611faa5760405162461bcd60e51b815260040161086c90613734565b600054610100900460ff16158015611f51576000805461ffff1916610101179055611f59612a94565b6108c38282611b35565b6001600160a01b0384166120035760405162461bcd60e51b815260040161086c9061383d565b336120238160008761201488612879565b61201d88612879565b8761260f565b60008481526065602090815260408083206001600160a01b0389168452909152812080548592906120559084906138c6565b909155505060408051858152602081018590526001600160a01b0380881692600092918516917fc3d58168c5ae7397731d063d5bbf3d657854427343f4c083240f7aacaa2d0f62910160405180910390a4610cb881600087878787612b5e565b816001600160a01b0316836001600160a01b031614156121295760405162461bcd60e51b815260206004820152602960248201527f455243313135353a2073657474696e6720617070726f76616c20737461747573604482015268103337b91039b2b63360b91b606482015260840161086c565b6001600160a01b03838116600081815260666020908152604080832094871680845294825291829020805460ff191686151590811790915591519182527f17307eab39ab6107e8899845ad3d59bd9653f200f220920489ca2b5937696c31910160405180910390a3505050565b6001600160a01b0383166121bc5760405162461bcd60e51b815260040161086c906138de565b80518251146121dd5760405162461bcd60e51b815260040161086c9061387e565b60003390506122008185600086866040518060200160405280600081525061260f565b60005b83518110156122c8576000848281518110612220576122206135d3565b60200260200101519050600084838151811061223e5761223e6135d3565b60209081029190910181015160008481526065835260408082206001600160a01b038c16835290935291909120549091508181101561228f5760405162461bcd60e51b815260040161086c90613921565b60009283526065602090815260408085206001600160a01b038b16865290915290922091039055806122c0816135ff565b915050612203565b5060006001600160a01b0316846001600160a01b0316826001600160a01b03167f4a39dc06d4c0dbc64b70af90fd698a233a518aa5d07e595d983b8c0526c8f7fb8686604051612319929190613020565b60405180910390a450505050565b6001600160a01b03841661234d5760405162461bcd60e51b815260040161086c90613965565b3361235d81878761201488612879565b60008481526065602090815260408083206001600160a01b038a168452909152902054838110156123a05760405162461bcd60e51b815260040161086c906139aa565b60008581526065602090815260408083206001600160a01b038b81168552925280832087850390559088168252812080548692906123df9084906138c6565b909155505060408051868152602081018690526001600160a01b03808916928a821692918616917fc3d58168c5ae7397731d063d5bbf3d657854427343f4c083240f7aacaa2d0f62910160405180910390a461243f828888888888612b5e565b50505050505050565b60006001600160e01b03198216630271189760e51b14806108a857506108a882612c19565b6060600061247c8360026139f4565b6124879060026138c6565b6001600160401b0381111561249e5761249e612db4565b6040519080825280601f01601f1916602001820160405280156124c8576020820181803683370190505b509050600360fc1b816000815181106124e3576124e36135d3565b60200101906001600160f81b031916908160001a905350600f60fb1b81600181518110612512576125126135d3565b60200101906001600160f81b031916908160001a90535060006125368460026139f4565b6125419060016138c6565b90505b60018111156125b9576f181899199a1a9b1b9c1cb0b131b232b360811b85600f1660108110612575576125756135d3565b1a60f81b82828151811061258b5761258b6135d3565b60200101906001600160f81b031916908160001a90535060049490941c936125b281613a13565b9050612544565b5083156126085760405162461bcd60e51b815260206004820181905260248201527f537472696e67733a20686578206c656e67746820696e73756666696369656e74604482015260640161086c565b9392505050565b6001600160a01b0385166126975760005b83518110156126955782818151811061263b5761263b6135d3565b602002602001015161019d600086848151811061265a5761265a6135d3565b60200260200101518152602001908152602001600020600082825461267f91906138c6565b9091555061268e9050816135ff565b9050612620565b505b6001600160a01b038416610f825760005b835181101561243f578281815181106126c3576126c36135d3565b602002602001015161019d60008684815181106126e2576126e26135d3565b6020026020010151815260200190815260200160002060008282546127079190613a2a565b909155506127169050816135ff565b90506126a8565b6001600160a01b0384163b15610f825760405163bc197c8160e01b81526001600160a01b0385169063bc197c81906127619089908990889088908890600401613a41565b6020604051808303816000875af192505050801561279c575060408051601f3d908101601f1916820190925261279991810190613a9f565b60015b612849576127a8613abc565b806308c379a014156127e257506127bd613ad8565b806127c857506127e4565b8060405162461bcd60e51b815260040161086c91906130b6565b505b60405162461bcd60e51b815260206004820152603460248201527f455243313135353a207472616e7366657220746f206e6f6e20455243313135356044820152732932b1b2b4bb32b91034b6b83632b6b2b73a32b960611b606482015260840161086c565b6001600160e01b0319811663bc197c8160e01b1461243f5760405162461bcd60e51b815260040161086c90613b61565b604080516001808252818301909252606091600091906020808301908036833701905050905082816000815181106128b3576128b36135d3565b602090810291909101015292915050565b803b6129285760405162461bcd60e51b815260206004820152602d60248201527f455243313936373a206e657720696d706c656d656e746174696f6e206973206e60448201526c1bdd08184818dbdb9d1c9858dd609a1b606482015260840161086c565b7f360894a13ba1a3210667c828492db98dca3e2076cc3735a920a3ca505d382bbc80546001600160a01b0319166001600160a01b0392909216919091179055565b6060823b6129c85760405162461bcd60e51b815260206004820152602660248201527f416464726573733a2064656c65676174652063616c6c20746f206e6f6e2d636f6044820152651b9d1c9858dd60d21b606482015260840161086c565b600080846001600160a01b0316846040516129e39190613782565b600060405180830381855af49150503d8060008114612a1e576040519150601f19603f3d011682016040523d82523d6000602084013e612a23565b606091505b5091509150612a4b8282604051806060016040528060278152602001613bef60279139612c69565b95945050505050565b612a5d816128c4565b6040516001600160a01b038216907fbc7cd75a20ee27fd9adebab32041f755214dbc6bffa90cc0225b39da2e5c2d3b90600090a250565b600054610100900460ff1680612aad575060005460ff16155b612ac95760405162461bcd60e51b815260040161086c90613734565b600054610100900460ff16158015611f61576000805461ffff19166101011790558015610e2a576000805461ff001916905550565b600054610100900460ff1680612b17575060005460ff16155b612b335760405162461bcd60e51b815260040161086c90613734565b600054610100900460ff16158015612b55576000805461ffff19166101011790555b611edd8261171d565b6001600160a01b0384163b15610f825760405163f23a6e6160e01b81526001600160a01b0385169063f23a6e6190612ba29089908990889088908890600401613ba9565b6020604051808303816000875af1925050508015612bdd575060408051601f3d908101601f19168201909252612bda91810190613a9f565b60015b612be9576127a8613abc565b6001600160e01b0319811663f23a6e6160e01b1461243f5760405162461bcd60e51b815260040161086c90613b61565b60006001600160e01b03198216636cdb3d1360e11b1480612c4a57506001600160e01b031982166303a24d0760e21b145b806108a857506301ffc9a760e01b6001600160e01b03198316146108a8565b60608315612c78575081612608565b825115612c885782518084602001fd5b8160405162461bcd60e51b815260040161086c91906130b6565b828054612cae9061361a565b90600052602060002090601f016020900481019282612cd05760008555612d16565b82601f10612ce957805160ff1916838001178555612d16565b82800160010185558215612d16579182015b82811115612d16578251825591602001919060010190612cfb565b50612d22929150612d26565b5090565b5b80821115612d225760008155600101612d27565b80356001600160a01b0381168114612d5257600080fd5b919050565b60008060408385031215612d6a57600080fd5b612d7383612d3b565b946020939093013593505050565b6001600160e01b031981168114610e2a57600080fd5b600060208284031215612da957600080fd5b813561260881612d81565b634e487b7160e01b600052604160045260246000fd5b601f8201601f191681016001600160401b0381118282101715612def57612def612db4565b6040525050565b600082601f830112612e0757600080fd5b81356001600160401b03811115612e2057612e20612db4565b604051612e37601f8301601f191660200182612dca565b818152846020838601011115612e4c57600080fd5b816020850160208301376000918101602001919091529392505050565b600060208284031215612e7b57600080fd5b81356001600160401b03811115612e9157600080fd5b612e9d84828501612df6565b949350505050565b60006001600160401b03821115612ebe57612ebe612db4565b5060051b60200190565b600082601f830112612ed957600080fd5b81356020612ee682612ea5565b604051612ef38282612dca565b83815260059390931b8501820192828101915086841115612f1357600080fd5b8286015b84811015612f2e5780358352918301918301612f17565b509695505050505050565b60008060008060808587031215612f4f57600080fd5b84356001600160401b0380821115612f6657600080fd5b612f7288838901612ec8565b95506020870135915080821115612f8857600080fd5b612f9488838901612ec8565b94506040870135915080821115612faa57600080fd5b612fb688838901612df6565b93506060870135915080821115612fcc57600080fd5b50612fd987828801612ec8565b91505092959194509250565b600081518084526020808501945080840160005b8381101561301557815187529582019590820190600101612ff9565b509495945050505050565b6040815260006130336040830185612fe5565b8281036020840152612a4b8185612fe5565b60006020828403121561305757600080fd5b5035919050565b60005b83811015613079578181015183820152602001613061565b83811115610c225750506000910152565b600081518084526130a281602086016020860161305e565b601f01601f19169290920160200192915050565b602081526000612608602083018461308a565b6000806000606084860312156130de57600080fd5b6130e784612d3b565b95602085013595506040909401359392505050565b600080600080600060a0868803121561311457600080fd5b61311d86612d3b565b945061312b60208701612d3b565b935060408601356001600160401b038082111561314757600080fd5b61315389838a01612ec8565b9450606088013591508082111561316957600080fd5b61317589838a01612ec8565b9350608088013591508082111561318b57600080fd5b5061319888828901612df6565b9150509295509295909350565b600080604083850312156131b857600080fd5b823591506131c860208401612d3b565b90509250929050565b6000602082840312156131e357600080fd5b61260882612d3b565b600080600080600060a0868803121561320457600080fd5b61320d86612d3b565b945061321b60208701612d3b565b935060408601356001600160401b038082111561323757600080fd5b61324389838a01612df6565b9450606088013591508082111561325957600080fd5b61317589838a01612df6565b6000806040838503121561327857600080fd5b82356001600160401b038082111561328f57600080fd5b818501915085601f8301126132a357600080fd5b813560206132b082612ea5565b6040516132bd8282612dca565b83815260059390931b85018201928281019150898411156132dd57600080fd5b948201945b83861015613302576132f386612d3b565b825294820194908201906132e2565b9650508601359250508082111561331857600080fd5b5061332585828601612ec8565b9150509250929050565b6020815260006126086020830184612fe5565b6000806040838503121561335557600080fd5b61335e83612d3b565b915060208301356001600160401b0381111561337957600080fd5b61332585828601612df6565b6000806040838503121561339857600080fd5b82356001600160401b038111156133ae57600080fd5b6133ba85828601612df6565b9250506131c860208401612d3b565b6000806000606084860312156133de57600080fd5b8335925060208401356001600160401b038111156133fb57600080fd5b61340786828701612df6565b925050604084013590509250925092565b6000806000806080858703121561342e57600080fd5b61343785612d3b565b9350602085013592506040850135915060608501356001600160401b0381111561346057600080fd5b612fd987828801612df6565b6000806040838503121561347f57600080fd5b61348883612d3b565b91506020830135801515811461349d57600080fd5b809150509250929050565b6000806000606084860312156134bd57600080fd5b6134c684612d3b565b925060208401356001600160401b03808211156134e257600080fd5b6134ee87838801612ec8565b9350604086013591508082111561350457600080fd5b5061351186828701612ec8565b9150509250925092565b6000806040838503121561352e57600080fd5b61353783612d3b565b91506131c860208401612d3b565b600080600080600060a0868803121561355d57600080fd5b61356686612d3b565b945061357460208701612d3b565b9350604086013592506060860135915060808601356001600160401b0381111561359d57600080fd5b61319888828901612df6565b6040815260006135bc604083018561308a565b905060018060a01b03831660208301529392505050565b634e487b7160e01b600052603260045260246000fd5b634e487b7160e01b600052601160045260246000fd5b6000600019821415613613576136136135e9565b5060010190565b600181811c9082168061362e57607f821691505b6020821081141561364f57634e487b7160e01b600052602260045260246000fd5b50919050565b60208082526027908201527f51756573743a2063616c6c6572206973206e6f74206f776e6572206e6f7220616040820152661c1c1c9bdd995960ca1b606082015260800190565b6020808252602c908201527f46756e6374696f6e206d7573742062652063616c6c6564207468726f7567682060408201526b19195b1959d85d1958d85b1b60a21b606082015260800190565b6020808252602c908201527f46756e6374696f6e206d7573742062652063616c6c6564207468726f7567682060408201526b6163746976652070726f787960a01b606082015260800190565b6020808252602e908201527f496e697469616c697a61626c653a20636f6e747261637420697320616c72656160408201526d191e481a5b9a5d1a585b1a5e995960921b606082015260800190565b6000825161379481846020870161305e565b9190910192915050565b8381526001600160a01b0383166020820152606060408201819052600090612a4b9083018461308a565b7f416363657373436f6e74726f6c3a206163636f756e742000000000000000000081526000835161380081601785016020880161305e565b7001034b99036b4b9b9b4b733903937b6329607d1b601791840191820152835161383181602884016020880161305e565b01602801949350505050565b60208082526021908201527f455243313135353a206d696e7420746f20746865207a65726f206164647265736040820152607360f81b606082015260800190565b60208082526028908201527f455243313135353a2069647320616e6420616d6f756e7473206c656e677468206040820152670dad2e6dac2e8c6d60c31b606082015260800190565b600082198211156138d9576138d96135e9565b500190565b60208082526023908201527f455243313135353a206275726e2066726f6d20746865207a65726f206164647260408201526265737360e81b606082015260800190565b60208082526024908201527f455243313135353a206275726e20616d6f756e7420657863656564732062616c604082015263616e636560e01b606082015260800190565b60208082526025908201527f455243313135353a207472616e7366657220746f20746865207a65726f206164604082015264647265737360d81b606082015260800190565b6020808252602a908201527f455243313135353a20696e73756666696369656e742062616c616e636520666f60408201526939103a3930b739b332b960b11b606082015260800190565b6000816000190483118215151615613a0e57613a0e6135e9565b500290565b600081613a2257613a226135e9565b506000190190565b600082821015613a3c57613a3c6135e9565b500390565b6001600160a01b0386811682528516602082015260a060408201819052600090613a6d90830186612fe5565b8281036060840152613a7f8186612fe5565b90508281036080840152613a93818561308a565b98975050505050505050565b600060208284031215613ab157600080fd5b815161260881612d81565b600060033d1115613ad55760046000803e5060005160e01c5b90565b600060443d1015613ae65790565b6040516003193d81016004833e81513d6001600160401b038160248401118184111715613b1557505050505090565b8285019150815181811115613b2d5750505050505090565b843d8701016020828501011115613b475750505050505090565b613b5660208286010187612dca565b509095945050505050565b60208082526028908201527f455243313135353a204552433131353552656365697665722072656a656374656040820152676420746f6b656e7360c01b606082015260800190565b6001600160a01b03868116825285166020820152604081018490526060810183905260a060808201819052600090613be39083018461308a565b97965050505050505056fe416464726573733a206c6f772d6c6576656c2064656c65676174652063616c6c206661696c6564e1dcbdb91df27212a29bc27177c840cf2f819ecf2187432e1fac86c2dd5dfca9a2646970667358221220fb25d5ed2b6da3f7632b674524656ebf8071e3c8ed35a40cd587030c3f773d9064736f6c634300080a0033",
  "immutableReferences": {
    "1023": [
      {
        "length": 32,
        "start": 3439
      },
      {
        "length": 32,
        "start": 3503
      },
      {
        "length": 32,
        "start": 4286
      },
      {
        "length": 32,
        "start": 4350
      }
    ]
  },
  "source": "// SPDX-License-Identifier: MIT\npragma solidity ^0.8.10;\n\nimport \"@openzeppelin/contracts-upgradeable/proxy/utils/Initializable.sol\";\nimport \"@openzeppelin/contracts-upgradeable/token/ERC1155/ERC1155Upgradeable.sol\";\nimport \"@openzeppelin/contracts-upgradeable/access/AccessControlUpgradeable.sol\";\nimport \"@openzeppelin/contracts-upgradeable/token/ERC1155/utils/ERC1155HolderUpgradeable.sol\";\nimport \"@openzeppelin/contracts-upgradeable/utils/AddressUpgradeable.sol\";\nimport \"@openzeppelin/contracts-upgradeable/proxy/utils/UUPSUpgradeable.sol\";\nimport \"@openzeppelin/contracts-upgradeable/utils/CountersUpgradeable.sol\";\n\n/**\n *@title Quest Properties\n *@author Strategic Quest Crypto\n *@dev This contract is based on data contract design pattern, where business logic contract\n * is separated from data contract to enable upgradeability of QuestProperties using UUPS.\n *\n * Strategic Quest web/dapp is semi-decentralized, where all required property & owner infos\n * is collected by JavaScript in FE, then processed internally into our smart contracts.\n * noting that property is only represented by one owner.\n *\n * Strategic Quest stores encrypted data of the property to blockchain using IPFS.\n *\n * AccessControlUpgradeable contract is inherited to segregate duties of each Role\n * ERC1155HolderUpgradeable contract is inherited to allow QuestProperties contract to hold NFTs\n * UUPSUpgradeable contract is the proxy used to upgrade QuestProperties contract\n */\n\ncontract QuestProperties is\n    Initializable,\n    ERC1155Upgradeable,\n    ERC1155HolderUpgradeable,\n    AccessControlUpgradeable,\n    UUPSUpgradeable\n{\n    using CountersUpgradeable for CountersUpgradeable.Counter;\n    CountersUpgradeable.Counter propertyIds;\n    CountersUpgradeable.Counter verisons;\n\n    bytes32 public constant UPGRADER_ROLE = keccak256(\"UPGRADER_ROLE\");\n    bytes32 public constant TREASURY_ROLE = keccak256(\"TREASURY_ROLE\");\n\n    string public contractName;\n    string public description;\n    uint256 public propertyId;\n    uint256 private currentVersion;\n\n    //Token data structure\n    struct Token {\n        uint256 id;\n        uint256 price;\n        uint256 timeStamp;\n    }\n\n    //Snapshot of property details\n    struct Property {\n        bytes parentHash;\n        address propAddress;\n        Token[] tokens;\n    }\n\n    //Array of only 6 tokens that are available to mint\n    uint256[5] public availableTokens;\n\n    //Granting propertyId to each property\n    mapping(uint256 => Property) public properties;\n\n    //Tracking each token id supply\n    mapping(uint256 => uint256) private _totalSupply;\n\n    //Ensure property is deployed only once.\n    mapping(string => bool) private propertyExists;\n\n    event PropertyAdded(uint256 propertyId, address property, bytes MerkleTree);\n\n    //List of available tokens ids & their crossponding names\n    uint256 public constant TITLE = 0;\n    uint256 public constant GOVERNANCE_RIGHT = 1;\n    uint256 public constant EQUITY_RIGHT = 2;\n    uint256 public constant POSSESSION_RIGHT = 3;\n    uint256 public constant RENT_RIGHT = 4;\n    uint256 public constant MGMT_RIGHT = 5;\n\n    /**\n     *@param treasury address, responsible for minting tokens\n     *@param upgrader address, responsible for upgrading to next version\n     *@param uri string, is json that represent the  physical property\"https://game.example/api/item/{id}.json\"\n     *@param _contractName string, unique name given to each property\n     *@param _description string, unique description that consist of tax id & other parameters.\n     *\n     *@dev DEFAULT_ADMIN_ROLE is HOA, it is the admin role for all roles, which means that only\n     * accounts with this role will be able to grant or revoke other roles & also it's own admin.\n     */\n    function initialize(\n        address treasury,\n        address upgrader,\n        string memory uri,\n        string memory _contractName,\n        string memory _description\n        ) external \n        virtual \n        initializer {\n        __ERC1155_init(uri);\n        __AccessControl_init();\n        __ERC1155Receiver_init();\n        __ERC1155Holder_init();\n        __UUPSUpgradeable_init();\n\n        _setupRole(DEFAULT_ADMIN_ROLE, msg.sender);\n        _setupRole(TREASURY_ROLE, treasury);\n        _setupRole(UPGRADER_ROLE, upgrader);\n\n        contractName = _contractName;\n        description = _description;\n\n        propertyIds.increment();\n        propertyId = propertyIds.current();\n\n        propertyExists[uri] = true;\n    }\n\n    /** \n     *@param _parentHash bytes, ipfs generated hash for baseURI\n     *@param _propAddress address, physical property owner wallet address \n     * \n     *@dev Only accessable by HOA, who is responsible to gather & verify \n     * property info from JavaScript.\n     *\n     * Emits an event each time a new property is added to the blockchain\n     */\n    function approvedProperty(bytes memory _parentHash, address _propAddress)\n        external\n        virtual\n        onlyRole(DEFAULT_ADMIN_ROLE)\n    {\n        properties[propertyId].parentHash = _parentHash;\n        properties[propertyId].propAddress = _propAddress;\n\n        emit PropertyAdded(propertyId, _propAddress, _parentHash);\n    }\n\n    //@Arhan: cooperate with FE to support Interfaces\n    function supportsInterface(bytes4 interfaceId)\n        public\n        view\n        override(\n            ERC1155Upgradeable,\n            AccessControlUpgradeable,\n            ERC1155ReceiverUpgradeable\n        )\n        returns (bool)\n    {\n        return super.supportsInterface(interfaceId);\n    }\n\n    //Getter function to get property id\n    function getPropertyId() public view returns (uint256) {\n        return propertyId;\n    }\n\n    //To get total supply of each token id\n    function totalSupply(uint256 id) public view returns (uint256) {\n        return _totalSupply[id];\n    }\n\n    //Returns total supply of each token id if token id exists\n    function exists(uint256 id) public view virtual returns (bool) {\n        return QuestProperties.totalSupply(id) > 0;\n    }\n\n    //Increment the version number in case of upgrading only\n    function version() public virtual returns (uint256) {\n        verisons.increment();\n        currentVersion = verisons.current();\n\n        return currentVersion;\n    }\n\n    /**\n     *@param id uint, token id\n     *@param data bytes, ipfs generated hash of token id\n     *@param price uint, token price in USDC/Quest Coin\n     *\n     *Requirements:\n     *\n     * - TREASURY_ROLE\n     * -id: has not been minted before & within the 5 prelisted tokens\n     * \n     *@dev minted tokens are held by QuestProperties contract.\n     */\n    function mintNFT(\n        uint256 id,\n        bytes memory data,\n        uint256 price\n    )\n        external\n        payable\n        virtual\n        onlyRole(TREASURY_ROLE)\n        returns (uint256, uint256)\n    {\n        require(\n            !exists(id) && id <= availableTokens.length,\n            \"Quest: token already minted or out of range\"\n        );\n        //waiting for John's list of rights with zero value\n        _mint(address(this), id, 1, data);\n\n        properties[propertyId].tokens.push(\n            Token({id: id, price: price, timeStamp: block.timestamp})\n        );\n\n        return (id, price);\n    }\n\n    /**\n     *@param ids uint, token ids\n     *@param amounts uint. amounts of token ids to mint\n     *@param data bytes, ipfs generated hash \n     *@param prices uint, tokens' prices in USDC/Quest Coin\n     *\n     *Requirements:\n     *\n     * -TREASURY_ROLE\n     * -tokens ids, amounts, & prices have the same length\n     * -tokens ids have not minted before and within the prespecified range.\n     *\n     *@dev minted tokens are minted to this contract \n     */\n    function mintBatchNFTs(\n        uint256[] memory ids,\n        uint256[] memory amounts,\n        bytes memory data,\n        uint256[] memory prices\n    )\n        external\n        payable\n        virtual\n        onlyRole(TREASURY_ROLE)\n        returns (uint256[] memory, uint256[] memory)\n    {\n        require(\n            ids.length == prices.length && ids.length == prices.length,\n            \"Quest: ids, amounts, & prices length mismatch\"\n        );\n\n        uint256 j = 0;\n        uint256 len = ids.length;\n        for (j = 0; j <= len; j++) {\n\n            properties[propertyId].tokens.push(Token({id:ids[j], price:prices[j], timeStamp: block.timestamp}));\n        }\n\n        require(!exists(ids[j]) && ids[j] <= availableTokens.length, \"Quest: token is minted or out of range\");\n      \n        _mintBatch(address(this), ids, amounts, data);\n\n        return (ids, prices);\n    }\n\n    /**\n     *@dev Burn token `id` with amount `amount` from `from`\n     *\n     *Requirements: \n     * - Only DEFAULT_ADMIN_ROLE which is msg.sender\n     * - caller is the owner or approved operator\n     * - token id exists, have been minted before\n     */\n    function burnNFT(address from, uint256 id, uint256 amount) external virtual onlyRole(DEFAULT_ADMIN_ROLE) {\n        require(exists(id), \"Quest: NFT does not exist\");\n        require(\n            from == _msgSender() || isApprovedForAll(from, _msgSender()),\n            \"Quest: caller is not owner nor approved\"\n        );\n        _burn(from, id, amount);\n    }\n\n    /**\n     *@dev Burn Btach of token `ids` from `from` of amounts `amounts`\n     *\n     * Requirements: \n     * - Only DEFAULT_ADMIN_ROLE which is msg.sender\n     * - caller is the owner of approved operator\n     */\n    function burnBatchNFTs(address from, uint256[] memory ids, uint256[] memory amounts) external virtual onlyRole(DEFAULT_ADMIN_ROLE) {\n        require(\n            from == _msgSender() || isApprovedForAll(from, _msgSender()),\n            \"Quest: caller is not owner nor approved\"\n        );\n        _burnBatch(from, ids, amounts);\n    }\n\n    /**\n     *@dev Transfers minted tokens and held by this contract to EOA or another contract\n     *\n     *Requirements:\n     * - Only DEFAULT_ADMIN_ROLE\n     * - This contract's balance of token id must be equal to or more than amount\n     * - transfer to shouldn't be to zero address\n     * - caller must be owner or approved operator to `safeTransferFrom`\n     */\n    function transferNFT(\n        address to,\n        uint256 id,\n        uint256 amount,\n        bytes memory data\n    ) external payable onlyRole(DEFAULT_ADMIN_ROLE) {\n        require(balanceOf(address(this), id) >= amount, 'Quest: balance is not enought');\n        require(to != address(0), \"Quest: transfer to zero address\");\n        safeTransferFrom(address(this), to, id, amount, data);\n    }\n\n    /**\n     *@dev  Sets a new URI for all token types, by relying on the token type ID\n     * substitution mechanism\n     * https://eips.ethereum.org/EIPS/eip-1155#metadata[defined in the EIP].\n     *\n     *Because these URIs cannot be meaningfully represented by the {URI} event,\n     * this function emits no events.\n     *\n     *Requirements:\n     * - Only DEFAULT_ADMIN_ROLE\n     */\n    function setURI(string memory newuri) external onlyRole(DEFAULT_ADMIN_ROLE) {\n        _setURI(newuri);\n    }\n\n    /**\n     *@dev Defining upgradeTo function in UUPS \n     * see: https://github.com/OpenZeppelin/openzeppelin-contracts-upgradeable/blob/master/contracts/proxy/utils/UUPSUpgradeable.sol\n     * \n     *Requirements:\n     * - only UPGRADER_ROLE\n     * - new Implemetation is a contract\n     */\n    function _authorizeUpgrade(address newImplementation) internal virtual override {\n        require(hasRole(UPGRADER_ROLE, msg.sender), \"Quest: UPGRADER_ROLE only\");\n        require(\n            AddressUpgradeable.isContract(newImplementation),\n            \"Quest: new Implementation must be a contract\"\n        );\n    }\n\n    //Increase supply in case of minting and decrease it in case of burning\n    function _beforeTokenTransfer(\n        address operator,\n        address from,\n        address to,\n        uint256[] memory ids,\n        uint256[] memory amounts,\n        bytes memory data\n    ) internal virtual override {\n        super._beforeTokenTransfer(operator, from, to, ids, amounts, data);\n\n        if (from == address(0)) {\n            for (uint256 i = 0; i < ids.length; ++i) {\n                _totalSupply[ids[i]] += amounts[i];\n            }\n        }\n\n        if (to == address(0)) {\n            for (uint256 i = 0; i < ids.length; ++i) {\n                _totalSupply[ids[i]] -= amounts[i];\n            }\n        }\n    }\n}",
  "sourcePath": "/Users/arhan/Documents/work/questcrypto/QuestProperties/contracts/QuestProperties.sol",
  "compiler": {
    "name": "solc",
    "version": "0.8.10+commit.fc410830.Emscripten.clang"
  },
  "schemaVersion": "3.4.4",
  "updatedAt": "2021-12-28T19:31:37.238Z",
  "devdoc": {
    "author": "Strategic Quest Crypto",
    "details": "This contract is based on data contract design pattern, where business logic contract is separated from data contract to enable upgradeability of QuestProperties using UUPS. Strategic Quest web/dapp is semi-decentralized, where all required property & owner infos is collected by JavaScript in FE, then processed internally into our smart contracts. noting that property is only represented by one owner. Strategic Quest stores encrypted data of the property to blockchain using IPFS. AccessControlUpgradeable contract is inherited to segregate duties of each Role ERC1155HolderUpgradeable contract is inherited to allow QuestProperties contract to hold NFTs UUPSUpgradeable contract is the proxy used to upgrade QuestProperties contract",
    "kind": "dev",
    "methods": {
      "approvedProperty(bytes,address)": {
        "details": "Only accessable by HOA, who is responsible to gather & verify  property info from JavaScript. Emits an event each time a new property is added to the blockchain",
        "params": {
          "_parentHash": "bytes, ipfs generated hash for baseURI",
          "_propAddress": "address, physical property owner wallet address  "
        }
      },
      "balanceOf(address,uint256)": {
        "details": "See {IERC1155-balanceOf}. Requirements: - `account` cannot be the zero address."
      },
      "balanceOfBatch(address[],uint256[])": {
        "details": "See {IERC1155-balanceOfBatch}. Requirements: - `accounts` and `ids` must have the same length."
      },
      "burnBatchNFTs(address,uint256[],uint256[])": {
        "details": "Burn Btach of token `ids` from `from` of amounts `amounts` Requirements:  - Only DEFAULT_ADMIN_ROLE which is msg.sender - caller is the owner of approved operator"
      },
      "burnNFT(address,uint256,uint256)": {
        "details": "Burn token `id` with amount `amount` from `from` Requirements:  - Only DEFAULT_ADMIN_ROLE which is msg.sender - caller is the owner or approved operator - token id exists, have been minted before"
      },
      "getRoleAdmin(bytes32)": {
        "details": "Returns the admin role that controls `role`. See {grantRole} and {revokeRole}. To change a role's admin, use {_setRoleAdmin}."
      },
      "grantRole(bytes32,address)": {
        "details": "Grants `role` to `account`. If `account` had not been already granted `role`, emits a {RoleGranted} event. Requirements: - the caller must have ``role``'s admin role."
      },
      "hasRole(bytes32,address)": {
        "details": "Returns `true` if `account` has been granted `role`."
      },
      "initialize(address,address,string,string,string)": {
        "details": "DEFAULT_ADMIN_ROLE is HOA, it is the admin role for all roles, which means that only accounts with this role will be able to grant or revoke other roles & also it's own admin.",
        "params": {
          "_contractName": "string, unique name given to each property",
          "_description": "string, unique description that consist of tax id & other parameters.",
          "treasury": "address, responsible for minting tokens",
          "upgrader": "address, responsible for upgrading to next version",
          "uri": "string, is json that represent the  physical property\"https://game.example/api/item/{id}.json\""
        }
      },
      "isApprovedForAll(address,address)": {
        "details": "See {IERC1155-isApprovedForAll}."
      },
      "mintBatchNFTs(uint256[],uint256[],bytes,uint256[])": {
        "details": "minted tokens are minted to this contract ",
        "params": {
          "amounts": "uint. amounts of token ids to mint",
          "data": "bytes, ipfs generated hash ",
          "ids": "uint, token ids",
          "prices": "uint, tokens' prices in USDC/Quest Coin Requirements: -TREASURY_ROLE -tokens ids, amounts, & prices have the same length -tokens ids have not minted before and within the prespecified range."
        }
      },
      "mintNFT(uint256,bytes,uint256)": {
        "details": "minted tokens are held by QuestProperties contract.",
        "params": {
          "data": "bytes, ipfs generated hash of token id",
          "id": "uint, token id",
          "price": "uint, token price in USDC/Quest Coin Requirements: - TREASURY_ROLE -id: has not been minted before & within the 5 prelisted tokens "
        }
      },
      "renounceRole(bytes32,address)": {
        "details": "Revokes `role` from the calling account. Roles are often managed via {grantRole} and {revokeRole}: this function's purpose is to provide a mechanism for accounts to lose their privileges if they are compromised (such as when a trusted device is misplaced). If the calling account had been revoked `role`, emits a {RoleRevoked} event. Requirements: - the caller must be `account`."
      },
      "revokeRole(bytes32,address)": {
        "details": "Revokes `role` from `account`. If `account` had been granted `role`, emits a {RoleRevoked} event. Requirements: - the caller must have ``role``'s admin role."
      },
      "safeBatchTransferFrom(address,address,uint256[],uint256[],bytes)": {
        "details": "See {IERC1155-safeBatchTransferFrom}."
      },
      "safeTransferFrom(address,address,uint256,uint256,bytes)": {
        "details": "See {IERC1155-safeTransferFrom}."
      },
      "setApprovalForAll(address,bool)": {
        "details": "See {IERC1155-setApprovalForAll}."
      },
      "setURI(string)": {
        "details": "Sets a new URI for all token types, by relying on the token type ID substitution mechanism https://eips.ethereum.org/EIPS/eip-1155#metadata[defined in the EIP]. Because these URIs cannot be meaningfully represented by the {URI} event, this function emits no events. Requirements: - Only DEFAULT_ADMIN_ROLE"
      },
      "transferNFT(address,uint256,uint256,bytes)": {
        "details": "Transfers minted tokens and held by this contract to EOA or another contract Requirements: - Only DEFAULT_ADMIN_ROLE - This contract's balance of token id must be equal to or more than amount - transfer to shouldn't be to zero address - caller must be owner or approved operator to `safeTransferFrom`"
      },
      "upgradeTo(address)": {
        "details": "Upgrade the implementation of the proxy to `newImplementation`. Calls {_authorizeUpgrade}. Emits an {Upgraded} event."
      },
      "upgradeToAndCall(address,bytes)": {
        "details": "Upgrade the implementation of the proxy to `newImplementation`, and subsequently execute the function call encoded in `data`. Calls {_authorizeUpgrade}. Emits an {Upgraded} event."
      },
      "uri(uint256)": {
        "details": "See {IERC1155MetadataURI-uri}. This implementation returns the same URI for *all* token types. It relies on the token type ID substitution mechanism https://eips.ethereum.org/EIPS/eip-1155#metadata[defined in the EIP]. Clients calling this function must replace the `\\{id\\}` substring with the actual token type ID."
      }
    },
    "title": "Quest Properties",
    "version": 1
  },
  "userdoc": {
    "kind": "user",
    "methods": {},
    "version": 1
  }
}