{
  "contractName": "QuestProperties",
  "abi": [
    {
      "anonymous": false,
      "inputs": [
        {
          "indexed": false,
          "internalType": "address",
          "name": "previousAdmin",
          "type": "address"
        },
        {
          "indexed": false,
          "internalType": "address",
          "name": "newAdmin",
          "type": "address"
        }
      ],
      "name": "AdminChanged",
      "type": "event"
    },
    {
      "anonymous": false,
      "inputs": [
        {
          "indexed": true,
          "internalType": "address",
          "name": "account",
          "type": "address"
        },
        {
          "indexed": true,
          "internalType": "address",
          "name": "operator",
          "type": "address"
        },
        {
          "indexed": false,
          "internalType": "bool",
          "name": "approved",
          "type": "bool"
        }
      ],
      "name": "ApprovalForAll",
      "type": "event"
    },
    {
      "anonymous": false,
      "inputs": [
        {
          "indexed": true,
          "internalType": "address",
          "name": "beacon",
          "type": "address"
        }
      ],
      "name": "BeaconUpgraded",
      "type": "event"
    },
    {
      "anonymous": false,
      "inputs": [
        {
          "indexed": false,
          "internalType": "uint256",
          "name": "propertyId",
          "type": "uint256"
        },
        {
          "indexed": false,
          "internalType": "address",
          "name": "property",
          "type": "address"
        },
        {
          "indexed": false,
          "internalType": "bytes",
          "name": "MerkleTree",
          "type": "bytes"
        }
      ],
      "name": "PropertyAdded",
      "type": "event"
    },
    {
      "anonymous": false,
      "inputs": [
        {
          "indexed": true,
          "internalType": "bytes32",
          "name": "role",
          "type": "bytes32"
        },
        {
          "indexed": true,
          "internalType": "bytes32",
          "name": "previousAdminRole",
          "type": "bytes32"
        },
        {
          "indexed": true,
          "internalType": "bytes32",
          "name": "newAdminRole",
          "type": "bytes32"
        }
      ],
      "name": "RoleAdminChanged",
      "type": "event"
    },
    {
      "anonymous": false,
      "inputs": [
        {
          "indexed": true,
          "internalType": "bytes32",
          "name": "role",
          "type": "bytes32"
        },
        {
          "indexed": true,
          "internalType": "address",
          "name": "account",
          "type": "address"
        },
        {
          "indexed": true,
          "internalType": "address",
          "name": "sender",
          "type": "address"
        }
      ],
      "name": "RoleGranted",
      "type": "event"
    },
    {
      "anonymous": false,
      "inputs": [
        {
          "indexed": true,
          "internalType": "bytes32",
          "name": "role",
          "type": "bytes32"
        },
        {
          "indexed": true,
          "internalType": "address",
          "name": "account",
          "type": "address"
        },
        {
          "indexed": true,
          "internalType": "address",
          "name": "sender",
          "type": "address"
        }
      ],
      "name": "RoleRevoked",
      "type": "event"
    },
    {
      "anonymous": false,
      "inputs": [
        {
          "indexed": true,
          "internalType": "address",
          "name": "operator",
          "type": "address"
        },
        {
          "indexed": true,
          "internalType": "address",
          "name": "from",
          "type": "address"
        },
        {
          "indexed": true,
          "internalType": "address",
          "name": "to",
          "type": "address"
        },
        {
          "indexed": false,
          "internalType": "uint256[]",
          "name": "ids",
          "type": "uint256[]"
        },
        {
          "indexed": false,
          "internalType": "uint256[]",
          "name": "values",
          "type": "uint256[]"
        }
      ],
      "name": "TransferBatch",
      "type": "event"
    },
    {
      "anonymous": false,
      "inputs": [
        {
          "indexed": true,
          "internalType": "address",
          "name": "operator",
          "type": "address"
        },
        {
          "indexed": true,
          "internalType": "address",
          "name": "from",
          "type": "address"
        },
        {
          "indexed": true,
          "internalType": "address",
          "name": "to",
          "type": "address"
        },
        {
          "indexed": false,
          "internalType": "uint256",
          "name": "id",
          "type": "uint256"
        },
        {
          "indexed": false,
          "internalType": "uint256",
          "name": "value",
          "type": "uint256"
        }
      ],
      "name": "TransferSingle",
      "type": "event"
    },
    {
      "anonymous": false,
      "inputs": [
        {
          "indexed": false,
          "internalType": "string",
          "name": "value",
          "type": "string"
        },
        {
          "indexed": true,
          "internalType": "uint256",
          "name": "id",
          "type": "uint256"
        }
      ],
      "name": "URI",
      "type": "event"
    },
    {
      "anonymous": false,
      "inputs": [
        {
          "indexed": true,
          "internalType": "address",
          "name": "implementation",
          "type": "address"
        }
      ],
      "name": "Upgraded",
      "type": "event"
    },
    {
      "inputs": [],
      "name": "DEFAULT_ADMIN_ROLE",
      "outputs": [
        {
          "internalType": "bytes32",
          "name": "",
          "type": "bytes32"
        }
      ],
      "stateMutability": "view",
      "type": "function",
      "constant": true
    },
    {
      "inputs": [],
      "name": "EQUITY_RIGHT",
      "outputs": [
        {
          "internalType": "uint256",
          "name": "",
          "type": "uint256"
        }
      ],
      "stateMutability": "view",
      "type": "function",
      "constant": true
    },
    {
      "inputs": [],
      "name": "GOVERNANCE_RIGHT",
      "outputs": [
        {
          "internalType": "uint256",
          "name": "",
          "type": "uint256"
        }
      ],
      "stateMutability": "view",
      "type": "function",
      "constant": true
    },
    {
      "inputs": [],
      "name": "MGMT_RIGHT",
      "outputs": [
        {
          "internalType": "uint256",
          "name": "",
          "type": "uint256"
        }
      ],
      "stateMutability": "view",
      "type": "function",
      "constant": true
    },
    {
      "inputs": [],
      "name": "POSSESSION_RIGHT",
      "outputs": [
        {
          "internalType": "uint256",
          "name": "",
          "type": "uint256"
        }
      ],
      "stateMutability": "view",
      "type": "function",
      "constant": true
    },
    {
      "inputs": [],
      "name": "RENT_RIGHT",
      "outputs": [
        {
          "internalType": "uint256",
          "name": "",
          "type": "uint256"
        }
      ],
      "stateMutability": "view",
      "type": "function",
      "constant": true
    },
    {
      "inputs": [],
      "name": "TITLE",
      "outputs": [
        {
          "internalType": "uint256",
          "name": "",
          "type": "uint256"
        }
      ],
      "stateMutability": "view",
      "type": "function",
      "constant": true
    },
    {
      "inputs": [],
      "name": "TREASURY_ROLE",
      "outputs": [
        {
          "internalType": "bytes32",
          "name": "",
          "type": "bytes32"
        }
      ],
      "stateMutability": "view",
      "type": "function",
      "constant": true
    },
    {
      "inputs": [],
      "name": "UPGRADER_ROLE",
      "outputs": [
        {
          "internalType": "bytes32",
          "name": "",
          "type": "bytes32"
        }
      ],
      "stateMutability": "view",
      "type": "function",
      "constant": true
    },
    {
      "inputs": [
        {
          "internalType": "address",
          "name": "account",
          "type": "address"
        },
        {
          "internalType": "uint256",
          "name": "id",
          "type": "uint256"
        }
      ],
      "name": "balanceOf",
      "outputs": [
        {
          "internalType": "uint256",
          "name": "",
          "type": "uint256"
        }
      ],
      "stateMutability": "view",
      "type": "function",
      "constant": true
    },
    {
      "inputs": [
        {
          "internalType": "address[]",
          "name": "accounts",
          "type": "address[]"
        },
        {
          "internalType": "uint256[]",
          "name": "ids",
          "type": "uint256[]"
        }
      ],
      "name": "balanceOfBatch",
      "outputs": [
        {
          "internalType": "uint256[]",
          "name": "",
          "type": "uint256[]"
        }
      ],
      "stateMutability": "view",
      "type": "function",
      "constant": true
    },
    {
      "inputs": [],
      "name": "contractName",
      "outputs": [
        {
          "internalType": "string",
          "name": "",
          "type": "string"
        }
      ],
      "stateMutability": "view",
      "type": "function",
      "constant": true
    },
    {
      "inputs": [],
      "name": "description",
      "outputs": [
        {
          "internalType": "string",
          "name": "",
          "type": "string"
        }
      ],
      "stateMutability": "view",
      "type": "function",
      "constant": true
    },
    {
      "inputs": [
        {
          "internalType": "bytes32",
          "name": "role",
          "type": "bytes32"
        }
      ],
      "name": "getRoleAdmin",
      "outputs": [
        {
          "internalType": "bytes32",
          "name": "",
          "type": "bytes32"
        }
      ],
      "stateMutability": "view",
      "type": "function",
      "constant": true
    },
    {
      "inputs": [
        {
          "internalType": "bytes32",
          "name": "role",
          "type": "bytes32"
        },
        {
          "internalType": "address",
          "name": "account",
          "type": "address"
        }
      ],
      "name": "grantRole",
      "outputs": [],
      "stateMutability": "nonpayable",
      "type": "function"
    },
    {
      "inputs": [
        {
          "internalType": "bytes32",
          "name": "role",
          "type": "bytes32"
        },
        {
          "internalType": "address",
          "name": "account",
          "type": "address"
        }
      ],
      "name": "hasRole",
      "outputs": [
        {
          "internalType": "bool",
          "name": "",
          "type": "bool"
        }
      ],
      "stateMutability": "view",
      "type": "function",
      "constant": true
    },
    {
      "inputs": [
        {
          "internalType": "address",
          "name": "account",
          "type": "address"
        },
        {
          "internalType": "address",
          "name": "operator",
          "type": "address"
        }
      ],
      "name": "isApprovedForAll",
      "outputs": [
        {
          "internalType": "bool",
          "name": "",
          "type": "bool"
        }
      ],
      "stateMutability": "view",
      "type": "function",
      "constant": true
    },
    {
      "inputs": [],
      "name": "noOfRights",
      "outputs": [
        {
          "internalType": "uint256",
          "name": "",
          "type": "uint256"
        }
      ],
      "stateMutability": "view",
      "type": "function",
      "constant": true
    },
    {
      "inputs": [
        {
          "internalType": "address",
          "name": "",
          "type": "address"
        },
        {
          "internalType": "address",
          "name": "",
          "type": "address"
        },
        {
          "internalType": "uint256[]",
          "name": "",
          "type": "uint256[]"
        },
        {
          "internalType": "uint256[]",
          "name": "",
          "type": "uint256[]"
        },
        {
          "internalType": "bytes",
          "name": "",
          "type": "bytes"
        }
      ],
      "name": "onERC1155BatchReceived",
      "outputs": [
        {
          "internalType": "bytes4",
          "name": "",
          "type": "bytes4"
        }
      ],
      "stateMutability": "nonpayable",
      "type": "function"
    },
    {
      "inputs": [
        {
          "internalType": "address",
          "name": "",
          "type": "address"
        },
        {
          "internalType": "address",
          "name": "",
          "type": "address"
        },
        {
          "internalType": "uint256",
          "name": "",
          "type": "uint256"
        },
        {
          "internalType": "uint256",
          "name": "",
          "type": "uint256"
        },
        {
          "internalType": "bytes",
          "name": "",
          "type": "bytes"
        }
      ],
      "name": "onERC1155Received",
      "outputs": [
        {
          "internalType": "bytes4",
          "name": "",
          "type": "bytes4"
        }
      ],
      "stateMutability": "nonpayable",
      "type": "function"
    },
    {
      "inputs": [
        {
          "internalType": "bytes32",
          "name": "role",
          "type": "bytes32"
        },
        {
          "internalType": "address",
          "name": "account",
          "type": "address"
        }
      ],
      "name": "renounceRole",
      "outputs": [],
      "stateMutability": "nonpayable",
      "type": "function"
    },
    {
      "inputs": [
        {
          "internalType": "bytes32",
          "name": "role",
          "type": "bytes32"
        },
        {
          "internalType": "address",
          "name": "account",
          "type": "address"
        }
      ],
      "name": "revokeRole",
      "outputs": [],
      "stateMutability": "nonpayable",
      "type": "function"
    },
    {
      "inputs": [
        {
          "internalType": "address",
          "name": "from",
          "type": "address"
        },
        {
          "internalType": "address",
          "name": "to",
          "type": "address"
        },
        {
          "internalType": "uint256[]",
          "name": "ids",
          "type": "uint256[]"
        },
        {
          "internalType": "uint256[]",
          "name": "amounts",
          "type": "uint256[]"
        },
        {
          "internalType": "bytes",
          "name": "data",
          "type": "bytes"
        }
      ],
      "name": "safeBatchTransferFrom",
      "outputs": [],
      "stateMutability": "nonpayable",
      "type": "function"
    },
    {
      "inputs": [
        {
          "internalType": "address",
          "name": "from",
          "type": "address"
        },
        {
          "internalType": "address",
          "name": "to",
          "type": "address"
        },
        {
          "internalType": "uint256",
          "name": "id",
          "type": "uint256"
        },
        {
          "internalType": "uint256",
          "name": "amount",
          "type": "uint256"
        },
        {
          "internalType": "bytes",
          "name": "data",
          "type": "bytes"
        }
      ],
      "name": "safeTransferFrom",
      "outputs": [],
      "stateMutability": "nonpayable",
      "type": "function"
    },
    {
      "inputs": [
        {
          "internalType": "address",
          "name": "operator",
          "type": "address"
        },
        {
          "internalType": "bool",
          "name": "approved",
          "type": "bool"
        }
      ],
      "name": "setApprovalForAll",
      "outputs": [],
      "stateMutability": "nonpayable",
      "type": "function"
    },
    {
      "inputs": [
        {
          "internalType": "address",
          "name": "newImplementation",
          "type": "address"
        },
        {
          "internalType": "bytes",
          "name": "data",
          "type": "bytes"
        }
      ],
      "name": "upgradeToAndCall",
      "outputs": [],
      "stateMutability": "payable",
      "type": "function",
      "payable": true
    },
    {
      "inputs": [
        {
          "internalType": "uint256",
          "name": "",
          "type": "uint256"
        }
      ],
      "name": "uri",
      "outputs": [
        {
          "internalType": "string",
          "name": "",
          "type": "string"
        }
      ],
      "stateMutability": "view",
      "type": "function",
      "constant": true
    },
    {
      "inputs": [
        {
          "internalType": "address",
          "name": "treasury",
          "type": "address"
        },
        {
          "internalType": "address",
          "name": "upgrader",
          "type": "address"
        },
        {
          "internalType": "string",
          "name": "uri",
          "type": "string"
        },
        {
          "internalType": "uint256",
          "name": "_noOfRights",
          "type": "uint256"
        }
      ],
      "name": "initialize",
      "outputs": [],
      "stateMutability": "nonpayable",
      "type": "function"
    },
    {
      "inputs": [
        {
          "internalType": "bytes",
          "name": "_parentHash",
          "type": "bytes"
        },
        {
          "internalType": "address",
          "name": "_propAddress",
          "type": "address"
        },
        {
          "internalType": "string",
          "name": "_contractName",
          "type": "string"
        },
        {
          "internalType": "string",
          "name": "_description",
          "type": "string"
        }
      ],
      "name": "approvedProperty",
      "outputs": [],
      "stateMutability": "nonpayable",
      "type": "function"
    },
    {
      "inputs": [
        {
          "internalType": "bytes4",
          "name": "interfaceId",
          "type": "bytes4"
        }
      ],
      "name": "supportsInterface",
      "outputs": [
        {
          "internalType": "bool",
          "name": "",
          "type": "bool"
        }
      ],
      "stateMutability": "view",
      "type": "function",
      "constant": true
    },
    {
      "inputs": [],
      "name": "getPropertyId",
      "outputs": [
        {
          "internalType": "uint256",
          "name": "",
          "type": "uint256"
        }
      ],
      "stateMutability": "view",
      "type": "function",
      "constant": true
    },
    {
      "inputs": [
        {
          "internalType": "uint256",
          "name": "id",
          "type": "uint256"
        }
      ],
      "name": "totalSupply",
      "outputs": [
        {
          "internalType": "uint256",
          "name": "",
          "type": "uint256"
        }
      ],
      "stateMutability": "view",
      "type": "function",
      "constant": true
    },
    {
      "inputs": [
        {
          "internalType": "uint256",
          "name": "id",
          "type": "uint256"
        }
      ],
      "name": "exists",
      "outputs": [
        {
          "internalType": "bool",
          "name": "",
          "type": "bool"
        }
      ],
      "stateMutability": "view",
      "type": "function",
      "constant": true
    },
    {
      "inputs": [],
      "name": "version",
      "outputs": [
        {
          "internalType": "string",
          "name": "",
          "type": "string"
        }
      ],
      "stateMutability": "pure",
      "type": "function",
      "constant": true
    },
    {
      "inputs": [
        {
          "internalType": "address",
          "name": "newImplementation",
          "type": "address"
        }
      ],
      "name": "upgradeTo",
      "outputs": [],
      "stateMutability": "nonpayable",
      "type": "function"
    },
    {
      "inputs": [
        {
          "internalType": "uint256",
          "name": "id",
          "type": "uint256"
        },
        {
          "internalType": "bytes",
          "name": "data",
          "type": "bytes"
        },
        {
          "internalType": "uint256",
          "name": "price",
          "type": "uint256"
        }
      ],
      "name": "mintNFT",
      "outputs": [
        {
          "internalType": "uint256",
          "name": "",
          "type": "uint256"
        },
        {
          "internalType": "uint256",
          "name": "",
          "type": "uint256"
        }
      ],
      "stateMutability": "payable",
      "type": "function",
      "payable": true
    },
    {
      "inputs": [
        {
          "internalType": "uint256[]",
          "name": "ids",
          "type": "uint256[]"
        },
        {
          "internalType": "uint256[]",
          "name": "amounts",
          "type": "uint256[]"
        },
        {
          "internalType": "bytes",
          "name": "data",
          "type": "bytes"
        },
        {
          "internalType": "uint256[]",
          "name": "prices",
          "type": "uint256[]"
        }
      ],
      "name": "mintBatchNFTs",
      "outputs": [
        {
          "internalType": "uint256[]",
          "name": "_ids",
          "type": "uint256[]"
        },
        {
          "internalType": "uint256[]",
          "name": "_prices",
          "type": "uint256[]"
        }
      ],
      "stateMutability": "payable",
      "type": "function",
      "payable": true
    },
    {
      "inputs": [
        {
          "internalType": "address",
          "name": "from",
          "type": "address"
        },
        {
          "internalType": "uint256",
          "name": "id",
          "type": "uint256"
        },
        {
          "internalType": "uint256",
          "name": "amount",
          "type": "uint256"
        }
      ],
      "name": "burnNFT",
      "outputs": [],
      "stateMutability": "nonpayable",
      "type": "function"
    },
    {
      "inputs": [
        {
          "internalType": "address",
          "name": "from",
          "type": "address"
        },
        {
          "internalType": "uint256[]",
          "name": "ids",
          "type": "uint256[]"
        },
        {
          "internalType": "uint256[]",
          "name": "amounts",
          "type": "uint256[]"
        }
      ],
      "name": "burnBatchNFTs",
      "outputs": [],
      "stateMutability": "nonpayable",
      "type": "function"
    },
    {
      "inputs": [
        {
          "internalType": "address",
          "name": "to",
          "type": "address"
        },
        {
          "internalType": "uint256",
          "name": "id",
          "type": "uint256"
        },
        {
          "internalType": "uint256",
          "name": "amount",
          "type": "uint256"
        },
        {
          "internalType": "bytes",
          "name": "data",
          "type": "bytes"
        }
      ],
      "name": "transferNFT",
      "outputs": [],
      "stateMutability": "payable",
      "type": "function",
      "payable": true
    },
    {
      "inputs": [
        {
          "internalType": "string",
          "name": "newuri",
          "type": "string"
        }
      ],
      "name": "setURI",
      "outputs": [],
      "stateMutability": "nonpayable",
      "type": "function"
    }
  ],
  "bytecode": "0x60a06040523060805234801561001457600080fd5b506080516140ea61003760003960008181610faa015261104001526140ea6000f3fe6080604052600436106102c55760003560e01c80637284e41611610179578063bc197c81116100d6578063d4f8115d1161008a578063f23a6e6111610064578063f23a6e6114610809578063f242432a14610835578063f72c0d8b1461085557600080fd5b8063d4f8115d14610780578063d547741f146107a0578063e985e9c5146107c057600080fd5b8063c1147eb0116100bb578063c1147eb014610715578063d11a57ec1461072c578063d2a200ee1461076057600080fd5b8063bc197c81146106a2578063bd85b039146106e757600080fd5b80638052f5d31161012d57806396f6b2fa1161011257806396f6b2fa1461066f578063a217fddf146105ff578063a22cb4651461068257600080fd5b80638052f5d31461061457806391d148541461062957600080fd5b8063744a32901161015e578063744a3290146105c257806375d0c0dc146105ea5780637ef83804146105ff57600080fd5b80637284e4161461059857806372f0cbef146105ad57600080fd5b80632f2ff15d116102275780634f1ef286116101db57806354fd4d50116101c057806354fd4d501461051d578063572f2b091461056357806359af55b91461058357600080fd5b80634f1ef286146104da5780634f558e79146104ed57600080fd5b806336568abe1161020c57806336568abe1461046d5780633659cfe61461048d5780634e1273f4146104ad57600080fd5b80632f2ff15d1461043757806333d9eeba1461045757600080fd5b80630fad0d3a1161027e578063248a9ca311610263578063248a9ca3146103d25780632d649491146104025780632eb2c2d61461041757600080fd5b80630fad0d3a1461039d5780631cc509fd146103b257600080fd5b806302fe5305116102af57806302fe53051461032d578063078696561461034f5780630e89341c1461037057600080fd5b8062fdd58e146102ca57806301ffc9a7146102fd575b600080fd5b3480156102d657600080fd5b506102ea6102e53660046134e9565b610889565b6040519081526020015b60405180910390f35b34801561030957600080fd5b5061031d610318366004613529565b610934565b60405190151581526020016102f4565b34801561033957600080fd5b5061034d6103483660046135fd565b610945565b005b61036261035d3660046136cf565b61095e565b6040516102f49291906137b7565b34801561037c57600080fd5b5061039061038b3660046137dc565b610adb565b6040516102f4919061384d565b3480156103a957600080fd5b506102ea600381565b3480156103be57600080fd5b5061034d6103cd366004613860565b610b6f565b3480156103de57600080fd5b506102ea6103ed3660046137dc565b600090815260fb602052604090206001015490565b34801561040e57600080fd5b506102ea600481565b34801561042357600080fd5b5061034d610432366004613893565b610c95565b34801561044357600080fd5b5061034d61045236600461393d565b610d37565b34801561046357600080fd5b50610194546102ea565b34801561047957600080fd5b5061034d61048836600461393d565b610d62565b34801561049957600080fd5b5061034d6104a8366004613969565b610dea565b3480156104b957600080fd5b506104cd6104c8366004613984565b610e61565b6040516102f49190613a4f565b61034d6104e8366004613a62565b610f9f565b3480156104f957600080fd5b5061031d6105083660046137dc565b60009081526101976020526040902054151590565b34801561052957600080fd5b5060408051808201909152600581527f312e302e300000000000000000000000000000000000000000000000000000006020820152610390565b34801561056f57600080fd5b5061034d61057e366004613aa6565b61112a565b34801561058f57600080fd5b506102ea600181565b3480156105a457600080fd5b50610390611228565b3480156105b957600080fd5b506102ea600281565b6105d56105d0366004613b33565b6112b7565b604080519283526020830191909152016102f4565b3480156105f657600080fd5b50610390611401565b34801561060b57600080fd5b506102ea600081565b34801561062057600080fd5b506102ea600581565b34801561063557600080fd5b5061031d61064436600461393d565b600091825260fb602090815260408084206001600160a01b0393909316845291905290205460ff1690565b61034d61067d366004613b83565b61140f565b34801561068e57600080fd5b5061034d61069d366004613bd8565b611494565b3480156106ae57600080fd5b506106ce6106bd366004613893565b63bc197c8160e01b95945050505050565b6040516001600160e01b031990911681526020016102f4565b3480156106f357600080fd5b506102ea6107023660046137dc565b6000908152610197602052604090205490565b34801561072157600080fd5b506102ea6101985481565b34801561073857600080fd5b506102ea7fe1dcbdb91df27212a29bc27177c840cf2f819ecf2187432e1fac86c2dd5dfca981565b34801561076c57600080fd5b5061034d61077b366004613c14565b61149f565b34801561078c57600080fd5b5061034d61079b366004613c7a565b6115e3565b3480156107ac57600080fd5b5061034d6107bb36600461393d565b6116a7565b3480156107cc57600080fd5b5061031d6107db366004613cee565b6001600160a01b03918216600090815260666020908152604080832093909416825291909152205460ff1690565b34801561081557600080fd5b506106ce610824366004613d18565b63f23a6e6160e01b95945050505050565b34801561084157600080fd5b5061034d610850366004613d18565b6116cd565b34801561086157600080fd5b506102ea7f189ab7a9244df0848122154315af71fe140f3db0fe014031783b0946b8c9d2e381565b60006001600160a01b03831661090c5760405162461bcd60e51b815260206004820152602b60248201527f455243313135353a2062616c616e636520717565727920666f7220746865207a60448201527f65726f206164647265737300000000000000000000000000000000000000000060648201526084015b60405180910390fd5b5060009081526065602090815260408083206001600160a01b03949094168352929052205490565b600061093f82611768565b92915050565b600061095181336117a6565b61095a82611826565b5050565b6060807fe1dcbdb91df27212a29bc27177c840cf2f819ecf2187432e1fac86c2dd5dfca961098c81336117a6565b8351875114610a035760405162461bcd60e51b815260206004820152602560248201527f51756573743a2069647320616e6420707269636573206c656e677468206d697360448201527f6d617463680000000000000000000000000000000000000000000000000000006064820152608401610903565b610a0f30888888611839565b86516000905b808211610acc5761019660008a8481518110610a3357610a33613d7d565b6020026020010151815260200190815260200160002060020160405180604001604052808b8581518110610a6957610a69613d7d565b60200260200101518152602001888581518110610a8857610a88613d7d565b602090810291909101810151909152825460018181018555600094855293829020835160029092020190815591015191015581610ac481613da9565b925050610a15565b50969793965092945050505050565b606060678054610aea90613dc4565b80601f0160208091040260200160405190810160405280929190818152602001828054610b1690613dc4565b8015610b635780601f10610b3857610100808354040283529160200191610b63565b820191906000526020600020905b815481529060010190602001808311610b4657829003601f168201915b50505050509050919050565b7fe1dcbdb91df27212a29bc27177c840cf2f819ecf2187432e1fac86c2dd5dfca9610b9a81336117a6565b60008381526101976020526040902054610bf65760405162461bcd60e51b815260206004820152601960248201527f51756573743a204e465420646f6573206e6f74206578697374000000000000006044820152606401610903565b6001600160a01b038416331480610c125750610c1284336107db565b610c845760405162461bcd60e51b815260206004820152602760248201527f51756573743a2063616c6c6572206973206e6f74206f776e6572206e6f72206160448201527f7070726f766564000000000000000000000000000000000000000000000000006064820152608401610903565b610c8f848484611a0f565b50505050565b6001600160a01b038516331480610cb15750610cb185336107db565b610d235760405162461bcd60e51b815260206004820152603260248201527f455243313135353a207472616e736665722063616c6c6572206973206e6f742060448201527f6f776e6572206e6f7220617070726f76656400000000000000000000000000006064820152608401610903565b610d308585858585611b8c565b5050505050565b600082815260fb6020526040902060010154610d5381336117a6565b610d5d8383611e0e565b505050565b6001600160a01b0381163314610de05760405162461bcd60e51b815260206004820152602f60248201527f416363657373436f6e74726f6c3a2063616e206f6e6c792072656e6f756e636560448201527f20726f6c657320666f722073656c6600000000000000000000000000000000006064820152608401610903565b61095a8282611eb0565b803b610e5e5760405162461bcd60e51b815260206004820152602c60248201527f51756573743a206e657720496d706c656d656e746174696f6e206d757374206260448201527f65206120636f6e747261637400000000000000000000000000000000000000006064820152608401610903565b50565b60608151835114610eda5760405162461bcd60e51b815260206004820152602960248201527f455243313135353a206163636f756e747320616e6420696473206c656e67746860448201527f206d69736d6174636800000000000000000000000000000000000000000000006064820152608401610903565b6000835167ffffffffffffffff811115610ef657610ef6613546565b604051908082528060200260200182016040528015610f1f578160200160208202803683370190505b50905060005b8451811015610f9757610f6a858281518110610f4357610f43613d7d565b6020026020010151858381518110610f5d57610f5d613d7d565b6020026020010151610889565b828281518110610f7c57610f7c613d7d565b6020908102919091010152610f9081613da9565b9050610f25565b509392505050565b306001600160a01b037f000000000000000000000000000000000000000000000000000000000000000016141561103e5760405162461bcd60e51b815260206004820152602c60248201527f46756e6374696f6e206d7573742062652063616c6c6564207468726f7567682060448201527f64656c656761746563616c6c00000000000000000000000000000000000000006064820152608401610903565b7f00000000000000000000000000000000000000000000000000000000000000006001600160a01b03166110997f360894a13ba1a3210667c828492db98dca3e2076cc3735a920a3ca505d382bbc546001600160a01b031690565b6001600160a01b0316146111155760405162461bcd60e51b815260206004820152602c60248201527f46756e6374696f6e206d7573742062652063616c6c6564207468726f7567682060448201527f6163746976652070726f787900000000000000000000000000000000000000006064820152608401610903565b61111e82611f33565b61095a82826001611f5e565b600061113681336117a6565b61114561019180546001019055565b61019154610194819055600090815261019660209081526040909120865161116f92880190613434565b506101945460009081526101966020908152604090912060010180547fffffffffffffffffffffffff0000000000000000000000000000000000000000166001600160a01b03871617905583516111cd916101929190860190613434565b5081516111e290610193906020850190613434565b507fe7728328277361a76a29cdcb4681be86dbbf1934457953cc0e4151f56a81124461019454858760405161121993929190613dff565b60405180910390a15050505050565b610193805461123690613dc4565b80601f016020809104026020016040519081016040528092919081815260200182805461126290613dc4565b80156112af5780601f10611284576101008083540402835291602001916112af565b820191906000526020600020905b81548152906001019060200180831161129257829003601f168201915b505050505081565b6000807fe1dcbdb91df27212a29bc27177c840cf2f819ecf2187432e1fac86c2dd5dfca96112e581336117a6565b60008681526101976020526040902054156113425760405162461bcd60e51b815260206004820152601b60248201527f51756573743a20746f6b656e20616c7265616479206d696e74656400000000006044820152606401610903565b610198548611156113955760405162461bcd60e51b815260206004820152601760248201527f51756573743a20696e76616c696420746f6b656e2069640000000000000000006044820152606401610903565b8361139f57600095505b6113ac308760018861211b565b5050610194546000908152610196602090815260408083208151808301909252878252818301868152600291820180546001808201835591875294909520925193909102909101918255519101555091929050565b610192805461123690613dc4565b600061141b81336117a6565b826114263086610889565b101561143157600080fd5b6001600160a01b0385166114875760405162461bcd60e51b815260206004820152601f60248201527f51756573743a207472616e7366657220746f207a65726f2061646472657373006044820152606401610903565b610d3030868686866116cd565b61095a33838361222d565b600054610100900460ff16806114b8575060005460ff16155b61151b5760405162461bcd60e51b815260206004820152602e60248201527f496e697469616c697a61626c653a20636f6e747261637420697320616c72656160448201526d191e481a5b9a5d1a585b1a5e995960921b6064820152608401610903565b600054610100900460ff1615801561153d576000805461ffff19166101011790555b61154683612322565b61154e6123ee565b6115566124b8565b61155e6123ee565b6115666124b8565b61157160003361255d565b61159b7fe1dcbdb91df27212a29bc27177c840cf2f819ecf2187432e1fac86c2dd5dfca98661255d565b6115c57f189ab7a9244df0848122154315af71fe140f3db0fe014031783b0946b8c9d2e38561255d565b6101988290558015610d30576000805461ff00191690555050505050565b7fe1dcbdb91df27212a29bc27177c840cf2f819ecf2187432e1fac86c2dd5dfca961160e81336117a6565b6001600160a01b03841633148061162a575061162a84336107db565b61169c5760405162461bcd60e51b815260206004820152602760248201527f51756573743a2063616c6c6572206973206e6f74206f776e6572206e6f72206160448201527f7070726f766564000000000000000000000000000000000000000000000000006064820152608401610903565b610c8f848484612567565b600082815260fb60205260409020600101546116c381336117a6565b610d5d8383611eb0565b6001600160a01b0385163314806116e957506116e985336107db565b61175b5760405162461bcd60e51b815260206004820152602960248201527f455243313135353a2063616c6c6572206973206e6f74206f776e6572206e6f7260448201527f20617070726f76656400000000000000000000000000000000000000000000006064820152608401610903565b610d3085858585856127b1565b60006001600160e01b031982167f7965db0b00000000000000000000000000000000000000000000000000000000148061093f575061093f82612966565b600082815260fb602090815260408083206001600160a01b038516845290915290205460ff1661095a576117e4816001600160a01b031660146129a4565b6117ef8360206129a4565b604051602001611800929190613e27565b60408051601f198184030181529082905262461bcd60e51b82526109039160040161384d565b805161095a906067906020840190613434565b6001600160a01b0384166118995760405162461bcd60e51b815260206004820152602160248201527f455243313135353a206d696e7420746f20746865207a65726f206164647265736044820152607360f81b6064820152608401610903565b81518351146118fb5760405162461bcd60e51b815260206004820152602860248201527f455243313135353a2069647320616e6420616d6f756e7473206c656e677468206044820152670dad2e6dac2e8c6d60c31b6064820152608401610903565b3361190b81600087878787612bd4565b60005b84518110156119a75783818151811061192957611929613d7d565b60200260200101516065600087848151811061194757611947613d7d565b602002602001015181526020019081526020016000206000886001600160a01b03166001600160a01b03168152602001908152602001600020600082825461198f9190613ea8565b9091555081905061199f81613da9565b91505061190e565b50846001600160a01b031660006001600160a01b0316826001600160a01b03167f4a39dc06d4c0dbc64b70af90fd698a233a518aa5d07e595d983b8c0526c8f7fb87876040516119f89291906137b7565b60405180910390a4610d3081600087878787612ce2565b6001600160a01b038316611a715760405162461bcd60e51b815260206004820152602360248201527f455243313135353a206275726e2066726f6d20746865207a65726f206164647260448201526265737360e81b6064820152608401610903565b33611aa081856000611a8287612e9d565b611a8b87612e9d565b60405180602001604052806000815250612bd4565b60008381526065602090815260408083206001600160a01b038816845290915290205482811015611b1f5760405162461bcd60e51b8152602060048201526024808201527f455243313135353a206275726e20616d6f756e7420657863656564732062616c604482015263616e636560e01b6064820152608401610903565b60008481526065602090815260408083206001600160a01b03898116808652918452828520888703905582518981529384018890529092908616917fc3d58168c5ae7397731d063d5bbf3d657854427343f4c083240f7aacaa2d0f62910160405180910390a45050505050565b8151835114611bee5760405162461bcd60e51b815260206004820152602860248201527f455243313135353a2069647320616e6420616d6f756e7473206c656e677468206044820152670dad2e6dac2e8c6d60c31b6064820152608401610903565b6001600160a01b038416611c525760405162461bcd60e51b815260206004820152602560248201527f455243313135353a207472616e7366657220746f20746865207a65726f206164604482015264647265737360d81b6064820152608401610903565b33611c61818787878787612bd4565b60005b8451811015611da0576000858281518110611c8157611c81613d7d565b602002602001015190506000858381518110611c9f57611c9f613d7d565b60209081029190910181015160008481526065835260408082206001600160a01b038e168352909352919091205490915081811015611d465760405162461bcd60e51b815260206004820152602a60248201527f455243313135353a20696e73756666696369656e742062616c616e636520666f60448201527f72207472616e73666572000000000000000000000000000000000000000000006064820152608401610903565b60008381526065602090815260408083206001600160a01b038e8116855292528083208585039055908b16825281208054849290611d85908490613ea8565b9250508190555050505080611d9990613da9565b9050611c64565b50846001600160a01b0316866001600160a01b0316826001600160a01b03167f4a39dc06d4c0dbc64b70af90fd698a233a518aa5d07e595d983b8c0526c8f7fb8787604051611df09291906137b7565b60405180910390a4611e06818787878787612ce2565b505050505050565b600082815260fb602090815260408083206001600160a01b038516845290915290205460ff1661095a57600082815260fb602090815260408083206001600160a01b03851684529091529020805460ff19166001179055611e6c3390565b6001600160a01b0316816001600160a01b0316837f2f8788117e7eff1d82e926ec794901d17c78024a50270940304540a733656f0d60405160405180910390a45050565b600082815260fb602090815260408083206001600160a01b038516845290915290205460ff161561095a57600082815260fb602090815260408083206001600160a01b0385168085529252808320805460ff1916905551339285917ff6391f5c32d9c69d2a47ea670b442974b53935d1edc7fd64eb21e047a839171b9190a45050565b7f189ab7a9244df0848122154315af71fe140f3db0fe014031783b0946b8c9d2e361095a81336117a6565b6000611f917f360894a13ba1a3210667c828492db98dca3e2076cc3735a920a3ca505d382bbc546001600160a01b031690565b9050611f9c84612ee8565b600083511180611fa95750815b15611fba57611fb88484612fb5565b505b7f4910fdfa16fed3260ed0e7147f7cc6da11a60208b5b9406d12a635614ffd9143805460ff16610d3057805460ff191660011781556040516001600160a01b038316602482015261206790869060440160408051601f198184030181529190526020810180517bffffffffffffffffffffffffffffffffffffffffffffffffffffffff167f3659cfe600000000000000000000000000000000000000000000000000000000179052612fb5565b50805460ff191681557f360894a13ba1a3210667c828492db98dca3e2076cc3735a920a3ca505d382bbc546001600160a01b038381169116146121125760405162461bcd60e51b815260206004820152602f60248201527f45524331393637557067726164653a207570677261646520627265616b73206660448201527f75727468657220757067726164657300000000000000000000000000000000006064820152608401610903565b610d30856130b7565b6001600160a01b03841661217b5760405162461bcd60e51b815260206004820152602160248201527f455243313135353a206d696e7420746f20746865207a65726f206164647265736044820152607360f81b6064820152608401610903565b3361219b8160008761218c88612e9d565b61219588612e9d565b87612bd4565b60008481526065602090815260408083206001600160a01b0389168452909152812080548592906121cd908490613ea8565b909155505060408051858152602081018590526001600160a01b0380881692600092918516917fc3d58168c5ae7397731d063d5bbf3d657854427343f4c083240f7aacaa2d0f62910160405180910390a4610d30816000878787876130f7565b816001600160a01b0316836001600160a01b031614156122b55760405162461bcd60e51b815260206004820152602960248201527f455243313135353a2073657474696e6720617070726f76616c2073746174757360448201527f20666f722073656c6600000000000000000000000000000000000000000000006064820152608401610903565b6001600160a01b03838116600081815260666020908152604080832094871680845294825291829020805460ff191686151590811790915591519182527f17307eab39ab6107e8899845ad3d59bd9653f200f220920489ca2b5937696c31910160405180910390a3505050565b600054610100900460ff168061233b575060005460ff16155b61239e5760405162461bcd60e51b815260206004820152602e60248201527f496e697469616c697a61626c653a20636f6e747261637420697320616c72656160448201526d191e481a5b9a5d1a585b1a5e995960921b6064820152608401610903565b600054610100900460ff161580156123c0576000805461ffff19166101011790555b6123c8613208565b6123d0613208565b6123d9826132b9565b801561095a576000805461ff00191690555050565b600054610100900460ff1680612407575060005460ff16155b61246a5760405162461bcd60e51b815260206004820152602e60248201527f496e697469616c697a61626c653a20636f6e747261637420697320616c72656160448201526d191e481a5b9a5d1a585b1a5e995960921b6064820152608401610903565b600054610100900460ff1615801561248c576000805461ffff19166101011790555b612494613208565b61249c613208565b6124a4613208565b8015610e5e576000805461ff001916905550565b600054610100900460ff16806124d1575060005460ff16155b6125345760405162461bcd60e51b815260206004820152602e60248201527f496e697469616c697a61626c653a20636f6e747261637420697320616c72656160448201526d191e481a5b9a5d1a585b1a5e995960921b6064820152608401610903565b600054610100900460ff16158015612494576000805461ffff191661010117905561249c613208565b61095a8282611e0e565b6001600160a01b0383166125c95760405162461bcd60e51b815260206004820152602360248201527f455243313135353a206275726e2066726f6d20746865207a65726f206164647260448201526265737360e81b6064820152608401610903565b805182511461262b5760405162461bcd60e51b815260206004820152602860248201527f455243313135353a2069647320616e6420616d6f756e7473206c656e677468206044820152670dad2e6dac2e8c6d60c31b6064820152608401610903565b600033905061264e81856000868660405180602001604052806000815250612bd4565b60005b835181101561275257600084828151811061266e5761266e613d7d565b60200260200101519050600084838151811061268c5761268c613d7d565b60209081029190910181015160008481526065835260408082206001600160a01b038c1683529093529190912054909150818110156127195760405162461bcd60e51b8152602060048201526024808201527f455243313135353a206275726e20616d6f756e7420657863656564732062616c604482015263616e636560e01b6064820152608401610903565b60009283526065602090815260408085206001600160a01b038b168652909152909220910390558061274a81613da9565b915050612651565b5060006001600160a01b0316846001600160a01b0316826001600160a01b03167f4a39dc06d4c0dbc64b70af90fd698a233a518aa5d07e595d983b8c0526c8f7fb86866040516127a39291906137b7565b60405180910390a450505050565b6001600160a01b0384166128155760405162461bcd60e51b815260206004820152602560248201527f455243313135353a207472616e7366657220746f20746865207a65726f206164604482015264647265737360d81b6064820152608401610903565b3361282581878761218c88612e9d565b60008481526065602090815260408083206001600160a01b038a168452909152902054838110156128be5760405162461bcd60e51b815260206004820152602a60248201527f455243313135353a20696e73756666696369656e742062616c616e636520666f60448201527f72207472616e73666572000000000000000000000000000000000000000000006064820152608401610903565b60008581526065602090815260408083206001600160a01b038b81168552925280832087850390559088168252812080548692906128fd908490613ea8565b909155505060408051868152602081018690526001600160a01b03808916928a821692918616917fc3d58168c5ae7397731d063d5bbf3d657854427343f4c083240f7aacaa2d0f62910160405180910390a461295d8288888888886130f7565b50505050505050565b60006001600160e01b031982167f4e2312e000000000000000000000000000000000000000000000000000000000148061093f575061093f82613360565b606060006129b3836002613ec0565b6129be906002613ea8565b67ffffffffffffffff8111156129d6576129d6613546565b6040519080825280601f01601f191660200182016040528015612a00576020820181803683370190505b5090507f300000000000000000000000000000000000000000000000000000000000000081600081518110612a3757612a37613d7d565b60200101907effffffffffffffffffffffffffffffffffffffffffffffffffffffffffffff1916908160001a9053507f780000000000000000000000000000000000000000000000000000000000000081600181518110612a9a57612a9a613d7d565b60200101907effffffffffffffffffffffffffffffffffffffffffffffffffffffffffffff1916908160001a9053506000612ad6846002613ec0565b612ae1906001613ea8565b90505b6001811115612b7e577f303132333435363738396162636465660000000000000000000000000000000085600f1660108110612b2257612b22613d7d565b1a60f81b828281518110612b3857612b38613d7d565b60200101907effffffffffffffffffffffffffffffffffffffffffffffffffffffffffffff1916908160001a90535060049490941c93612b7781613edf565b9050612ae4565b508315612bcd5760405162461bcd60e51b815260206004820181905260248201527f537472696e67733a20686578206c656e67746820696e73756666696369656e746044820152606401610903565b9392505050565b6001600160a01b038516612c5c5760005b8351811015612c5a57828181518110612c0057612c00613d7d565b60200260200101516101976000868481518110612c1f57612c1f613d7d565b602002602001015181526020019081526020016000206000828254612c449190613ea8565b90915550612c53905081613da9565b9050612be5565b505b6001600160a01b038416611e065760005b835181101561295d57828181518110612c8857612c88613d7d565b60200260200101516101976000868481518110612ca757612ca7613d7d565b602002602001015181526020019081526020016000206000828254612ccc9190613ef6565b90915550612cdb905081613da9565b9050612c6d565b6001600160a01b0384163b15611e065760405163bc197c8160e01b81526001600160a01b0385169063bc197c8190612d269089908990889088908890600401613f0d565b6020604051808303816000875af1925050508015612d61575060408051601f3d908101601f19168201909252612d5e91810190613f6b565b60015b612e1757612d6d613f88565b806308c379a01415612da75750612d82613fa4565b80612d8d5750612da9565b8060405162461bcd60e51b8152600401610903919061384d565b505b60405162461bcd60e51b815260206004820152603460248201527f455243313135353a207472616e7366657220746f206e6f6e204552433131353560448201527f526563656976657220696d706c656d656e7465720000000000000000000000006064820152608401610903565b6001600160e01b0319811663bc197c8160e01b1461295d5760405162461bcd60e51b815260206004820152602860248201527f455243313135353a204552433131353552656365697665722072656a6563746560448201527f6420746f6b656e730000000000000000000000000000000000000000000000006064820152608401610903565b60408051600180825281830190925260609160009190602080830190803683370190505090508281600081518110612ed757612ed7613d7d565b602090810291909101015292915050565b803b612f5c5760405162461bcd60e51b815260206004820152602d60248201527f455243313936373a206e657720696d706c656d656e746174696f6e206973206e60448201527f6f74206120636f6e7472616374000000000000000000000000000000000000006064820152608401610903565b7f360894a13ba1a3210667c828492db98dca3e2076cc3735a920a3ca505d382bbc80547fffffffffffffffffffffffff0000000000000000000000000000000000000000166001600160a01b0392909216919091179055565b6060823b61302b5760405162461bcd60e51b815260206004820152602660248201527f416464726573733a2064656c65676174652063616c6c20746f206e6f6e2d636f60448201527f6e747261637400000000000000000000000000000000000000000000000000006064820152608401610903565b600080846001600160a01b031684604051613046919061402e565b600060405180830381855af49150503d8060008114613081576040519150601f19603f3d011682016040523d82523d6000602084013e613086565b606091505b50915091506130ae828260405180606001604052806027815260200161408e602791396133fb565b95945050505050565b6130c081612ee8565b6040516001600160a01b038216907fbc7cd75a20ee27fd9adebab32041f755214dbc6bffa90cc0225b39da2e5c2d3b90600090a250565b6001600160a01b0384163b15611e065760405163f23a6e6160e01b81526001600160a01b0385169063f23a6e619061313b908990899088908890889060040161404a565b6020604051808303816000875af1925050508015613176575060408051601f3d908101601f1916820190925261317391810190613f6b565b60015b61318257612d6d613f88565b6001600160e01b0319811663f23a6e6160e01b1461295d5760405162461bcd60e51b815260206004820152602860248201527f455243313135353a204552433131353552656365697665722072656a6563746560448201527f6420746f6b656e730000000000000000000000000000000000000000000000006064820152608401610903565b600054610100900460ff1680613221575060005460ff16155b6132845760405162461bcd60e51b815260206004820152602e60248201527f496e697469616c697a61626c653a20636f6e747261637420697320616c72656160448201526d191e481a5b9a5d1a585b1a5e995960921b6064820152608401610903565b600054610100900460ff161580156124a4576000805461ffff19166101011790558015610e5e576000805461ff001916905550565b600054610100900460ff16806132d2575060005460ff16155b6133355760405162461bcd60e51b815260206004820152602e60248201527f496e697469616c697a61626c653a20636f6e747261637420697320616c72656160448201526d191e481a5b9a5d1a585b1a5e995960921b6064820152608401610903565b600054610100900460ff16158015613357576000805461ffff19166101011790555b6123d982611826565b60006001600160e01b031982167fd9b67a260000000000000000000000000000000000000000000000000000000014806133c357506001600160e01b031982167f0e89341c00000000000000000000000000000000000000000000000000000000145b8061093f57507f01ffc9a7000000000000000000000000000000000000000000000000000000006001600160e01b031983161461093f565b6060831561340a575081612bcd565b82511561341a5782518084602001fd5b8160405162461bcd60e51b8152600401610903919061384d565b82805461344090613dc4565b90600052602060002090601f01602090048101928261346257600085556134a8565b82601f1061347b57805160ff19168380011785556134a8565b828001600101855582156134a8579182015b828111156134a857825182559160200191906001019061348d565b506134b49291506134b8565b5090565b5b808211156134b457600081556001016134b9565b80356001600160a01b03811681146134e457600080fd5b919050565b600080604083850312156134fc57600080fd5b613505836134cd565b946020939093013593505050565b6001600160e01b031981168114610e5e57600080fd5b60006020828403121561353b57600080fd5b8135612bcd81613513565b634e487b7160e01b600052604160045260246000fd5b601f8201601f1916810167ffffffffffffffff8111828210171561358257613582613546565b6040525050565b600082601f83011261359a57600080fd5b813567ffffffffffffffff8111156135b4576135b4613546565b6040516135cb601f8301601f19166020018261355c565b8181528460208386010111156135e057600080fd5b816020850160208301376000918101602001919091529392505050565b60006020828403121561360f57600080fd5b813567ffffffffffffffff81111561362657600080fd5b61363284828501613589565b949350505050565b600067ffffffffffffffff82111561365457613654613546565b5060051b60200190565b600082601f83011261366f57600080fd5b8135602061367c8261363a565b604051613689828261355c565b83815260059390931b85018201928281019150868411156136a957600080fd5b8286015b848110156136c457803583529183019183016136ad565b509695505050505050565b600080600080608085870312156136e557600080fd5b843567ffffffffffffffff808211156136fd57600080fd5b6137098883890161365e565b9550602087013591508082111561371f57600080fd5b61372b8883890161365e565b9450604087013591508082111561374157600080fd5b61374d88838901613589565b9350606087013591508082111561376357600080fd5b506137708782880161365e565b91505092959194509250565b600081518084526020808501945080840160005b838110156137ac57815187529582019590820190600101613790565b509495945050505050565b6040815260006137ca604083018561377c565b82810360208401526130ae818561377c565b6000602082840312156137ee57600080fd5b5035919050565b60005b838110156138105781810151838201526020016137f8565b83811115610c8f5750506000910152565b600081518084526138398160208601602086016137f5565b601f01601f19169290920160200192915050565b602081526000612bcd6020830184613821565b60008060006060848603121561387557600080fd5b61387e846134cd565b95602085013595506040909401359392505050565b600080600080600060a086880312156138ab57600080fd5b6138b4866134cd565b94506138c2602087016134cd565b9350604086013567ffffffffffffffff808211156138df57600080fd5b6138eb89838a0161365e565b9450606088013591508082111561390157600080fd5b61390d89838a0161365e565b9350608088013591508082111561392357600080fd5b5061393088828901613589565b9150509295509295909350565b6000806040838503121561395057600080fd5b82359150613960602084016134cd565b90509250929050565b60006020828403121561397b57600080fd5b612bcd826134cd565b6000806040838503121561399757600080fd5b823567ffffffffffffffff808211156139af57600080fd5b818501915085601f8301126139c357600080fd5b813560206139d08261363a565b6040516139dd828261355c565b83815260059390931b85018201928281019150898411156139fd57600080fd5b948201945b83861015613a2257613a13866134cd565b82529482019490820190613a02565b96505086013592505080821115613a3857600080fd5b50613a458582860161365e565b9150509250929050565b602081526000612bcd602083018461377c565b60008060408385031215613a7557600080fd5b613a7e836134cd565b9150602083013567ffffffffffffffff811115613a9a57600080fd5b613a4585828601613589565b60008060008060808587031215613abc57600080fd5b843567ffffffffffffffff80821115613ad457600080fd5b613ae088838901613589565b9550613aee602088016134cd565b94506040870135915080821115613b0457600080fd5b613b1088838901613589565b93506060870135915080821115613b2657600080fd5b5061377087828801613589565b600080600060608486031215613b4857600080fd5b83359250602084013567ffffffffffffffff811115613b6657600080fd5b613b7286828701613589565b925050604084013590509250925092565b60008060008060808587031215613b9957600080fd5b613ba2856134cd565b93506020850135925060408501359150606085013567ffffffffffffffff811115613bcc57600080fd5b61377087828801613589565b60008060408385031215613beb57600080fd5b613bf4836134cd565b915060208301358015158114613c0957600080fd5b809150509250929050565b60008060008060808587031215613c2a57600080fd5b613c33856134cd565b9350613c41602086016134cd565b9250604085013567ffffffffffffffff811115613c5d57600080fd5b613c6987828801613589565b949793965093946060013593505050565b600080600060608486031215613c8f57600080fd5b613c98846134cd565b9250602084013567ffffffffffffffff80821115613cb557600080fd5b613cc18783880161365e565b93506040860135915080821115613cd757600080fd5b50613ce48682870161365e565b9150509250925092565b60008060408385031215613d0157600080fd5b613d0a836134cd565b9150613960602084016134cd565b600080600080600060a08688031215613d3057600080fd5b613d39866134cd565b9450613d47602087016134cd565b93506040860135925060608601359150608086013567ffffffffffffffff811115613d7157600080fd5b61393088828901613589565b634e487b7160e01b600052603260045260246000fd5b634e487b7160e01b600052601160045260246000fd5b6000600019821415613dbd57613dbd613d93565b5060010190565b600181811c90821680613dd857607f821691505b60208210811415613df957634e487b7160e01b600052602260045260246000fd5b50919050565b8381526001600160a01b03831660208201526060604082015260006130ae6060830184613821565b7f416363657373436f6e74726f6c3a206163636f756e7420000000000000000000815260008351613e5f8160178501602088016137f5565b7f206973206d697373696e6720726f6c65200000000000000000000000000000006017918401918201528351613e9c8160288401602088016137f5565b01602801949350505050565b60008219821115613ebb57613ebb613d93565b500190565b6000816000190483118215151615613eda57613eda613d93565b500290565b600081613eee57613eee613d93565b506000190190565b600082821015613f0857613f08613d93565b500390565b60006001600160a01b03808816835280871660208401525060a06040830152613f3960a083018661377c565b8281036060840152613f4b818661377c565b90508281036080840152613f5f8185613821565b98975050505050505050565b600060208284031215613f7d57600080fd5b8151612bcd81613513565b600060033d1115613fa15760046000803e5060005160e01c5b90565b600060443d1015613fb25790565b6040516003193d81016004833e81513d67ffffffffffffffff8160248401118184111715613fe257505050505090565b8285019150815181811115613ffa5750505050505090565b843d87010160208285010111156140145750505050505090565b6140236020828601018761355c565b509095945050505050565b600082516140408184602087016137f5565b9190910192915050565b60006001600160a01b03808816835280871660208401525084604083015283606083015260a0608083015261408260a0830184613821565b97965050505050505056fe416464726573733a206c6f772d6c6576656c2064656c65676174652063616c6c206661696c6564a26469706673582212206c9d85232acab00be5971e1fe2209520aa8994c56b9760f5bd158d7392a82b4b64736f6c634300080a0033",
  "immutableReferences": {
    "897": [
      {
        "length": 32,
        "start": 4010
      },
      {
        "length": 32,
        "start": 4160
      }
    ]
  },
  "source": "// SPDX-License-Identifier: MIT\npragma solidity ^0.8.10;\n\nimport \"@openzeppelin/contracts-upgradeable/proxy/utils/Initializable.sol\";\nimport \"@openzeppelin/contracts-upgradeable/token/ERC1155/ERC1155Upgradeable.sol\";\nimport \"@openzeppelin/contracts-upgradeable/access/AccessControlUpgradeable.sol\";\nimport \"@openzeppelin/contracts-upgradeable/token/ERC1155/utils/ERC1155HolderUpgradeable.sol\";\nimport \"@openzeppelin/contracts-upgradeable/utils/AddressUpgradeable.sol\";\nimport \"@openzeppelin/contracts-upgradeable/proxy/utils/UUPSUpgradeable.sol\";\nimport \"@openzeppelin/contracts-upgradeable/utils/CountersUpgradeable.sol\";\n\ncontract QuestProperties is\n    Initializable,\n    ERC1155Upgradeable,\n    ERC1155HolderUpgradeable,\n    AccessControlUpgradeable,\n    UUPSUpgradeable\n{\n    using CountersUpgradeable for CountersUpgradeable.Counter;\n    CountersUpgradeable.Counter propertyIds;\n\n    bytes32 public constant UPGRADER_ROLE = keccak256(\"UPGRADER_ROLE\");\n    bytes32 public constant TREASURY_ROLE = keccak256(\"TREASURY_ROLE\");\n\n    string public contractName;\n    string public description;\n    uint256 private propertyId;\n    uint8 private currentVersion;\n\n    struct Token {\n        uint256 id;\n        uint256 price;\n    }\n\n    struct Property {\n        bytes parentHash;\n        address propAddress;\n        Token[] tokens;\n    }\n\n    mapping(uint256 => Property) private properties;\n    mapping(uint256 => uint256) private _totalSupply;\n\n    event PropertyAdded(uint256 propertyId, address property, bytes MerkleTree);\n\n    uint256 public constant TITLE = 0;\n    uint256 public constant GOVERNANCE_RIGHT = 1;\n    uint256 public constant EQUITY_RIGHT = 2;\n    uint256 public constant POSSESSION_RIGHT = 3;\n    uint256 public constant RENT_RIGHT = 4;\n    uint256 public constant MGMT_RIGHT = 5;\n\n    uint256 public noOfRights;\n\n    function initialize(\n        address treasury,\n        address upgrader,\n        string memory uri,\n        uint256 _noOfRights\n    ) external virtual initializer {\n        __ERC1155_init(uri);\n        __AccessControl_init();\n        __ERC1155Receiver_init();\n        __ERC1155Holder_init();\n        __UUPSUpgradeable_init();\n\n        _setupRole(DEFAULT_ADMIN_ROLE, msg.sender);\n        _setupRole(TREASURY_ROLE, treasury);\n        _setupRole(UPGRADER_ROLE, upgrader);\n\n        noOfRights = _noOfRights;\n    }\n\n    function approvedProperty(\n        bytes memory _parentHash,\n        address _propAddress,\n        string memory _contractName,\n        string memory _description\n    ) external virtual onlyRole(DEFAULT_ADMIN_ROLE) {\n        propertyIds.increment();\n        propertyId = propertyIds.current();\n        properties[propertyId].parentHash = _parentHash;\n        properties[propertyId].propAddress = _propAddress;\n\n        contractName = _contractName;\n        description = _description;\n\n        emit PropertyAdded(propertyId, _propAddress, _parentHash);\n    }\n\n    function supportsInterface(bytes4 interfaceId)\n        public\n        view\n        override(\n            ERC1155Upgradeable,\n            AccessControlUpgradeable,\n            ERC1155ReceiverUpgradeable\n        )\n        returns (bool)\n    {\n        return super.supportsInterface(interfaceId);\n    }\n\n    function getPropertyId() public view returns (uint256) {\n        return propertyId;\n    }\n\n    function totalSupply(uint256 id) public view returns (uint256) {\n        return _totalSupply[id];\n    }\n\n    function exists(uint256 id) public view virtual returns (bool) {\n        return QuestProperties.totalSupply(id) > 0;\n    }\n\n    function version() public pure virtual returns (string memory) {\n        return \"1.0.0\";\n    }\n\n    function upgradeTo(address newImplementation) external virtual override {\n        require(\n            AddressUpgradeable.isContract(newImplementation),\n            \"Quest: new Implementation must be a contract\"\n        );\n    }\n\n    function mintNFT(\n        uint256 id,\n        bytes memory data,\n        uint256 price\n    )\n        external\n        payable\n        virtual\n        onlyRole(TREASURY_ROLE)\n        returns (uint256, uint256)\n    {\n        require(!exists(id), \"Quest: token already minted\");\n        require(id <= noOfRights, \"Quest: invalid token id\");\n        //We just need to check if the price of the token is greater than 0, the else statement is not required, please comment your thoughts on this\n        if (price == 0) {\n            id = 0;\n        }\n        _mint(address(this), id, 1, data);\n        properties[propertyId].tokens.push(Token(id, price));\n\n        return (id, price);\n    }\n\n    function mintBatchNFTs(\n        uint256[] memory ids,\n        uint256[] memory amounts,\n        bytes memory data,\n        uint256[] memory prices\n    )\n        external\n        payable\n        virtual\n        onlyRole(TREASURY_ROLE)\n        returns (uint256[] memory _ids, uint256[] memory _prices)\n    {\n        require(\n            ids.length == prices.length,\n            \"Quest: ids and prices length mismatch\"\n        );\n        _mintBatch(address(this), ids, amounts, data);\n        uint256 j = 0;\n        uint256 len = ids.length;\n        for (j = 0; j <= len; j++) {\n            properties[ids[j]].tokens.push(Token(ids[j], prices[j]));\n        }\n        //returns two arrays, one with the ids and one with the prices\n        return (ids, prices);\n    }\n\n    function burnNFT(\n        address from,\n        uint256 id,\n        uint256 amount\n    ) external virtual onlyRole(TREASURY_ROLE) {\n        require(exists(id), \"Quest: NFT does not exist\");\n        require(\n            from == _msgSender() || isApprovedForAll(from, _msgSender()),\n            \"Quest: caller is not owner nor approved\"\n        );\n        _burn(from, id, amount);\n    }\n\n    function burnBatchNFTs(\n        address from,\n        uint256[] memory ids,\n        uint256[] memory amounts\n    ) external virtual onlyRole(TREASURY_ROLE) {\n        require(\n            from == _msgSender() || isApprovedForAll(from, _msgSender()),\n            \"Quest: caller is not owner nor approved\"\n        );\n        _burnBatch(from, ids, amounts);\n    }\n\n    function transferNFT(\n        address to,\n        uint256 id,\n        uint256 amount,\n        bytes memory data\n    ) external payable onlyRole(DEFAULT_ADMIN_ROLE) {\n        require(balanceOf(address(this), id) >= amount);\n        require(to != address(0), \"Quest: transfer to zero address\");\n        safeTransferFrom(address(this), to, id, amount, data);\n    }\n\n    function setURI(string memory newuri)\n        external\n        onlyRole(DEFAULT_ADMIN_ROLE)\n    {\n        _setURI(newuri);\n    }\n\n    function _authorizeUpgrade(address newImplementation)\n        internal\n        virtual\n        override\n        onlyRole(UPGRADER_ROLE)\n    {}\n\n    function _beforeTokenTransfer(\n        address operator,\n        address from,\n        address to,\n        uint256[] memory ids,\n        uint256[] memory amounts,\n        bytes memory data\n    ) internal virtual override {\n        super._beforeTokenTransfer(operator, from, to, ids, amounts, data);\n\n        if (from == address(0)) {\n            for (uint256 i = 0; i < ids.length; ++i) {\n                _totalSupply[ids[i]] += amounts[i];\n            }\n        }\n\n        if (to == address(0)) {\n            for (uint256 i = 0; i < ids.length; ++i) {\n                _totalSupply[ids[i]] -= amounts[i];\n            }\n        }\n    }\n}\n",
  "sourcePath": "/home/arhan/Documents/QuestCrypto/upgrade2/QuestProperties/contracts/QuestProperties.sol",
  "compiler": {
    "name": "solc",
    "version": "0.8.10+commit.fc410830.Emscripten.clang"
  },
  "schemaVersion": "3.4.4",
  "updatedAt": "2021-12-21T13:50:08.167Z",
  "networkType": "ethereum",
  "devdoc": {
    "kind": "dev",
    "methods": {
      "balanceOf(address,uint256)": {
        "details": "See {IERC1155-balanceOf}. Requirements: - `account` cannot be the zero address."
      },
      "balanceOfBatch(address[],uint256[])": {
        "details": "See {IERC1155-balanceOfBatch}. Requirements: - `accounts` and `ids` must have the same length."
      },
      "getRoleAdmin(bytes32)": {
        "details": "Returns the admin role that controls `role`. See {grantRole} and {revokeRole}. To change a role's admin, use {_setRoleAdmin}."
      },
      "grantRole(bytes32,address)": {
        "details": "Grants `role` to `account`. If `account` had not been already granted `role`, emits a {RoleGranted} event. Requirements: - the caller must have ``role``'s admin role."
      },
      "hasRole(bytes32,address)": {
        "details": "Returns `true` if `account` has been granted `role`."
      },
      "isApprovedForAll(address,address)": {
        "details": "See {IERC1155-isApprovedForAll}."
      },
      "renounceRole(bytes32,address)": {
        "details": "Revokes `role` from the calling account. Roles are often managed via {grantRole} and {revokeRole}: this function's purpose is to provide a mechanism for accounts to lose their privileges if they are compromised (such as when a trusted device is misplaced). If the calling account had been revoked `role`, emits a {RoleRevoked} event. Requirements: - the caller must be `account`."
      },
      "revokeRole(bytes32,address)": {
        "details": "Revokes `role` from `account`. If `account` had been granted `role`, emits a {RoleRevoked} event. Requirements: - the caller must have ``role``'s admin role."
      },
      "safeBatchTransferFrom(address,address,uint256[],uint256[],bytes)": {
        "details": "See {IERC1155-safeBatchTransferFrom}."
      },
      "safeTransferFrom(address,address,uint256,uint256,bytes)": {
        "details": "See {IERC1155-safeTransferFrom}."
      },
      "setApprovalForAll(address,bool)": {
        "details": "See {IERC1155-setApprovalForAll}."
      },
      "upgradeTo(address)": {
        "details": "Upgrade the implementation of the proxy to `newImplementation`. Calls {_authorizeUpgrade}. Emits an {Upgraded} event."
      },
      "upgradeToAndCall(address,bytes)": {
        "details": "Upgrade the implementation of the proxy to `newImplementation`, and subsequently execute the function call encoded in `data`. Calls {_authorizeUpgrade}. Emits an {Upgraded} event."
      },
      "uri(uint256)": {
        "details": "See {IERC1155MetadataURI-uri}. This implementation returns the same URI for *all* token types. It relies on the token type ID substitution mechanism https://eips.ethereum.org/EIPS/eip-1155#metadata[defined in the EIP]. Clients calling this function must replace the `\\{id\\}` substring with the actual token type ID."
      }
    },
    "version": 1
  },
  "userdoc": {
    "kind": "user",
    "methods": {},
    "version": 1
  }
}